:100A3D000A42545F4457000A42545F5550000A421F
:100A4D00545F4531000A42545F4532000A42545FFB
:0A0A5D004533000A42545F4534009F
:0C0AB500C10DC10EC109C10AC10BC10C6A
:100A6700E4FEEEC39408748094805016EFC4131309
:100A770013540124FF9285C290D290EF25E0FF0E18
:060A870080E0C280D28075
:010A8D002246
:10099B008B3A8A3B893CEDFFC39401748094804071
:1009AB002CD3EF940874809480502212035FFFEDD8
:1009BB0014FEF87401088002C333D8FC4F1203787D
:0E09CB00AB3AAA3BA93C12035FFF120A672257
:10095C008B3D8A3E893FEDFFC394017480948040A7
:10096C002DD3EF940874809480502312035FFFED15
:10097C0014FEF87401088002C333D8FCF45F120330
:0F098C0078AB3DAA3EA93F12035FFF120A672214
:100A1200E4FFF50AFEC284D284C283FDEDC39408CA
:100A2200748094805011EF25E0FF20820343070178
:0A0A3200D281C2810D80E5EFF4FFD0
:010A3C002297
:1004DF00E4F508F5097F807E25FDFC1206C0D29950
:1004EF0053B1FD43B20253B1EF43B21053B1F743CF
:1004FF00B20843B10453B2FB53B1FE43B20153B13F
:10050F00DF43B22053B3FE43B401120A128F08EF38
:10051F00647F701B200D18D20D7BFF7A0A793D1274
:10052F0000657FC87E007D007C001208C68007E54D
:10053F0008F47002C20DE50864F7701B200E18D284
:10054F000E7BFF7A0A79441200657FC87E007D001A
:10055F007C001208C68007E508F47002C20EE50899
:10056F0064BF701B200918D2097BFF7A0A794B12DE
:10057F0000657FC87E007D007C001208C68007E5FD
:10058F0008F47002C209E50864FB701B200A18D238
:10059F000A7BFF7A0A79521200657FC87E007D00C0
:1005AF007C001208C68007E508F47002C20AE5084D
:1005BF0064FE701B200B18D20B7BFF7A0A7959123D
:1005CF0000657FC87E007D007C001208C68007E5AD
:1005DF0008F47002C20BE50864FD701C200C19D2E0
:1005EF000C7BFF7A0A79601200657FC87E007D0060
:1005FF007C001208C6020519E508F460030205190C
:05060F00C20C020519F8
:10087B008F258E248D238C22538EF7438901D28CA6
:10088B00E4FFFEFDFCAB25AA24A923A822C3120476
:10089B00586025758A7E758CFF308DFDC28DE525E0
:1008AB0024FFF525E52434FFF524E52334FFF52358
:0B08BB00E52234FFF52280C8C28C2229
:1008C6008F0D8E0C8D0B8C0A538EF7438901D28CBB
:1008D600E4FFFEFDFCAB0DAA0CA90BA80AC312048B
:1008E600586025758ACA758CFA308DFDC28DE50D66
:1008F60024FFF50DE50C34FFF50CE50B34FFF50B85
:0B090600E50A34FFF50A80C8C28C220D
:100911008F298E288D278C26538EEF438910D28EF6
:10092100E4FFFEFDFCAB29AA28A927A826C31204CF
:10093100586025758BEA758DCB308FFDC28FE52907
:1009410024FFF529E52834FFF528E52734FFF527AD
:0B095100E52634FFF52680C8C28E2288
:10082D008F2D8E2C8D2B8C2A53C9BF53C9DF43C9F5
:10083D0010D2CAE4FFFEFDFCAB2DAA2CA92BA82AD1
:10084D00C3120458602575CC3075CDF830CFFDC27C
:10085D00CFE52D24FFF52DE52C34FFF52CE52B34BC
:0E086D00FFF52BE52A34FFF52A80C8C2CA2207
:10078D008F318E308D2F8C2E75C40743C408E4FF36
:10079D00FEFDFCAB31AA30A92FA82EC31204586060
:1007AD002B75C52C75C6CFE5C45410641070F85365
:1007BD00C4EFE53124FFF531E53034FFF530E52F99
:1007CD0034FFF52FE52E34FFF52E80C253C4F722EA
:1007DD008F358E348D338C3275C40743C408E4FFD6
:1007ED00FEFDFCAB35AA34A933A832C31204586000
:1007FD002B75C5D875C6FFE5C45410641070F85339
:10080D00C4EFE53524FFF535E53434FFF534E53334
:10081D0034FFF533E53234FFF53280C253C4F7228D
:1009D90053B1BF53B2BF53B17F53B27F75985043E0
:1009E9008920438780438E1053C4DFAB07AA06A929
:1009F90005A8047F407E427D0F7C001203C6EF04E8
:090A0900F404F58DD28ED299227D
:1006C0008F0D8E0C8D0B8C0A53B1BF53B2BF53B13B
:1006D0007F53B27F75985043878053C4F843C4203A
:1006E000AB0DAA0CA90BA80A7F407E427D0F7C00AF
:1006F0001203C6C374FF9FFF74FF9EFEE49DFDE4DA
:100700009CFC78081204698FC6AB0DAA0CA90BA833
:100710000A7F407E427D0F7C001203C6C374FF9F98
:09072000FF8FC543C408D29922E1
:070AC2003098FDAF99C298C6
:010AC900220A
:080ACA00C2998F993099FD22B9
:100729008F398E388D378C3653B1FB53B2FB53B3A7
:10073900BF53B4BF75F85075C40853C4DFAB39AAA9
:1007490038A937A8367F407E427D0F7C001203C648
:10075900C374FF9FFF74FF9EFEE49DFDE49CFC783B
:10076900081204698FC6AB39AA38A937A8367F4061
:100779007E427D0F7C001203C6C374FF9FFF8FC5A5
:0407890043C408223B
:070AD20030F8FDAF9AC2F8F5
:010AD90022FA
:080ADA00C2F98F9A30F9FD22E8
:03000000020614E1
:1006140075C7AA75C75575FD5A75C7AA75C75575A7
:10062400FDA5787FE4F6D8FD9000007FFF7E03E40B
:0C063400F0A3DFFCDEFA75813F02067BBC
:100640000204DFE493A3F8E493A34003F68001F2ED
:1006500008DFF48029E493A3F85407240CC8C333BB
:10066000C4540F4420C8834004F456800146F6DF8A
:10067000E4800B0102040810204080900AB5E47E5B
:10068000019360BCA3FF543F30E509541FFEE4937F
:10069000A360010ECF54C025E060A840B8E493A346
:1006A000FAE493A3F8E493A3C8C582C8CAC583CA71
:1006B000F0A3C8C582C8CAC583CADFE9DEE780BE29
:010AC1000034
:10035F00BB010689828A83E0225002E722BBFE029C
:09036F00E32289828A83E49322CF
:10037800BB010689828A83F0225002F722BBFE0164
:02038800F3225E
:10038A0075F008758200EF2FFFEE33FECD33CDCC2A
:10039A0033CCC58233C5829BED9AEC99E5829840AD
:1003AA000CF582EE9BFEED9AFDEC99FC0FD5F0D68A
:1003BA00E4CEFBE4CDFAE4CCF9A88222B800C1B9B4
:1003CA000059BA002DEC8BF084CFCECDFCE5F0CBF2
:1003DA00F97818EF2FFFEE33FEED33FDEC33FCEB2B
:1003EA0033FB10D703994004EB99FB0FD8E5E4F9E6
:1003FA00FA227818EF2FFFEE33FEED33FDEC33FCD3
:10040A00C933C910D7059BE99A4007EC9BFCE99AC6
:10041A00F90FD8E0E4C9FAE4CCFB2275F010EF2F0B
:10042A00FFEE33FEED33FDCC33CCC833C810D7070B
:10043A009BEC9AE899400AED9BFDEC9AFCE899F846
:0E044A000FD5F0DAE4CDFBE4CCFAE4C8F922D9
:10045800EB9FF5F0EA9E42F0E99D42F0E89C45F0FA
:010468002271
:10046900E8600FECC313FCED13FDEE13FEEF13FF71
:03047900D8F12295
:10000300E519240DF8E6051922780A300702780D60
:10001300E475F0011204A902035F2000EB7F2ED2E6
:10002300008018EF540F2490D43440D4FF30040BD5
:10003300EF24BFB41A0050032461FFE51A600215D0
:100043001A051DE51D7002051C30070D780AE475BD
:10005300F0011204A9EF020378020A8E7403D20797
:100063008003E4C207F5198B0A8A0B890CE4F51A9D
:10007300F51CF51DE51A60077F2012003E80F5751B
:100083001BFFC201C200C202C203C205C206C208EC
:1000930012000CFF700D3007057F0012004FAF1DDB
:1000A300AE1C22B4255FC2D5C20412000CFF24D0BB
:1000B300B40A00501A75F00A781A30D50508B6FF4D
:1000C3000106C6A426F620D5047002D20380D924E3
:1000D300CFB41A00EF5004C2E5D20402024FD2019A
:1000E30080C6D20080C0D20280BCD2D580BAD205ED
:1000F30080B47F2012003E2002077401B51A00402D
:10010300F1120003FF12003E020077D208D20680EC
:1001130095120003FB120003FA120003F94A4B7015
:100123000679207A037BFF20022EE51A602A7E00DF
:100133008E8275830012047C60060EEE651B70F0E0
:10014300C2D5EBC0E0EAC0E0E9C0E0EE120296D00F
:10015300E0F9D0E0FAD0E0FB12035FFF60AAEBC046
:10016300E0EAC0E0E9C0E012003ED0E02401F9D0AB
:10017300E03400FAD0E0FBE51B0460DCD51BD9803A
:10018300877BFF7A027992D202809C791080027970
:1001930008C206C2088008D2D5790A8004790AC247
:1001A300D5E51B047002F51BE4FAFDFEFF12000304
:1001B300FC7B08200113120003FD7B1030000A12A0
:1001C3000003FE120003FF7B20EC3382D592D5504F
:1001D30013C3E43000069FFFE49EFEE42001039D69
:1001E300FDE49CFCE4CBF8C201EC700CCFCECDCC8B
:1001F300E824F8F870F38017C3EF33FFEE33FEED16
:1002030033FDEC33FCEB33FB994002FB0FD8E9EBF6
:10021300300105F8D0E0C448B201C0E00AEC4D4E0D
:100223004F78207B0070C2EAB51B0040BCC0E012CF
:100233000298D0F0D0E0200104C4C0E0C4B201C0F1
:10024300F0120027D0F0D5F0EB0200771204B901C9
:100253001453018E5800E54C00E14201924F019A7C
:0F02630044019A4900FA4301A0550184460184E1
:100272004501844703405000E92D00ED2E01102B6B
:1002820000F123010E2003292A00A94800000108D9
:100292003F3F3F00790AA2D5200314300509B91067
:1002A200020404B9080104A2D52006025001042068
:1002B20002689202B51A005034C0E07F2030031960
:1002C2007F30A20272067205500F1202EFC202C202
:1002D20006C205C2087F30800F300503E9C0E01274
:1002E200003E300503D0E0F9D0E0B51ACC30051756
:1002F2007F30B9100C12003E7F583004077F78809F
:1003020003B9080312003E3002057F2D02003E7F32
:10031200202008F87F2B2006F322920280CF286E3D
:10032200756C6C2900D2011200033001F8C2017809
:100332001A30D50108F60200A92D5043495812007F
:10034200032403B405004001E490033B9312002F01
:0D035200743A12002FD203751A0402018EB6
:10047C00BB010CE58229F582E5833AF583E0225035
:10048C0006E92582F8E622BBFE06E92582F8E2227F
:0D049C00E58229F582E5833AF583E4932299
:1004A900FAE6FB0808E6F925F0F618E6CA3AF62254
:1004B900D083D082F8E4937012740193700DA3A3D2
:1004C90093F8740193F5828883E4737402936860E6
:0604D900EFA3A3A380DFE6
:100A8E00EFB40A07740D120A99740A309811A899D6
:100A9E00B8130CC2983098FDA899C298B811F630C8
:070AAE0099FDC299F59922A0
:00000001FF
