:03043500A2F82208
:05043000C2F8AF9A22A2
:1003F6007F807E257D007C0012015E12043550FB55
:080406001204308F08120428D3
:02040E0080F17B
:1003910053B1BF53B2BF53B17F53B27F759850432E
:1003A1008920438780438E1053C4DFAB07AA06A977
:1003B10005A8047F407E427D0F7C0012003FEF04C0
:0903C100F404F58DD28ED29922CC
:1000F5008F108E0F8D0E8C0D53B1BF53B2BF53B100
:100105007F53B27F75985043878053C4F843C4200A
:10011500AB10AA0FA90EA80D7F407E427D0F7C0073
:1001250012003FC374FF9FFF74FF9EFEE49DFDE434
:100135009CFC78081200E28FC6AB10AA0FA90EA886
:100145000D7F407E427D0F7C0012003FC374FF9FF0
:09015500FF8FC543C408D29922B2
:070410003098FDAF99C2987E
:0104170022C2
:08041800C2998F993099FD2271
:10015E008F0C8E0B8D0A8C0953B1FB53B2FB53B32C
:10016E00BF53B4BF75F85075C40853C4DFAB0CAAA7
:10017E000BA90AA8097F407E427D0F7C0012003F2A
:10018E00C374FF9FFF74FF9EFEE49DFDE49CFC780C
:10019E00081200E28FC6AB0CAA0BA90AA8097F4071
:1001AE007E427D0F7C0012003FC374FF9FFF8FC500
:0401BE0043C408220C
:0704200030F8FDAF9AC2F8AD
:0104270022B2
:08042800C2F98F9A30F9FD22A0
:1002B0008F148E138D128C11538EF7438901D28CBB
:1002C000E4FFFEFDFCAB14AA13A912A811C312008F
:1002D000D16025758A7E758CFF308DFDC28DE51449
:1002E00024FFF514E51334FFF513E51234FFF5127E
:0B02F000E51134FFF51180C8C28C221C
:1002FB008F188E178D168C15538EF7438901D28C60
:10030B00E4FFFEFDFCAB18AA17A916A815C3120033
:10031B00D16025758ACA758CFA308DFDC28DE518B2
:10032B0024FFF518E51734FFF517E51634FFF5161E
:0B033B00E51534FFF51580C8C28C22C8
:100346008F1C8E1B8D1A8C19538EEF438910D28EFB
:10035600E4FFFEFDFCAB1CAA1BA91AA819C31200D8
:10036600D16025758BEA758DCB308FFDC28FE51C6C
:1003760024FFF51CE51B34FFF51BE51A34FFF51ABF
:0B038600E51934FFF51980C8C28E2273
:100262008F248E238D228C2153C9BF53C9DF43C9EA
:1002720010D2CAE4FFFEFDFCAB24AA23A922A821C6
:10028200C31200D1602575CC3075CDF830CFFDC2D8
:10029200CFE52424FFF524E52334FFF523E52234BA
:0E02A200FFF522E52134FFF52180C8C2CA22F3
:1001C2008F288E278D268C2575C40743C408E4FF2B
:1001D200FEFDFCAB28AA27A926A825C31200D160E0
:1001E2002B75C52C75C6CFE5C45410641070F85336
:1001F200C4EFE52824FFF528E52734FFF527E52697
:1002020034FFF526E52534FFF52580C253C4F722D5
:100212008F2C8E2B8D2A8C2975C40743C408E4FFCA
:10022200FEFDFCAB2CAA2BA92AA829C31200D1607F
:100232002B75C5D875C6FFE5C45410641070F85309
:10024200C4EFE52C24FFF52CE52B34FFF52BE52A32
:1002520034FFF52AE52934FFF52980C253C4F72279
:030000000203CA2E
:1003CA0075C7AA75C75575FD5A75C7AA75C75575F4
:1003DA00FDA5787FE4F6D8FD9000007FFF7E03E458
:0C03EA00F0A3DFFCDEFA75812C0203F6A4
:1000030075F008758200EF2FFFEE33FECD33CDCCB4
:1000130033CCC58233C5829BED9AEC99E582984037
:100023000CF582EE9BFEED9AFDEC99FC0FD5F0D614
:10003300E4CEFBE4CDFAE4CCF9A88222B800C1B93E
:100043000059BA002DEC8BF084CFCECDFCE5F0CB7C
:10005300F97818EF2FFFEE33FEED33FDEC33FCEBB5
:1000630033FB10D703994004EB99FB0FD8E5E4F970
:10007300FA227818EF2FFFEE33FEED33FDEC33FC5D
:10008300C933C910D7059BE99A4007EC9BFCE99A51
:10009300F90FD8E0E4C9FAE4CCFB2275F010EF2F96
:1000A300FFEE33FEED33FDCC33CCC833C810D70796
:1000B3009BEC9AE899400AED9BFDEC9AFCE899F8D1
:0E00C3000FD5F0DAE4CDFBE4CCFAE4C8F92264
:1000D100EB9FF5F0EA9E42F0E99D42F0E89C45F085
:0100E10022FC
:1000E200E8600FECC313FCED13FDEE13FEEF13FFFC
:0300F200D8F12220
:00000001FF
