:0603550004080000000096
:03002B00020003CD
:10000300C0E0C0D0C2CFE50B2401F50BE4350AF5FF
:100013000AE43509F509E43508F508D0D0D0E03213
:1001CC00E4F5B1F5B2F5B3F5B4F5ACF5AD43C91042
:1001DC0053C99F53C8FE43C98043C90875CA60758B
:1001EC00CBF0F5CDF5CCD2CA439B80D2AF850B0FAB
:1001FC00850A0E85090D85080CC3E50B950FFFE5E7
:10020C000A950EFEE509950DFDE508950CFCE47BC1
:10021C00F47A01F9F8D31200FC50DE850B0F850A35
:0B022C000E85090D85080CB29280CEF3
:1003040053B1BF53B2BF53B17F53B27F75985043BB
:100314008920438780438E1053C4DFAB07AA06A904
:1003240005A8047F407E427D0F7C0012006AEF0422
:09033400F404F58DD28ED2992259
:100237008F138E128D118C1053B1BF53B2BF53B1B0
:100247007F53B27F75985043878053C4F843C420C7
:10025700AB13AA12A911A8107F407E427D0F7C0024
:1002670012006AC374FF9FFF74FF9EFEE49DFDE4C6
:100277009CFC780812010D8FC6AB13AA12A911A80E
:10028700107F407E427D0F7C0012006AC374FF9F7F
:09029700FF8FC543C408D299226F
:070023003098FDAF99C2986F
:01002A0022B3
:08033D00C2998F993099FD224D
:1002A0008F178E168D158C1453B1FB53B2FB53B3BD
:1002B000BF53B4BF75F85075C40853C4DFAB17AA59
:1002C00016A915A8147F407E427D0F7C0012006A9B
:1002D000C374FF9FFF74FF9EFEE49DFDE49CFC78C9
:1002E0000812010D8FC6AB17AA16A915A8147F40D6
:1002F0007E427D0F7C0012006AC374FF9FFF8FC592
:0403000043C40822C8
:0703450030F8FDAF9AC2F889
:01034C00228E
:08034D00C2F98F9A30F9FD227C
:03000000020120DA
:1001200075C7AA75C75575FD5A75C7AA75C75575A0
:10013000FDA5787FE4F6D8FD9000007FFF7E03E404
:0C014000F0A3DFFCDEFA758117020187D6
:10014C000201CCE493A3F8E493A34003F68001F2FC
:10015C0008DFF48029E493A3F85407240CC8C333B4
:10016C00C4540F4420C8834004F456800146F6DF83
:10017C00E4800B0102040810204080900355E47EBB
:10018C00019360BCA3FF543F30E509541FFEE49378
:10019C00A360010ECF54C025E060A840B8E493A33F
:1001AC00FAE493A3F8E493A3C8C582C8CAC583CA6A
:1001BC00F0A3C8C582C8CAC583CADFE9DEE780BE22
:01035B0000A1
:10002E0075F008758200EF2FFFEE33FECD33CDCC89
:10003E0033CCC58233C5829BED9AEC99E58298400C
:10004E000CF582EE9BFEED9AFDEC99FC0FD5F0D6E9
:10005E00E4CEFBE4CDFAE4CCF9A88222B800C1B913
:10006E000059BA002DEC8BF084CFCECDFCE5F0CB51
:10007E00F97818EF2FFFEE33FEED33FDEC33FCEB8A
:10008E0033FB10D703994004EB99FB0FD8E5E4F945
:10009E00FA227818EF2FFFEE33FEED33FDEC33FC32
:1000AE00C933C910D7059BE99A4007EC9BFCE99A26
:1000BE00F90FD8E0E4C9FAE4CCFB2275F010EF2F6B
:1000CE00FFEE33FEED33FDCC33CCC833C810D7076B
:1000DE009BEC9AE899400AED9BFDEC9AFCE899F8A6
:0E00EE000FD5F0DAE4CDFBE4CCFAE4C8F92239
:1000FC00EB9FF5F0EA9E42F0E99D42F0E89C45F05A
:01010C0022D0
:10010D00E8600FECC313FCED13FDEE13FEEF13FFD0
:03011D00D8F122F4
:00000001FF
