:100CF300436865636B204572726F720A00577269AD
:100D030074652064617461204572726F720A0052C7
:100D13006561642064617461204572726F720A00B8
:100D2300436F6465207465737420504153530A0004
:100D33004461746120726561643A202564202564EE
:020D43000A00A4
:10052900E4F522F523F524F52553B3FB43B404C2BE
:1005390092FF7EC27D01FC120C26D299120FC77F51
:10054900A0120B674025D2927FF47E017D007C00CA
:10055900120E7EC2927FF47E017D007C00120E7E17
:100569007BFF7A0C79F312006580DB7F017E007DC9
:10057900007C00120E7E7D227C067F027E0012071F
:10058900D74025D2927FF47E017D007C00120E7E39
:10059900C2927FF47E017D007C00120E7E7BFF7A81
:1005A9000D790012006580DB7F017E007D007C00F3
:1005B900120E7E7DE77C077F047E001207D7402557
:1005C900D2927FF47E017D007C00120E7EC2927F62
:1005D900F47E017D007C00120E7E7BFF7A0D79008E
:1005E90012006580DB7F017E007D007C00120E7E9B
:1005F9007B007A0079227F027E00120A9D40167FD5
:10060900E87E037D007C00120E7E7BFF7A0D791255
:1006190012006580EA7B007A0079237F037E00124D
:100629000A9D40167FE87E037D007C00120E7E7BCA
:10063900FF7A0D791212006580EA7B007A00792829
:100649007F047E001206C140167FE87E037D007C90
:1006590000120E7E7BFF7A0D791212006580EAAFD7
:1006690022EF3395E0EFFEAD23ED3395E04EF5260D
:10067900EDF5277FF47E017D007C00120E7E7BFF65
:100689007A0D7923120065D2927FF47E017D007C78
:1006990000120E7EC2927FF47E017D007C00120E54
:1006A9007E7BFF7A0D793385262D85272E85282F88
:0806B90085293012006580CF95
:100FC70075BE2753B3F753B4F753B3EF53B4EFD208
:060FD70093D294D2C62261
:0409C4008E308F31B1
:1009C800AFBDEF64F86002C322C2C4D2C5C2C3750A
:1009D8003200753301E4F53420C315E53345327030
:1009E80005753401800A0533E53370EC053280E87B
:1009F800E5346003020A90AFBDEF64086003020AA1
:100A080090C2C5C2C475BCA0C2C37532007533019B
:100A1800E4F53420C315E53345327005753401809B
:100A28000A0533E53370EC053280E8E5346002806E
:100A380057AFBDEF64186002804EE4F535AF357EE0
:100A480000C3EF9402748094805046EF7006E5303E
:100A5800F5BC8004E531F5BCC2C3753200753301BD
:100A6800E4F53420C315E53345327005753401804B
:100A78000A0533E53370EC053280E8E5346002801E
:100A880007AFBDEF64286005120F79C322053580D2
:040A9800AC120F7914
:010A9C002237
:0608D5008E088F098D0A58
:1008DB00AFBDEF64F86002C322C2C4D2C5C2C375F8
:1008EB000D00750E01E4F50C20C315E50E450D70DA
:1008FB0005750C01800A050EE50E70EC050D80E800
:10090B00E50C60030209B7AFBDEF64086003020991
:10091B00B7C2C5C2C475BCA0C2C3750D00750E01AC
:10092B00E4F50C20C315E50E450D7005750C018023
:10093B000A050EE50E70EC050D80E8E50C600280F3
:10094B006BAFBDEF641860028062E4F50BAF0B7EFA
:10095B0000C3EF940374809480505AEF7006E5083F
:10096B00F5BC8018AF0B7E00EF64017006E509F54E
:10097B00BC8009EF64024E7003850ABCC2C3750DBF
:10098B0000750E01E4F50C20C315E50E450D700541
:10099B00750C01800A050EE50E70EC050D80E8E57F
:1009AB000C60028007AFBDEF64286005120F79C39E
:0809BB0022050B8098120F7950
:0109C3002211
:0807D7008E2A8F2B8C2C8D2D36
:1007DF00AFBDEF64F86002C322C2C4D2C5C2C375F5
:1007EF003000753101E4F52F20C315E53145307028
:1007FF0005752F01800A0531E53170EC053080E871
:10080F00E52F60030208C8AFBDEF6408600302085C
:10081F00C8C2C5C2C475BCA0C2C375300075310152
:10082F00E4F52F20C315E53145307005752F018094
:10083F000A0531E53170EC053080E8E52F60028064
:10084F0078AFBDEF64186002806FE4F52EAF2E7E97
:10085F0000C3EF9404748094805067EF7006E52A0C
:10086F00F5BC8025AF2E7E00EF64017006E52BF5F9
:10087F00BC8016EF64024E7006E52CF5BC800AE5CD
:10088F002E64037004E52DF5BCC2C37530007531BD
:10089F0001E4F52F20C315E53145307005752F01A3
:1008AF00800A0531E53170EC053080E8E52F6002F4
:1008BF008007AFBDEF64286005120F79C322052EA4
:0508CF00808B120F797F
:0108D4002201
:060A9D008B2A8A2B892C34
:100AA3001209C4400122AFBDEF64F86002C322C241
:100AB300C4D2C5C2C3752E00752F01E4F52D20C322
:100AC30015E52F452E7005752D01800A052FE52F9D
:100AD30070EC052E80E8E52D60028074AFBDEF64F5
:100AE300086002806BC2C5C2C475BCA1C2C3752EA7
:100AF30000752F01E4F52D20C315E52F452E700554
:100B0300752D01800A052FE52F70EC052E80E8E591
:100B13002D6002803BAFBDEF644060028032C2C2F1
:100B2300C2C3752E00752F01E4F52D20C315E52FE3
:100B3300452E7005752D01800A052FE52F70EC05F4
:100B43002E80E8E52D60028007AFBDEF6458600595
:100B5300120F79C322AB2AAA2BA92CE5BC12035F7F
:030B6300120F79F5
:010B6600226C
:0606C1008B2A8A2B892C14
:1006C7001209C4400122AFBDEF64F86002C322C221
:1006D700C4D2C5C2C3752E00752F01E4F52D20C302
:1006E70015E52F452E7005752D01800A052FE52F7D
:1006F70070EC052E80E8E52D60030207BBAFBDEF68
:10070700640860030207BBC2C5C2C475BCA1C2C3EB
:10071700752E00752F01E4F52D20C315E52F452E05
:100727007005752D01800A052FE52F70EC052E80C9
:10073700E8E52D6002807DAFBDEF64406002807404
:10074700D2C2C2C3752E00752F01E4F52D20C31543
:10075700E52F452E7005752D01800A052FE52F70B1
:10076700EC052E80E8E52D60028049AFBDEF6450AF
:1007770060028040AFBCAB2AAA2BA92CE48FF012F1
:10078700039CC2C2C2C3752E00752F01E4F52D204C
:10079700C315E52F452E7005752D01800A052FE538
:1007A7002F70EC052E80E8E52D60028007AFBDEFC6
:1007B70064586005120F79C322AB2AAA2BA92C1201
:0F07C7000371FFADBCEDCF8FF012039C120F79C1
:0107D6002200
:020B67008F2AD3
:100B6900AFBDEF64F86002C322C2C4D2C5C2C37567
:100B79002B00752C01E4F52D20C315E52C452B70B0
:100B890005752D01800A052CE52C70EC052B80E8F4
:100B9900E52D60028077AFBDEF64086002806EC208
:100BA900C5C2C4E52A4401F5BCC2C3752B00752C26
:100BB90001E4F52D20C315E52C452B7005752D0194
:100BC900800A052CE52C70EC052B80E8E52D6002E8
:100BD900803BAFBDEF644060028032C2C2C2C375C0
:100BE9002B00752C01E4F52D20C315E52C452B7040
:100BF90005752D01800A052CE52C70EC052B80E884
:100C0900E52D60028007AFBDEF64586005120F79CA
:0C0C1900C322AFBC752B008F2C120F798A
:010C250022AC
:100F7900C2C5D2C4C2C37F017E00E4FDACBDEC642E
:100F8900F8600FEF4E70047D0180070FBF00010E5E
:060F990080EAED24FFB325
:010F9F00222F
:100F140053B1BF53B2BF53B17F53B27F759850439F
:100F24008920438780438E1053C4DFAB07AA06A9E8
:100F340005A8047F407E427D0F7C001203F7EF0476
:090F4400F404F58DD28ED299223D
:100C26008F2D8E2C8D2B8C2A53B1BF53B2BF53B14F
:100C36007F53B27F75985043878053C4F843C420CE
:100C4600AB2DAA2CA92BA82A7F407E427D0F7C00C3
:100C56001203F7C374FF9FFF74FF9EFEE49DFDE43D
:100C66009CFC780812049A8FC6AB2DAA2CA92BA837
:100C76002A7F407E427D0F7C001203F7C374FF9FDC
:090C8600FF8FC543C408D2992276
:070FDD003098FDAF99C298A6
:010FE40022EA
:080FE500C2998F993099FD2299
:100C8F008F128E118D108C0F53B1FB53B2FB53B3D8
:100C9F00BF53B4BF75F85075C40853C4DFAB12AA65
:100CAF0011A910A80F7F407E427D0F7C001203F721
:100CBF00C374FF9FFF74FF9EFEE49DFDE49CFC78D0
:100CCF000812049A8FC6AB12AA11A910A80F7F4061
:100CDF007E427D0F7C001203F7C374FF9FFF8FC509
:040CEF0043C40822D0
:070FED0030F8FDAF9AC2F8D5
:010FF40022DA
:080FF500C2F98F9A30F9FD22C8
:100E33008F168E158D148C13538EF7438901D28C24
:100E4300E4FFFEFDFCAB16AA15A914A813C31204F4
:100E5300896025758A7E758CFF308DFDC28DE51600
:100E630024FFF516E51534FFF515E51434FFF514E5
:0B0E7300E51334FFF51380C8C28C2289
:100E7E008F2D8E2C8D2B8C2A538EF7438901D28C7D
:100E8E00E4FFFEFDFCAB2DAA2CA92BA82AC312044D
:100E9E00896025758ACA758CFA308DFDC28DE52D57
:100EAE0024FFF52DE52C34FFF52CE52B34FFF52B27
:0B0EBE00E52A34FFF52A80C8C28C2210
:100EC9008F1A8E198D188C17538EEF438910D28E75
:100ED900E4FFFEFDFCAB1AAA19A918A817C312044E
:100EE900896025758BEA758DCB308FFDC28FE51A28
:100EF90024FFF51AE51934FFF519E51834FFF5183B
:0B0F0900E51734FFF51780C8C28E22E8
:100DE5008F1E8E1D8D1C8C1B53C9BF53C9DF43C974
:100DF50010D2CAE4FFFEFDFCAB1EAA1DA91CA81B50
:100E0500C3120489602575CC3075CDF830CFFDC28D
:100E1500CFE51E24FFF51EE51D34FFF51DE51C3449
:0E0E2500FFF51CE51B34FFF51B80C8C2CA2276
:100D45008F418E408D3F8C3E75C40743C408E4FF38
:100D5500FEFDFCAB41AA40A93FA83EC31204896031
:100D65002B75C52C75C6CFE5C45410641070F853A7
:100D7500C4EFE54124FFF541E54034FFF540E53F8B
:100D850034FFF53FE53E34FFF53E80C253C4F722FC
:100D95008F458E448D438C4275C40743C408E4FFD8
:100DA500FEFDFCAB45AA44A943A842C312048960D1
:100DB5002B75C5D875C6FFE5C45410641070F8537B
:100DC500C4EFE54524FFF545E54434FFF544E54327
:100DD50034FFF543E54234FFF54280C253C4F722A0
:03000000020F4D9F
:100F4D0075C7AA75C75575FD5A75C7AA75C7557565
:100F5D00FDA5787FE4F6D8FD9000007FFF7E03E4C9
:0C0F6D00F0A3DFFCDEFA758145020529C7
:10035F00BB010689828A83F0225002F722BBFE017D
:02036F00F32277
:10037100BB010A89828A83E0F5F0A3E02250068757
:10038100F009E71922BBFE07E3F5F009E319228919
:0B039100828A83E493F5F0740193224C
:10039C00BB010A89828A83F0E5F0A3F0225006F7AC
:0F03AC0009A7F01922BBFE06F3E5F009F31922A9
:1003BB0075F008758200EF2FFFEE33FECD33CDCCF9
:1003CB0033CCC58233C5829BED9AEC99E58298407C
:1003DB000CF582EE9BFEED9AFDEC99FC0FD5F0D659
:1003EB00E4CEFBE4CDFAE4CCF9A88222B800C1B983
:1003FB000059BA002DEC8BF084CFCECDFCE5F0CBC1
:10040B00F97818EF2FFFEE33FEED33FDEC33FCEBF9
:10041B0033FB10D703994004EB99FB0FD8E5E4F9B4
:10042B00FA227818EF2FFFEE33FEED33FDEC33FCA1
:10043B00C933C910D7059BE99A4007EC9BFCE99A95
:10044B00F90FD8E0E4C9FAE4CCFB2275F010EF2FDA
:10045B00FFEE33FEED33FDCC33CCC833C810D707DA
:10046B009BEC9AE899400AED9BFDEC9AFCE899F815
:0E047B000FD5F0DAE4CDFBE4CCFAE4C8F922A8
:10048900EB9FF5F0EA9E42F0E99D42F0E89C45F0C9
:010499002240
:10049A00E8600FECC313FCED13FDEE13FEEF13FF40
:0304AA00D8F12264
:10000300E539242DF8E6053922782A300702782DC0
:10001300E475F0011204F30204AD2000EB7F2ED24D
:10002300008018EF540F2490D43440D4FF30040BD5
:10003300EF24BFB41A0050032461FFE53A600215B0
:100043003A053DE53D7002053C30070D782AE4751D
:10005300F0011204F3EF02035F020FA07403D2074F
:100063008003E4C207F5398B2A8A2B892CE4F53AFD
:10007300F53CF53DE53A60077F2012003E80F575BB
:100083003BFFC201C200C202C203C205C206C208CC
:1000930012000CFF700D3007057F0012004FAF3DBB
:1000A300AE3C22B4255FC2D5C20412000CFF24D09B
:1000B300B40A00501A75F00A783A30D50508B6FF2D
:1000C3000106C6A426F620D5047002D20380D924E3
:1000D300CFB41A00EF5004C2E5D20402024FD2019A
:1000E30080C6D20080C0D20280BCD2D580BAD205ED
:1000F30080B47F2012003E2002077401B53A00400D
:10010300F1120003FF12003E020077D208D20680EC
:1001130095120003FB120003FA120003F94A4B7015
:100123000679207A037BFF20022EE53A602A7E00BF
:100133008E827583001204C660060EEE653B70F076
:10014300C2D5EBC0E0EAC0E0E9C0E0EE120296D00F
:10015300E0F9D0E0FAD0E0FB1204ADFF60AAEBC0F7
:10016300E0EAC0E0E9C0E012003ED0E02401F9D0AB
:10017300E03400FAD0E0FBE53B0460DCD53BD980FA
:10018300877BFF7A027992D202809C791080027970
:1001930008C206C2088008D2D5790A8004790AC247
:1001A300D5E53B047002F53BE4FAFDFEFF120003C4
:1001B300FC7B08200113120003FD7B1030000A12A0
:1001C3000003FE120003FF7B20EC3382D592D5504F
:1001D30013C3E43000069FFFE49EFEE42001039D69
:1001E300FDE49CFCE4CBF8C201EC700CCFCECDCC8B
:1001F300E824F8F870F38017C3EF33FFEE33FEED16
:1002030033FDEC33FCEB33FB994002FB0FD8E9EBF6
:10021300300105F8D0E0C448B201C0E00AEC4D4E0D
:100223004F78207B0070C2EAB53B0040BCC0E012AF
:100233000298D0F0D0E0200104C4C0E0C4B201C0F1
:10024300F0120027D0F0D5F0EB020077120503017E
:100253001453018E5800E54C00E14201924F019A7C
:0F02630044019A4900FA4301A0550184460184E1
:100272004501844703405000E92D00ED2E01102B6B
:1002820000F123010E2003292A00A94800000108D9
:100292003F3F3F00790AA2D5200314300509B91067
:1002A200020404B9080104A2D52006025001042068
:1002B20002689202B53A005034C0E07F2030031940
:1002C2007F30A20272067205500F1202EFC202C202
:1002D20006C205C2087F30800F300503E9C0E01274
:1002E200003E300503D0E0F9D0E0B53ACC30051736
:1002F2007F30B9100C12003E7F583004077F78809F
:1003020003B9080312003E3002057F2D02003E7F32
:10031200202008F87F2B2006F322920280CF286E3D
:10032200756C6C2900D2011200033001F8C2017809
:100332003A30D50108F60200A92D5043495812005F
:10034200032403B405004001E490033B9312002F01
:0D035200743A12002FD203753A0402018E96
:1004AD00BB010689828A83E0225002E722BBFE024D
:0904BD00E32289828A83E4932280
:1004C600BB010CE58229F582E5833AF583E02250EB
:1004D60006E92582F8E622BBFE06E92582F8E22235
:0D04E600E58229F582E5833AF583E493224F
:1004F300FAE6FB0808E6F925F0F618E6CA3AF6220A
:10050300D083D082F8E4937012740193700DA3A387
:1005130093F8740193F5828883E47374029368609B
:06052300EFA3A3A380DF9B
:100FA000EFB40A07740D120FAB740A309811A899A8
:100FB000B8130CC2983098FDA899C298B811F630B1
:070FC00099FDC299F5992289
:00000001FF
