:0206F5008F0D67
:1006F700E4F50EC3E50E9408748094805028E50D48
:10070700C413131354011392017F0512024AC20145
:100717007F0A12024AD2017F0A12024AE50D25E03A
:10072700F50D050E80CDC201E4FF12024AD201E4A5
:04073700FF02024A71
:10077A008B0A8A0B890CEDFFC39401748094804024
:10078A002CD3EF940874809480502212012DFFED2F
:10079A0014FEF87401088002C333D8FC4F120146D4
:0E07AA00AB0AAA0BA90C12012DFF1206F522B4
:10073B008B0A8A0B890CEDFFC39401748094804063
:10074B002DD3EF940874809480502312012DFFED6C
:10075B0014FEF87401088002C333D8FCF45F120155
:0F076B0046AB0AAA0BA90C12012DFF1206F522AC
:10038C00E4F508F5097D01FF1200037D017F0512DC
:10039C0000037D017F0A120003750901D3E509945E
:1003AC000874809480501A7B007A007908AD091289
:1003BC00077A7FF47E017D007C0012065F050980C0
:1003CC00DB7FF47E017D007C0012065F750901D392
:1003DC00E509940874809480501A7B007A0079089F
:1003EC00AD0912073B7FF47E017D007C0012065F95
:1003FC00050980DB7FF47E017D007C0012065F80A6
:01040C009857
:10000300C201EFFB6408700302012CEB6409700367
:1000130002012CEDFBD3940374809480400302010E
:100023002CEF641E702FEB700553ACFE8016EDFBB6
:100033007A006401700553ACFE8017EB64024A70CA
:100043000843AC0153ADFE800CEB64034A700643D6
:10005300AC0143AD01EFFBC3941274809480400361
:1000630002012CC3EB940A748094804003D3800173
:10007300C39201EF75F00A84AFF0EDFB7A007024B0
:10008300300110A80704088002C333D8FCF452B32C
:1000930052B422A8077401088002C333D8FCF45277
:1000A300B152B222EB64014A7024300110A8070454
:1000B300088002C333D8FCFEF452B38057A80774F8
:1000C30001088002C333D8FCFEF452B18058EDFB23
:1000D3007A0064027028300112A80704088002C362
:1000E30033D8FCFE42B3EEF452B422A807740108DD
:1000F3008002C333D8FCFE42B1EEF452B222EB6469
:10010300034A7025300111A80704088002C333D8BD
:10011300FCFE42B3EE42B422A8077401088002C376
:0901230033D8FCFE42B1EE42B2F9
:01012C0022B0
:1002FA00EFFD7C007003A28022ED64014C7003A222
:10030A008122ED64024C7003A28222ED64034C70D8
:10031A0003A28322ED64044C7003A28422ED6405D7
:10032A004C7003A28522ED64064C7003A28622ED6E
:10033A0064074C7003A28722ED640A4C7003A290F2
:10034A0022ED640B4C7003A29122ED640C4C7003F5
:10035A00A29222ED640D4C7003A29322ED640E4C1E
:10036A007003A29422ED640F4C7003A29522ED64EF
:10037A00104C7003A29622ED64114C7003A29722CE
:02038A00C3228C
:10024A00EFFD7C007005A201928022ED64014C70E2
:10025A0005A201928122ED64024C7005A2019282EC
:10026A0022ED64034C7005A201928322ED64044CD2
:10027A007005A201928422ED64054C7005A20192D8
:10028A008522ED64064C7005A201928622ED640770
:10029A004C7005A201928722ED640A4C7005A201F6
:1002AA00929022ED640B4C7005A201929122ED64AA
:1002BA000C4C7005A201929222ED640D4C7005A2BD
:1002CA0001929322ED640E4C7005A201929422EDE4
:1002DA00640F4C7005A201929522ED64104C7005D2
:1002EA00A201929622ED64114C7004A20192972207
:1007B800E4FDFC43E10153E1CF53E8F0EF54074275
:1007C800E8E4F5F6A80704088002C333D8FC42F62B
:1007D800C2EFD2EE30EFFDAFC3EF75F010A4FFAD5E
:0C07E800C2E5F0FCEF4D53E1FEAE04FF53
:0107F40022E2
:1005C800EF64117003FF803DEF641E70047F0180AB
:1005D80034EF640770047F02802BEF640670047F99
:1005E800038022EF640570047F048019EF640470AF
:1005F800047F058010EF640370047F068007EF64B2
:0C0608000B70057F070207B8E4FEFF221C
:100614008F128E118D108C0F538EF7438901D28C5B
:10062400E4FFFEFDFCAB12AA11A910A80FC312022D
:10063400266025758A7E758CFF308DFDC28DE5128E
:1006440024FFF512E51134FFF511E51034FFF51020
:0B065400E50F34FFF50F80C8C28C22B8
:10065F008F0D8E0C8D0B8C0A538EF7438901D28C24
:10066F00E4FFFEFDFCAB0DAA0CA90BA80AC31202F6
:10067F00266025758ACA758CFA308DFDC28DE50D01
:10068F0024FFF50DE50C34FFF50CE50B34FFF50BEE
:0B069F00E50A34FFF50A80C8C28C2277
:1006AA008F168E158D148C13538EEF438910D28EAC
:1006BA00E4FFFEFDFCAB16AA15A914A813C3120287
:1006CA00266025758BEA758DCB308FFDC28FE516B6
:1006DA0024FFF516E51534FFF515E51434FFF51476
:0B06EA00E51334FFF51380C8C28E2218
:10057A008F1A8E198D188C1753C9BF53C9DF43C9F7
:10058A0010D2CAE4FFFEFDFCAB1AAA19A918A817D3
:10059A00C3120226602575CC3075CDF830CFFDC266
:1005AA00CFE51A24FFF51AE51934FFF519E51834D1
:0E05BA00FFF518E51734FFF51780C8C2CA22F6
:1004DA008F1E8E1D8D1C8C1B75C40743C408E4FF38
:1004EA00FEFDFCAB1EAA1DA91CA81BC31202266096
:1004FA002B75C52C75C6CFE5C45410641070F8531B
:10050A00C4EFE51E24FFF51EE51D34FFF51DE51CAD
:10051A0034FFF51CE51B34FFF51B80C253C4F722D8
:10052A008F248E238D228C2175C40743C408E4FFCF
:10053A00FEFDFCAB24AA23A922A821C3120226602D
:10054A002B75C5D875C6FFE5C45410641070F853EE
:10055A00C4EFE52424FFF524E52334FFF523E5223F
:10056A0034FFF522E52134FFF52180C253C4F72276
:1007F50053B1BF53B2BF53B17F53B27F75985043C6
:100805008920438780438E1053C4DFAB07AA06A90E
:1008150005A8047F407E427D0F7C00120194EF0401
:09082500F404F58DD28ED2992263
:10040D008F288E278D268C2553B1BF53B2BF53B184
:10041D007F53B27F75985043878053C4F843C420EF
:10042D00AB28AA27A926A8257F407E427D0F7C00F8
:10043D00120194C374FF9FFF74FF9EFEE49DFDE4C3
:10044D009CFC78081202378FC6AB28AA27A926A8CC
:10045D00257F407E427D0F7C00120194C374FF9F67
:09046D00FF8FC543C408D2992297
:07085A003098FDAF99C29830
:010861002274
:08086200C2998F993099FD2223
:100476008F2C8E2B8D2A8C2953B1FB53B2FB53B391
:10048600BF53B4BF75F85075C40853C4DFAB2CAA6C
:100496002BA92AA8297F407E427D0F7C0012019459
:1004A600C374FF9FFF74FF9EFEE49DFDE49CFC78F1
:1004B600081202378FC6AB2CAA2BA92AA8297F407F
:1004C6007E427D0F7C00120194C374FF9FFF8FC58F
:0404D60043C40822F1
:07086A0030F8FDAF9AC2F85F
:010871002264
:08087200C2F98F9A30F9FD2252
:0300000002082EC5
:10082E0075C7AA75C75575FD5A75C7AA75C755758B
:10083E00FDA5787FE4F6D8FD9000007FFF7E03E4EF
:0C084E00F0A3DFFCDEFA75812C02038CA5
:10012D00BB010689828A83E0225002E722BBFE02D0
:09013D00E32289828A83E4932203
:10014600BB010689828A83F0225002F722BBFE0198
:02015600F32292
:1001580075F008758200EF2FFFEE33FECD33CDCC5E
:1001680033CCC58233C5829BED9AEC99E5829840E1
:100178000CF582EE9BFEED9AFDEC99FC0FD5F0D6BE
:10018800E4CEFBE4CDFAE4CCF9A88222B800C1B9E8
:100198000059BA002DEC8BF084CFCECDFCE5F0CB26
:1001A800F97818EF2FFFEE33FEED33FDEC33FCEB5F
:1001B80033FB10D703994004EB99FB0FD8E5E4F91A
:1001C800FA227818EF2FFFEE33FEED33FDEC33FC07
:1001D800C933C910D7059BE99A4007EC9BFCE99AFB
:1001E800F90FD8E0E4C9FAE4CCFB2275F010EF2F40
:1001F800FFEE33FEED33FDCC33CCC833C810D70740
:100208009BEC9AE899400AED9BFDEC9AFCE899F87A
:0E0218000FD5F0DAE4CDFBE4CCFAE4C8F9220D
:10022600EB9FF5F0EA9E42F0E99D42F0E89C45F02E
:0102360022A5
:10023700E8600FECC313FCED13FDEE13FEEF13FFA5
:03024700D8F122C9
:00000001FF
