:04110300FFFFFFFFEC
:0409FB00AB07AA0696
:1009FF007C037DE81203D8900010EEF0A3EFF07C9B
:100A0F00007D64AF03AE021203D87C007D0A12038F
:100A1F00D8A3ECF0A3EDF07C007D64AF03AE02121F
:100A2F0003D87E007F0ACFCDCFCECCCE1203D8A372
:100A3F00EEF0A3EFF0AE02AF037C007D0A1203D8F5
:100A4F00A3ECF0A3EDF0780D7C007D007BFF7A1115
:100A5F0079037E007F04120338900010A3E0FF1289
:100A6F0010C98F0D900012A3E0FF1210C98F0E90C6
:100A7F000014A3E0FF1210C98F0F900016A3E0FF20
:100A8F001210C98F1075140075150075160D7B00A7
:070A9F007A00793F020B38D9
:020F31008F0D22
:100F3300E4F50EC3E50E9408748094805028E50D03
:100F4300C413131354011392017F0512089FC201A6
:100F53007F0A12089FD2017F0A12089FE50D25E040
:100F6300F50D050E80CDC201E4FF12089FD201E406
:040F7300FF02089FD2
:100FB6008B398A3A893BEDFFC39401748094804053
:100FC6002CD3EF940874809480502212035EFFEDB8
:100FD60014FEF87401088002C333D8FC4F1203A430
:0E0FE600AB39AA3AA93B12035EFF120F31226B
:100F77008B3C8A3D893EEDFFC39401748094804089
:100F87002DD3EF940874809480502312035EFFEDF5
:100F970014FEF87401088002C333D8FCF45F12030F
:0F0FA700A4AB3CAA3DA93E12035EFF120F3122FC
:1007B6007508017B007A00793F75110C7D0B120CD0
:1007C600797F647E007D007C00120E527B007A00E9
:1007D600793F7D0F1210D87D01E4FF1205637D017C
:1007E6007F051205637D017F0A1205637D027F1175
:1007F6001205637F11120DBB8E098F0AAC09AD0A73
:10080600E41201AE7B007A40799C78451200037BA6
:10081600007AF0797F784512010C1201E78E0B8F72
:100826000CC3E509940E40057508FF8052C3E5091F
:10083600940C400575087F8046C3E509940A400577
:1008460075083F803AC3E5099408400575081F807E
:100856002EC3E5099406400575080F8022C3E509F5
:10086600940440057508078016C3E50994024005FF
:10087600750803800AC3E50994004003750801AFB3
:1008860008120F31AF0CAE0B1209FB7FF47E017D0F
:09089600007C00120E520207F969
:10056300C201EFFB6408700302068CEB640970039D
:1005730002068CEDFBD3940374809480400302063F
:100583008CEF641E702FEB700553ACFE8016EDFBF1
:100593007A006401700553ACFE8017EB64024A7065
:1005A3000843AC0153ADFE800CEB64034A70064371
:1005B300AC0143AD01EFFBC39412748094804003FC
:1005C30002068CC3EB940A748094804003D38001A9
:1005D300C39201EF75F00A84AFF0EDFB7A0070244B
:1005E300300110A80704088002C333D8FCF452B3C7
:1005F30052B422A8077401088002C333D8FCF45212
:10060300B152B222EB64014A7024300110A80704EE
:10061300088002C333D8FCFEF452B38057A8077492
:1006230001088002C333D8FCFEF452B18058EDFBBD
:100633007A0064027028300112A80704088002C3FC
:1006430033D8FCFE42B3EEF452B422A80774010877
:100653008002C333D8FCFE42B1EEF452B222EB6403
:10066300034A7025300111A80704088002C333D858
:10067300FCFE42B3EE42B422A8077401088002C311
:0906830033D8FCFE42B1EE42B294
:01068C00224B
:100AA600EFFD7C007003A28022ED64014C7003A26E
:100AB6008122ED64024C7003A28222ED64034C7025
:100AC60003A28322ED64044C7003A28422ED640524
:100AD6004C7003A28522ED64064C7003A28622EDBB
:100AE60064074C7003A28722ED640A4C7003A2903F
:100AF60022ED640B4C7003A29122ED640C4C700342
:100B0600A29222ED640D4C7003A29322ED640E4C6A
:100B16007003A29422ED640F4C7003A29522ED643B
:100B2600104C7003A29622ED64114C7003A297221A
:020B3600C322D8
:10089F00EFFD7C007005A201928022ED64014C7087
:1008AF0005A201928122ED64024C7005A201928291
:1008BF0022ED64034C7005A201928322ED64044C77
:1008CF007005A201928422ED64054C7005A201927D
:1008DF008522ED64064C7005A201928622ED640715
:1008EF004C7005A201928722ED640A4C7005A2019B
:1008FF00929022ED640B4C7005A201929122ED644F
:10090F000C4C7005A201929222ED640D4C7005A261
:10091F0001929322ED640E4C7005A201929422ED88
:10092F00640F4C7005A201929522ED64104C700576
:10093F00A201929622ED64114C7004A201929722AB
:100FF400E4FDFC43E10153E1CF53E8F0EF54074231
:10100400E8E4F5F6A80704088002C333D8FC42F6E6
:10101400C2EFD2EE30EFFDAFC3EF75F010A4FFAD19
:0C102400C2E5F0FCEF4D53E1FEAE04FF0E
:01103000229D
:100DBB00EF64117003FF803DEF641E70047F0180B0
:100DCB0034EF640770047F02802BEF640670047F9E
:100DDB00038022EF640570047F048019EF640470B4
:100DEB00047F058010EF640370047F068007EF64B7
:0C0DFB000B70057F07020FF4E4FEFF22DE
:0411070000000000E4
:1010B2005000003F065B4F666D7D077F6F777C397E
:0610C2005E7971011E4081
:100C79008B0D8A0E890FED1203A4AB0DAA0EA90FD5
:100C8900900001E5111203B612035EFF7D03120500
:100C990063AB0DAA0EA90F900001120377FF7D0324
:100CA900120563AB0DAA0EA90F12035EFFC2011252
:100CB900089FAB0DAA0EA90F900001120377FFC27E
:040CC9000102089F7D
:0B10D800ED540744089000020203B62C
:060B38008B118A128913E3
:100B3E0012109B7D4012068D120EE81210957DC08C
:100B4E0012068DE4900018F0900018E0FFC3940494
:100B5E0074809480501AAB14AA15A9168F827583CF
:100B6E0000120377FD12068D900018E004F080D875
:100B7E00120EE8121095AB11AA12A91390000212D0
:100B8E000377540F2480FD120693AB11AA12A913FA
:0E0B9E00900001120377FF12035EFD020EF9B4
:06106A008B428A43894419
:10107000781C7C007D017BFF7A1179077E007F045C
:1010800012033875140175150075161CAB42AA437E
:05109000A944020B3829
:0D109500AB11AA12A913900001120377FFFE
:1010A200C20112089F7F017E007D007C00020E07B4
:100EE800AB11AA12A913900001120377FF12035E37
:010EF800FDFC
:100EF9008F178D18C20112089F7F017E007D007C2B
:100F090000120E07D201AF1812089F7F017E007DE3
:100F1900007C00120E07D201AF1712089F7F017ED5
:080F2900007D007C00020E07B0
:06068D00AB11AA12A91333
:060693008B178A1889197B
:10069900900019EDF0E4A3F090001AE0C3940874F7
:1006A900809480506DAB17AA18A91912035EFFC276
:1006B9000112089F7F017E007D007C00120E0790C9
:1006C9000019E0AB17AA18A91990000130E0081227
:1006D9000377FFD2018006120377FFC20112089F38
:1006E9007F017E007D007C00120E07AB17AA18A9B6
:1006F9001912035EFFD20112089F7F017E007D005F
:100709007C00120E07900019E0C313F0A3E004F077
:100719008086AB17AA18A91912035EFFC201120835
:100729009FAB17AA18A919900001120377FFD201EC
:1007390012089F7F017E007D007C00120E07AB1717
:10074900AA18A91912035EFFD20112089F7F017E20
:10075900007D007C00120E07AB17AA18A91990009A
:1007690001120377FF120AA6E43390001BF07012FE
:10077900AB17AA18A919900001120377FFC2011239
:10078900089F7F017E007D007C00120E07AB17AA2F
:1007990018A91912035EFFC20112089F7F017E008A
:0C07A9007D007C00120E0790001BE0FF9A
:0107B5002221
:0F10C900EF540F2400F582E43400F583E0FF229A
:100E07008F1D8E1C8D1B8C1A538EF7438901D28C34
:100E1700E4FFFEFDFCAB1DAA1CA91BA81AC3120404
:100E2700EA6025758A7E758CFF308DFDC28DE51DC4
:100E370024FFF51DE51C34FFF51CE51B34FFF51BEE
:0B0E4700E51A34FFF51A80C8C28C22A7
:100E52008F108E0F8D0E8C0D538EF7438901D28C1D
:100E6200E4FFFEFDFCAB10AA0FA90EA80DC31204ED
:100E7200EA6025758ACA758CFA308DFDC28DE5103F
:100E820024FFF510E50F34FFF50FE50E34FFF50EE4
:0B0E9200E50D34FFF50D80C8C28C2276
:100E9D008F248E238D228C21538EEF438910D28E79
:100EAD00E4FFFEFDFCAB24AA23A922A821C3120452
:100EBD00EA6025758BEA758DCB308FFDC28FE524E9
:100ECD0024FFF524E52334FFF523E52234FFF52235
:0B0EDD00E52134FFF52180C8C28E2201
:100D6D008F288E278D268C2553C9BF53C9DF43C9C4
:100D7D0010D2CAE4FFFEFDFCAB28AA27A926A825A0
:100D8D00C31204EA602575CC3075CDF830CFFDC2A5
:100D9D00CFE52824FFF528E52734FFF527E5263490
:0E0DAD00FFF526E52534FFF52580C8C2CA22D1
:100CCD008F2C8E2B8D2A8C2975C40743C408E4FF05
:100CDD00FEFDFCAB2CAA2BA92AA829C31204EA609D
:100CED002B75C52C75C6CFE5C45410641070F85320
:100CFD00C4EFE52C24FFF52CE52B34FFF52BE52A6D
:100D0D0034FFF52AE52934FFF52980C253C4F722B3
:100D1D008F308E2F8D2E8C2D75C40743C408E4FFA4
:100D2D00FEFDFCAB30AA2FA92EA82DC31204EA603C
:100D3D002B75C5D875C6FFE5C45410641070F853F3
:100D4D00C4EFE53024FFF530E52F34FFF52FE52E08
:100D5D0034FFF52EE52D34FFF52D80C253C4F72257
:1010310053B1BF53B2BF53B17F53B27F7598504381
:101041008920438780438E1053C4DFAB07AA06A9CA
:1010510005A8047F407E427D0F7C0012044AEF0404
:09106100F404F58DD28ED299221F
:100BAC008F348E338D328C3153B1BF53B2BF53B1AE
:100BBC007F53B27F75985043878053C4F843C42049
:100BCC00AB34AA33A932A8317F407E427D0F7C0022
:100BDC0012044AC374FF9FFF74FF9EFEE49DFDE464
:100BEC009CFC78081204FB8FC6AB34AA33A932A83C
:100BFC00317F407E427D0F7C0012044AC374FF9FFC
:090C0C00FF8FC543C408D29922F0
:0710E3003098FDAF99C2989F
:0110EA0022E3
:0810EB00C2998F993099FD2292
:100C15008F388E378D368C3553B1FB53B2FB53B3BA
:100C2500BF53B4BF75F85075C40853C4DFAB38AAB9
:100C350037A936A8357F407E427D0F7C0012044AD5
:100C4500C374FF9FFF74FF9EFEE49DFDE49CFC784A
:100C5500081204FB8FC6AB38AA37A936A8357F40E2
:100C65007E427D0F7C0012044AC374FF9FFF8FC52F
:040C750043C408224A
:0710F30030F8FDAF9AC2F8CE
:0110FA0022D3
:0810FB00C2F98F9A30F9FD22C1
:0300000002094FA3
:10094F0075C7AA75C75575FD5A75C7AA75C7557569
:10095F00FDA5787FE4F6D8FD9000007FFF7E03E4CD
:0C096F00F0A3DFFCDEFA7581440209B63B
:10000300EC4D6011E8497017ED33EC3304600DE4F7
:10001300FCFFFEFD22E933E8330470F802025312B9
:10002300021E58046009E4CC2481500628500902BA
:10003300025D28400302025AC0E0EB4A7044B980D3
:1000430006D0E0FB020249EF4E701CBD8008EBFFB7
:10005300EAFEE9FD80EBE98DF0A4FEE5F00200EC99
:10006300E9CDF9EAFEEBFFEF89F0A4FCE5F0CE89D8
:10007300F0A42EFFE435F0CD89F0A42DFEE435F095
:100083008067EF4E7005BD80D780C3EF8BF0A4ACC3
:10009300F0EE8BF0A42CFCE435F0F8EF8AF0A42CFE
:1000A300E5F038FCE433CB8DF0A42CFCE5F03BF811
:1000B300EE8AF0A42CFCE5F038F8E433CF89F0A401
:1000C3002CFCE5F038CF3400CE89F0A42FFFE5F007
:1000D3003EFEE433C98DF0A42EFEE5F039CD8AF05F
:1000E300A42FFFE5F03EFEE43DFD33D0E0FB5007D7
:1000F3000BBB000F02025DEC2CFCEF33FFEE33FE73
:06010300ED33FD020235A0
:1001090002025DEC5D046005E859047003020253C4
:1001190012021E580460F6EC4860F2EC7004FDFE11
:10012900FF22C860DB2481C85009C39860025006C9
:1001390002025A9850CAF582E9294B4A7005AB82E6
:1001490002024975F0007C1A7880C3EF9BEE9AEDA4
:1001590099400DC3EF9BFFEE9AFEED99FDE842F041
:10016900DC23ACF0D0E0FFD0E0FED0E0FDAB822094
:10017900E7101BEB60BAEC2CFCEF33FFEE33FEED1E
:1001890033FD020235E803F830E705C0F075F000E9
:10019900EF2FFFEE33FEED33FD40B830E7C280AA02
:1001A90075F020800E75F010800575F0087D007ED1
:1001B900007F003392D530D5031204DCEC334010B4
:1001C900EF33FFEE33FEED33FDEC33FCD5F0ED22DA
:0E01D900E5F0247EA2D513CC92E7CDCEFF2216
:1001E700EDD2E7CD33EC3392D524814006E4FFFE10
:1001F700FDFC22FCE4CFCECDCC24E0501174FF806F
:10020700EDC3CC13CCCD13CDCE13CECF13CF04700B
:07021700F030D5DE0204DC2B
:10021E00E9D2E7C933E833F892D5EDD2E7CD33EC26
:07022E0033FC5002B2D5229F
:10023500EC30E7100FBF000C0EBE00080DBD00042A
:100245000BEB6014A2D5EB13FCED92E7FD2274FFD6
:10025500FCFDFEFF22E480F8A2D574FF13FC7D802F
:03026500E480EF43
:10097B000207B6E493A3F8E493A34003F68001F2D5
:10098B0008DFF48029E493A3F85407240CC8C3337D
:10099B00C4540F4420C8834004F456800146F6DF4C
:1009AB00E4800B01020408102040809010B2E47E1A
:1009BB00019360BCA3FF543F30E509541FFEE49341
:1009CB00A360010ECF54C025E060A840B8E493A308
:1009DB00FAE493A3F8E493A3C8C582C8CAC583CA33
:1009EB00F0A3C8C582C8CAC583CADFE9DEE780BEEB
:0110C8000027
:10026800E709F608DFFA8046E709F208DFFA803E78
:1002780088828C83E709F0A3DFFA8032E309F60865
:10028800DFFA8078E309F208DFFA807088828C83CD
:10029800E309F0A3DFFA806489828A83E0A3F60881
:1002A800DFFA805889828A83E0A3F208DFFA804C5B
:1002B80080D280FA80C680D4806980F28033801032
:1002C80080A680EA809A80A880DA80E280CA80339B
:1002D80089828A83ECFAE493A3C8C582C8CCC58313
:1002E800CCF0A3C8C582C8CCC583CCDFE9DEE780E3
:1002F8000D89828A83E493A3F608DFF9ECFAA9F062
:10030800EDFB2289828A83ECFAE0A3C8C582C8CCB7
:10031800C583CCF0A3C8C582C8CCC583CCDFEADED0
:10032800E880DB89828A83E493A3F208DFF980CC32
:1003380088F0EF60010E4E60C388F0ED2402B4042B
:100348000050B9F582EB2402B4040050AF232345D2
:0603580082239002B8733D
:10035E00BB010689828A83E0225002E722BBFE029D
:09036E00E32289828A83E49322D0
:10037700BB010CE58229F582E5833AF583E022503B
:1003870006E92582F8E622BBFE06E92582F8E22285
:0D039700E58229F582E5833AF583E493229F
:1003A400BB010689828A83F0225002F722BBFE0138
:0203B400F32232
:1003B600F8BB010DE58229F582E5833AF583E8F07D
:1003C600225006E92582C8F622BBFE05E92582C829
:0203D600F22211
:1003D800C2D5EC30E709B2D5E4C39DFDE49CFCEE40
:1003E80030E715B2D5E4C39FFFE49EFE12050EC3A5
:1003F800E49DFDE49CFC800312050E30D507C3E4A0
:060408009FFFE49EFE22AE
:10040E0075F008758200EF2FFFEE33FECD33CDCCA5
:10041E0033CCC58233C5829BED9AEC99E582984028
:10042E000CF582EE9BFEED9AFDEC99FC0FD5F0D605
:10043E00E4CEFBE4CDFAE4CCF9A88222B800C1B92F
:10044E000059BA002DEC8BF084CFCECDFCE5F0CB6D
:10045E00F97818EF2FFFEE33FEED33FDEC33FCEBA6
:10046E0033FB10D703994004EB99FB0FD8E5E4F961
:10047E00FA227818EF2FFFEE33FEED33FDEC33FC4E
:10048E00C933C910D7059BE99A4007EC9BFCE99A42
:10049E00F90FD8E0E4C9FAE4CCFB2275F010EF2F87
:1004AE00FFEE33FEED33FDCC33CCC833C810D70787
:1004BE009BEC9AE899400AED9BFDEC9AFCE899F8C2
:0E04CE000FD5F0DAE4CDFBE4CCFAE4C8F92255
:0E04DC00C3E49FFFE49EFEE49DFDE49CFC2231
:1004EA00EB9FF5F0EA9E42F0E99D42F0E89C45F068
:0104FA0022DF
:1004FB00E8600FECC313FCED13FDEE13FEEF13FFDF
:03050B00D8F12202
:10050E00BC000BBE0029EF8DF084FFADF022E4CCD1
:10051E00F875F008EF2FFFEE33FEEC33FCEE9DEC9A
:10052E00984005FCEE9DFE0FD5F0E9E4CEFD22EDE0
:10053E00F8F5F0EE8420D21CFEADF075F008EF2F2A
:10054E00FFED33FD4007985006D5F0F222C398FD1B
:05055E000FD5F0EA22B8
:00000001FF
