:101187000A70696E205033302C205030353A2025B4
:0A1197002E32662C20252E32660051
:100CA2007F007EC27D017C00120DD6D2997D027F2B
:100CB20005120AC87D027F1E120AC87F1E120F91FA
:100CC2008E228F23AC22AD23E41201AEE4FBFA792B
:100CD200A078401200037B007AF0797F78451201F8
:100CE2000C8F298E288D278C267F05120F918E243A
:100CF2008F25AC24AD25E41201AEE4FBFA79A0788D
:100D0200401200037B007AF0797F784512010C8F44
:100D12002D8E2C8D2B8C2A7BFF7A11798785293495
:100D22008528338527328526318F388E378D368C4C
:100D3200351206BB7FD07E077D007C001210280290
:020D42000CBDE6
:100AC800C200EFFB64087003020BF1EB64097003CA
:100AD800020BF1EDFBD39403748094804003020B66
:100AE800F1EF641E702FEB700553ACFE8016EDFB22
:100AF8007A006401700553ACFE8017EB64024A70FB
:100B08000843AC0153ADFE800CEB64034A70064306
:100B1800AC0143AD01EFFBC3941274809480400391
:100B2800020BF1C3EB940A748094804003D38001D4
:100B3800C39200EF75F00A84AFF0EDFB7A007024E1
:100B4800300010A80704088002C333D8FCF452B35D
:100B580052B422A8077401088002C333D8FCF452A7
:100B6800B152B222EB64014A7024300010A8070485
:100B7800088002C333D8FCFEF452B38057A8077428
:100B880001088002C333D8FCFEF452B18058EDFB53
:100B98007A0064027028300012A80704088002C393
:100BA80033D8FCFE42B3EEF452B422A8077401080D
:100BB8008002C333D8FCFE42B1EEF452B222EB6499
:100BC800034A7025300011A80704088002C333D8EF
:100BD800FCFE42B3EE42B422A8077401088002C3A7
:090BE80033D8FCFE42B1EE42B22A
:010BF10022E1
:100D4400EFFD7C007003A28022ED64014C7003A2CD
:100D54008122ED64024C7003A28222ED64034C7084
:100D640003A28322ED64044C7003A28422ED640583
:100D74004C7003A28522ED64064C7003A28622ED1A
:100D840064074C7003A28722ED640A4C7003A2909E
:100D940022ED640B4C7003A29122ED640C4C7003A1
:100DA400A29222ED640D4C7003A29322ED640E4CCA
:100DB4007003A29422ED640F4C7003A29522ED649B
:100DC400104C7003A29622ED64114C7003A297227A
:020DD400C32238
:100BF200EFFD7C007005A209928022ED64014C7029
:100C020005A209928122ED64024C7005A20992822A
:100C120022ED64034C7005A209928322ED64044C18
:100C22007005A209928422ED64054C7005A2099216
:100C32008522ED64064C7005A209928622ED6407B6
:100C42004C7005A209928722ED640A4C7005A20934
:100C5200929022ED640B4C7005A209929122ED64F0
:100C62000C4C7005A209929222ED640D4C7005A203
:100C720009929322ED640E4C7005A209929422ED22
:100C8200640F4C7005A209929522ED64104C700518
:100C9200A209929622ED64114C7004A20992972245
:1010BE00E4FDFC43E10153E1CF53E8F0EF54074266
:1010CE00E8E4F5F6A80704088002C333D8FC42F61C
:1010DE00C2EFD2EE30EFFDAFC3EF75F010A4FFAD4F
:0C10EE00C2E5F0FCEF4D53E1FEAE04FF44
:0110FA0022D3
:100F9100EF64117003FF803DEF641E70047F0180D8
:100FA10034EF640770047F02802BEF640670047FC6
:100FB100038022EF640570047F048019EF640470DC
:100FC100047F058010EF640370047F068007EF64DF
:0C0FD1000B70057F070210BEE4FEFF223B
:1010FB0053B1BF53B2BF53B17F53B27F75985043B7
:10110B008920438780438E1053C4DFAB07AA06A9FF
:10111B0005A8047F407E427D0F7C0012055FEF0423
:09112B00F404F58DD28ED2992254
:100DD6008F318E308D2F8C2E53B1BF53B2BF53B18E
:100DE6007F53B27F75985043878053C4F843C4201D
:100DF600AB31AA30A92FA82E7F407E427D0F7C0002
:100E060012055FC374FF9FFF74FF9EFEE49DFDE421
:100E16009CFC78081206108FC6AB31AA30A92FA801
:100E26002E7F407E427D0F7C0012055FC374FF9FBC
:090E3600FF8FC543C408D29922C4
:0711A1003098FDAF99C298E0
:0111A8002224
:0811A900C2998F993099FD22D3
:100E3F008F0B8E0A8D098C0853B1FB53B2FB53B342
:100E4F00BF53B4BF75F85075C40853C4DFAB0BAABA
:100E5F000AA909A8087F407E427D0F7C0012055F1A
:100E6F00C374FF9FFF74FF9EFEE49DFDE49CFC781E
:100E7F00081206108FC6AB0BAA0AA909A8087F4053
:100E8F007E427D0F7C0012055FC374FF9FFF8FC5ED
:040E9F0043C408221E
:0711B10030F8FDAF9AC2F80F
:0111B8002214
:0811B900C2F98F9A30F9FD2202
:100FDD008F0F8E0E8D0D8C0C538EF7438901D28C95
:100FED00E4FFFEFDFCAB0FAA0EA90DA80CC3120564
:100FFD00FF6025758A7E758CFF308DFDC28DE50FE6
:10100D0024FFF50FE50E34FFF50EE50D34FFF50D5C
:0B101D00E50C34FFF50C80C8C28C22EB
:101028008F318E308D2F8C2E538EF7438901D28CC1
:10103800E4FFFEFDFCAB31AA30A92FA82EC3120590
:10104800FF6025758ACA758CFA308DFDC28DE53131
:1010580024FFF531E53034FFF530E52F34FFF52F67
:0B106800E52E34FFF52E80C8C28C225C
:101073008F138E128D118C10538EEF438910D28EE5
:10108300E4FFFEFDFCAB13AA12A911A810C31205BD
:10109300FF6025758BEA758DCB308FFDC28FE5130D
:1010A30024FFF513E51234FFF512E51134FFF511B2
:0B10B300E51034FFF51080C8C28E224B
:100F43008F178E168D158C1453C9BF53C9DF43C930
:100F530010D2CAE4FFFEFDFCAB17AA16A915A8140C
:100F6300C31205FF602575CC3075CDF830CFFDC2B7
:100F7300CFE51724FFF517E51634FFF516E515340D
:0E0F8300FFF515E51434FFF51480C8C2CA222C
:100EA3008F1B8E1A8D198C1875C40743C408E4FF71
:100EB300FEFDFCAB1BAA1AA919A818C31205FF60F3
:100EC3002B75C52C75C6CFE5C45410641070F85348
:100ED300C4EFE51B24FFF51BE51A34FFF51AE519EA
:100EE30034FFF519E51834FFF51880C253C4F7220F
:100EF3008F1F8E1E8D1D8C1C75C40743C408E4FF11
:100F0300FEFDFCAB1FAA1EA91DA81CC31205FF6092
:100F13002B75C5D875C6FFE5C45410641070F8531B
:100F2300C4EFE51F24FFF51FE51E34FFF51EE51D85
:100F330034FFF51DE51C34FFF51C80C253C4F722B2
:03000000021134B6
:1011340075C7AA75C75575FD5A75C7AA75C755757C
:10114400FDA5787FE4F6D8FD9000007FFF7E03E4E0
:0C115400F0A3DFFCDEFA758149020CA25A
:10000300EC4D6011E8497017ED33EC3304600DE4F7
:10001300FCFFFEFD22E933E8330470F802021C12F0
:1000230001E758046009E4CC2481500628500902F2
:100033000226284003020223C0E0EB4A7044B98041
:1000430006D0E0FB020212EF4E701CBD8008EBFFEE
:10005300EAFEE9FD80EBE98DF0A4FEE5F00200EC99
:10006300E9CDF9EAFEEBFFEF89F0A4FCE5F0CE89D8
:10007300F0A42EFFE435F0CD89F0A42DFEE435F095
:100083008067EF4E7005BD80D780C3EF8BF0A4ACC3
:10009300F0EE8BF0A42CFCE435F0F8EF8AF0A42CFE
:1000A300E5F038FCE433CB8DF0A42CFCE5F03BF811
:1000B300EE8AF0A42CFCE5F038F8E433CF89F0A401
:1000C3002CFCE5F038CF3400CE89F0A42FFFE5F007
:1000D3003EFEE433C98DF0A42EFEE5F039CD8AF05F
:1000E300A42FFFE5F03EFEE43DFD33D0E0FB5007D7
:1000F3000BBB000F020226EC2CFCEF33FFEE33FEAA
:06010300ED33FD0201FED8
:10010900020226EC5D046005E85904700302021C32
:100119001201E7580460F6EC4860F2EC7004FDFE49
:10012900FF22C860DB2481C85009C39860025006C9
:100139000202239850CAF582E9294B4A7005AB821D
:1001490002021275F0007C1A7880C3EF9BEE9AEDDB
:1001590099400DC3EF9BFFEE9AFEED99FDE842F041
:10016900DC23ACF0D0E0FFD0E0FED0E0FDAB822094
:10017900E7101BEB60BAEC2CFCEF33FFEE33FEED1E
:1001890033FD0201FEE803F830E705C0F075F00021
:10019900EF2FFFEE33FEED33FD40B830E7C280AA02
:1001A90075F020800E75F010800575F0087D007ED1
:1001B900007F003392D530D5031205F1EC3340109E
:1001C900EF33FFEE33FEED33FDEC33FCD5F0ED22DA
:0E01D900E5F0247EA2D513CC92E7CDCEFF2216
:10065900E5452431F8E6054522782E300702783140
:10066900E475F0011206230204CB2000EB7F2ED2A1
:10067900008018EF540F2490D43440D4FF30040B79
:10068900EF24BFB41A0050032461FFE54660021548
:10069900460549E5497002054830070D782EE4758D
:1006A900F001120623EF0205110211607403D2074B
:1006B9008003E4C207F5458B2E8A2F8930E4F5467D
:1006C900F548F549E54660077F2012069480F575DF
:1006D90047FFC201C200C202C203C205C206C20864
:1006E900120662FF700D3007057F001206A5AF499B
:1006F900AE4822B4255FC2D5C204120662FF24D0D7
:10070900B40A00501A75F00A784630D50508B6FFC4
:100719000106C6A426F620D5047002D20380D92486
:10072900CFB41A00EF5004C2E5D204020992D201F3
:1007390080C6D20080C0D20280BCD2D580BAD20590
:1007490080B47F201206942002077401B546004048
:10075900F1120659FF1206940206CDD208D206807C
:1007690095120659FB120659FA120659F94A4B70A5
:100779000679897A0A7BFF20022EE546602A7E00E7
:100789008E827583001204E460060EEE654770F0F0
:10079900C2D5EBC0E0EAC0E0E9C0E0EE1209F2D050
:1007A900E0F9D0E0FAD0E0FB1204CBFF60AAEBC07D
:1007B900E0EAC0E0E9C0E0120694D0E02401F9D0F3
:1007C900E03400FAD0E0FBE5470460DCD547D98086
:1007D90087D20280A21209D560F7E5477001041299
:1007E9000231A947600DE547600914F547120A7CF3
:1007F900EF60F3EA30E702F404C3995077EAF4258D
:10080900470430E701E404F547800D1209D560C1BA
:10081900EA05472547120231EA7844F630E701E450
:10082900254704D54704200501141209F2E4C0E064
:10083900120A7C7844E6601320E70714F612067C56
:10084900802204F6D0E014C0E07F0012067CE54760
:1008590060071206731547800B300503120673D023
:10086900E00206CDD0E00480C51209D560A0E547B5
:10087900041202317844EAF6E547200502600104D2
:0508890024041209F235
:10088E0074FF04C0E0120A7C12067CE547200502C4
:10089E006003120673D0E0B547E87F4512068678EE
:1008AE0044E67F2B30E7047F2DF404C0E01206945B
:1008BE00D0E075F00A84C0F012067DD0E012067DFD
:1008CE000206CD791080027908C206C2088008D2CD
:1008DE00D5790A8004790AC2D5E547047002F54736
:1008EE00E4FAFDFEFF120659FC7B082001131206E6
:1008FE0059FD7B1030000A120659FE120659FF7B75
:10090E0020EC3382D592D55013C3E43000069FFFFE
:10091E00E49EFEE42001039DFDE49CFCE4CBF8C2C2
:10092E0001EC700CCFCECDCCE824F8F870F3801724
:10093E00C3EF33FFEE33FEED33FDEC33FCEB33FB55
:10094E00994002FB0FD8E9EB300105F8D0E0C4481E
:10095E00B201C0E00AEC4D4E4F78207B0070C2EA27
:10096E00B5470040BCC0E01209F4D0F0D0E0200141
:10097E0004C4C0E0C4B201C0F012067DD0F0D5F0C0
:10098E00EB0206CD120633076A5308D158073B4CCB
:10099E0007374208D54F08DD4408DD4907504308A4
:1009AE00E35508144608724507DE470AA950073F6B
:1009BE002D07432E07662B0747230764200A922A2A
:1009CE0006FF480000075EE547B4FF0375470612B1
:1009DE000659FC120659FD120659FE120659FF78E9
:1009EE003D020260790AA2D5200314300509B91020
:1009FE00020404B9080104A2D52006025001042005
:100A0E0002689202B546005034C0E07F20300319D0
:100A1E007F30A20272067205500F120A4BC202C23A
:100A2E0006C205C2087F30800F300503E9C0E01210
:100A3E000694300503D0E0F9D0E0B546CC3005176A
:100A4E007F30B9100C1206947F583004077F7880DF
:100A5E0003B908031206943002057F2D0206947F17
:100A6E00202008F87F2B2006F322920280CF7F00F1
:100A7E00B407005005243DF8E6FF22286E756C6C15
:100A8E002900D2011206593001F8C201784630D53C
:100A9E000108F60206FF2D50434958120659240349
:100AAE00B405004001E4900AA493120685743A122C
:0A0ABE000685D2037546040208D134
:1001E700E9D2E7C933E833F892D5EDD2E7CD33EC5E
:0701F70033FC5002B2D522D7
:1001FE00EC30E7100FBF000C0EBE00080DBD000462
:10020E000BEB6014A2D5EB13FCED92E7FD2274FF0D
:10021E00FCFDFEFF22E480F8A2D574FF13FC7D8066
:03022E00E480EF7A
:10023100F920E72824F950037907E4F42402FB1894
:10024100DBFDE624FB5014E9600DE4F618E604F644
:0F025100B40A08E4F6D9F57401F60A22C2D522E0
:10026000ED33EC3392D5FA602AB4FF33EDC2E77B6D
:10027000FF60067A027985E4227A02798E20D5041D
:100280007A027989224E614E002B494E46002D4953
:100290004E4600E47A08F608DAFC7B00740722E890
:1002A000C0E0ECC0E0EDC0E0EEC0E0EFC0E0EA7519
:1002B000F010A4CAABF075F04DA42BFBE435F0FCB4
:1002C000EA2410FAEB34C5FBEC34D9FCEDC2E7FFAD
:1002D00075F056A4F42411C5F0F434C58FF0A42AA7
:1002E000E5F03BE43CF620E71412048BD0E0FFD0AD
:1002F000E0FED0E0FDD0E0FC12010C8014F404120A
:10030000048BD0E0FFD0E0FED0E0FDD0E0FC120096
:1003100003D0E0F8E6FAEDD2E7CD33EC332482FBEC
:10032000E4C3CF33CFCE33CECD33CD33DBF37B0736
:1003300075F00A846004F6081B0AE5F0F6088FF0F1
:10034000740AA4FFACF08EF0740AA42CFEACF0503A
:10035000010C8DF0740AA42CFDE435F0F608DBDE08
:03036000740722FD
:1003630002021CE86480F8E933E83360110460F0AA
:10037300ED33EC337009E8FCE9FDEAFEEBFF220400
:1003830060DED3EB9FEA9EE99DE8C2E78CF0C2F7FB
:1003930095F0400CE8CCF8E9CDF9EACEFAEBCFFBC7
:1003A3001201E785D0F05804700320D5B3E8047038
:1003B300075002B2D502022692D5EC0460F7E4CCD2
:1003C300C0E0C398F8603B94186008400DD0E0FB90
:1003D3000201FEE4FBFAC9FC8028E830E406E4C924
:1003E300FBE4CAFCE830E305E4C9CACBFCE85407E4
:1003F3006010F8C3E913F9EA13FAEB13FBEC13FCEF
:10040300D8F130F52FC3E49CFCEF9BFFEE9AFEED91
:1004130099FDD0E0FBEF4E4D4C701222DB0302023C
:1004230023EC2CFCEF33FFEE33FEED33FDED30E731
:10043300EB0201FEEF2BFFEE3AFEED39FDD0E0FBC0
:1004430050130BBB0003020226ED13FDEE13FEEF68
:0804530013FFEC13FC0201FE93
:10045B003F8000004120000042C80000447A0000A9
:10046B00461C400047C35000497424004B1896802B
:10047B004CBEBC205A0E1BCA6753C21C749DC5AE22
:10048B00FB60065407601C23231204B9EB5438603D
:10049B00091204A51204B4120003ECF8EDF9EEFAFC
:1004AB00EFCB22EB1204B480F1543803241C9004DC
:1004BB005BFE93FC0EEE93FD0EEE930ECE93FF229E
:1004CB00BB010689828A83E0225002E722BBFE022F
:0904DB00E32289828A83E4932262
:1004E400BB010CE58229F582E5833AF583E02250CD
:1004F40006E92582F8E622BBFE06E92582F8E22217
:0D050400E58229F582E5833AF583E4932230
:10051100BB010689828A83F0225002F722BBFE01C9
:02052100F322C3
:1005230075F008758200EF2FFFEE33FECD33CDCC8F
:1005330033CCC58233C5829BED9AEC99E582984012
:100543000CF582EE9BFEED9AFDEC99FC0FD5F0D6EF
:10055300E4CEFBE4CDFAE4CCF9A88222B800C1B919
:100563000059BA002DEC8BF084CFCECDFCE5F0CB57
:10057300F97818EF2FFFEE33FEED33FDEC33FCEB90
:1005830033FB10D703994004EB99FB0FD8E5E4F94B
:10059300FA227818EF2FFFEE33FEED33FDEC33FC38
:1005A300C933C910D7059BE99A4007EC9BFCE99A2C
:1005B300F90FD8E0E4C9FAE4CCFB2275F010EF2F71
:1005C300FFEE33FEED33FDCC33CCC833C810D70771
:1005D3009BEC9AE899400AED9BFDEC9AFCE899F8AC
:0E05E3000FD5F0DAE4CDFBE4CCFAE4C8F9223F
:0E05F100C3E49FFFE49EFEE49DFDE49CFC221B
:1005FF00EB9FF5F0EA9E42F0E99D42F0E89C45F052
:01060F0022C8
:10061000E8600FECC313FCED13FDEE13FEEF13FFC8
:03062000D8F122EC
:10062300FAE6FB0808E6F925F0F618E6CA3AF622D8
:10063300D083D082F8E4937012740193700DA3A356
:1006430093F8740193F5828883E47374029368606A
:06065300EFA3A3A380DF6A
:10116000EFB40A07740D12116B740A309811A89924
:10117000B8130CC2983098FDA899C298B811F630EF
:0711800099FDC299F59922C7
:00000001FF
