:0B1145000A2D31093609252E32660004
:100E01007F007EC27D017C00120D34D2997D027F6C
:100E110011120AC87F11120F4F8E228F23AC22ADFF
:100E210023E41201AEE4FBFA79A078401200037BBF
:100E3100007AF0797F784512010C8F278E268D2557
:100E41008C247BFF7A1179458F2E8E2D8D2C8C2B46
:100E51001206BB7F647E007D007C00120FE680B429
:100AC800C200EFFB64087003020BF1EB64097003CA
:100AD800020BF1EDFBD39403748094804003020B66
:100AE800F1EF641E702FEB700553ACFE8016EDFB22
:100AF8007A006401700553ACFE8017EB64024A70FB
:100B08000843AC0153ADFE800CEB64034A70064306
:100B1800AC0143AD01EFFBC3941274809480400391
:100B2800020BF1C3EB940A748094804003D38001D4
:100B3800C39200EF75F00A84AFF0EDFB7A007024E1
:100B4800300010A80704088002C333D8FCF452B35D
:100B580052B422A8077401088002C333D8FCF452A7
:100B6800B152B222EB64014A7024300010A8070485
:100B7800088002C333D8FCFEF452B38057A8077428
:100B880001088002C333D8FCFEF452B18058EDFB53
:100B98007A0064027028300012A80704088002C393
:100BA80033D8FCFE42B3EEF452B422A8077401080D
:100BB8008002C333D8FCFE42B1EEF452B222EB6499
:100BC800034A7025300011A80704088002C333D8EF
:100BD800FCFE42B3EE42B422A8077401088002C3A7
:090BE80033D8FCFE42B1EE42B22A
:010BF10022E1
:100CA200EFFD7C007003A28022ED64014C7003A270
:100CB2008122ED64024C7003A28222ED64034C7027
:100CC20003A28322ED64044C7003A28422ED640526
:100CD2004C7003A28522ED64064C7003A28622EDBD
:100CE20064074C7003A28722ED640A4C7003A29041
:100CF20022ED640B4C7003A29122ED640C4C700344
:100D0200A29222ED640D4C7003A29322ED640E4C6C
:100D12007003A29422ED640F4C7003A29522ED643D
:100D2200104C7003A29622ED64114C7003A297221C
:020D3200C322DA
:100BF200EFFD7C007005A209928022ED64014C7029
:100C020005A209928122ED64024C7005A20992822A
:100C120022ED64034C7005A209928322ED64044C18
:100C22007005A209928422ED64054C7005A2099216
:100C32008522ED64064C7005A209928622ED6407B6
:100C42004C7005A209928722ED640A4C7005A20934
:100C5200929022ED640B4C7005A209929122ED64F0
:100C62000C4C7005A209929222ED640D4C7005A203
:100C720009929322ED640E4C7005A209929422ED22
:100C8200640F4C7005A209929522ED64104C700518
:100C9200A209929622ED64114C7004A20992972245
:10107C00E4FDFC43E10153E1CF53E8F0EF540742A8
:10108C00E8E4F5F6A80704088002C333D8FC42F65E
:10109C00C2EFD2EE30EFFDAFC3EF75F010A4FFAD91
:0C10AC00C2E5F0FCEF4D53E1FEAE04FF86
:0110B8002215
:100F4F00EF64117003FF803DEF641E70047F01801A
:100F5F0034EF640770047F02802BEF640670047F08
:100F6F00038022EF640570047F048019EF6404701E
:100F7F00047F058010EF640370047F068007EF6421
:0C0F8F000B70057F0702107CE4FEFF22BF
:1010B90053B1BF53B2BF53B17F53B27F75985043F9
:1010C9008920438780438E1053C4DFAB07AA06A942
:1010D90005A8047F407E427D0F7C0012055FEF0466
:0910E900F404F58DD28ED2992297
:100D34008F2B8E2A8D298C2853B1BF53B2BF53B148
:100D44007F53B27F75985043878053C4F843C420BF
:100D5400AB2BAA2AA929A8287F407E427D0F7C00BC
:100D640012055FC374FF9FFF74FF9EFEE49DFDE4C4
:100D74009CFC78081206108FC6AB2BAA2AA929A8B6
:100D8400287F407E427D0F7C0012055FC374FF9F65
:090D9400FF8FC543C408D2992267
:071150003098FDAF99C29831
:011157002275
:08115800C2998F993099FD2224
:100D9D008F0B8E0A8D098C0853B1FB53B2FB53B3E5
:100DAD00BF53B4BF75F85075C40853C4DFAB0BAA5D
:100DBD000AA909A8087F407E427D0F7C0012055FBD
:100DCD00C374FF9FFF74FF9EFEE49DFDE49CFC78C1
:100DDD00081206108FC6AB0BAA0AA909A8087F40F6
:100DED007E427D0F7C0012055FC374FF9FFF8FC590
:040DFD0043C40822C1
:0711600030F8FDAF9AC2F860
:011167002265
:08116800C2F98F9A30F9FD2253
:100F9B008F0F8E0E8D0D8C0C538EF7438901D28CD7
:100FAB00E4FFFEFDFCAB0FAA0EA90DA80CC31205A6
:100FBB00FF6025758A7E758CFF308DFDC28DE50F28
:100FCB0024FFF50FE50E34FFF50EE50D34FFF50D9F
:0B0FDB00E50C34FFF50C80C8C28C222E
:100FE6008F2B8E2A8D298C28538EF7438901D28C1C
:100FF600E4FFFEFDFCAB2BAA2AA929A828C31205EB
:10100600FF6025758ACA758CFA308DFDC28DE52B79
:1010160024FFF52BE52A34FFF52AE52934FFF529C7
:0B102600E52834FFF52880C8C28C22AA
:101031008F138E128D118C10538EEF438910D28E27
:10104100E4FFFEFDFCAB13AA12A911A810C31205FF
:10105100FF6025758BEA758DCB308FFDC28FE5134F
:1010610024FFF513E51234FFF512E51134FFF511F4
:0B107100E51034FFF51080C8C28E228D
:100F01008F178E168D158C1453C9BF53C9DF43C972
:100F110010D2CAE4FFFEFDFCAB17AA16A915A8144E
:100F2100C31205FF602575CC3075CDF830CFFDC2F9
:100F3100CFE51724FFF517E51634FFF516E515344F
:0E0F4100FFF515E51434FFF51480C8C2CA226E
:100E61008F1B8E1A8D198C1875C40743C408E4FFB3
:100E7100FEFDFCAB1BAA1AA919A818C31205FF6035
:100E81002B75C52C75C6CFE5C45410641070F8538A
:100E9100C4EFE51B24FFF51BE51A34FFF51AE5192C
:100EA10034FFF519E51834FFF51880C253C4F72251
:100EB1008F1F8E1E8D1D8C1C75C40743C408E4FF53
:100EC100FEFDFCAB1FAA1EA91DA81CC31205FF60D5
:100ED1002B75C5D875C6FFE5C45410641070F8535E
:100EE100C4EFE51F24FFF51FE51E34FFF51EE51DC8
:100EF10034FFF51DE51C34FFF51C80C253C4F722F5
:030000000210F2F9
:1010F20075C7AA75C75575FD5A75C7AA75C75575BF
:10110200FDA5787FE4F6D8FD9000007FFF7E03E422
:0C111200F0A3DFFCDEFA758143020E0141
:10000300EC4D6011E8497017ED33EC3304600DE4F7
:10001300FCFFFEFD22E933E8330470F802021C12F0
:1000230001E758046009E4CC2481500628500902F2
:100033000226284003020223C0E0EB4A7044B98041
:1000430006D0E0FB020212EF4E701CBD8008EBFFEE
:10005300EAFEE9FD80EBE98DF0A4FEE5F00200EC99
:10006300E9CDF9EAFEEBFFEF89F0A4FCE5F0CE89D8
:10007300F0A42EFFE435F0CD89F0A42DFEE435F095
:100083008067EF4E7005BD80D780C3EF8BF0A4ACC3
:10009300F0EE8BF0A42CFCE435F0F8EF8AF0A42CFE
:1000A300E5F038FCE433CB8DF0A42CFCE5F03BF811
:1000B300EE8AF0A42CFCE5F038F8E433CF89F0A401
:1000C3002CFCE5F038CF3400CE89F0A42FFFE5F007
:1000D3003EFEE433C98DF0A42EFEE5F039CD8AF05F
:1000E300A42FFFE5F03EFEE43DFD33D0E0FB5007D7
:1000F3000BBB000F020226EC2CFCEF33FFEE33FEAA
:06010300ED33FD0201FED8
:10010900020226EC5D046005E85904700302021C32
:100119001201E7580460F6EC4860F2EC7004FDFE49
:10012900FF22C860DB2481C85009C39860025006C9
:100139000202239850CAF582E9294B4A7005AB821D
:1001490002021275F0007C1A7880C3EF9BEE9AEDDB
:1001590099400DC3EF9BFFEE9AFEED99FDE842F041
:10016900DC23ACF0D0E0FFD0E0FED0E0FDAB822094
:10017900E7101BEB60BAEC2CFCEF33FFEE33FEED1E
:1001890033FD0201FEE803F830E705C0F075F00021
:10019900EF2FFFEE33FEED33FD40B830E7C280AA02
:1001A90075F020800E75F010800575F0087D007ED1
:1001B900007F003392D530D5031205F1EC3340109E
:1001C900EF33FFEE33FEED33FDEC33FCD5F0ED22DA
:0E01D900E5F0247EA2D513CC92E7CDCEFF2216
:10065900E53F242BF8E6053F227828300702782B5E
:10066900E475F0011206230204CB2000EB7F2ED2A1
:10067900008018EF540F2490D43440D4FF30040B79
:10068900EF24BFB41A0050032461FFE5406002154E
:10069900400543E5437002054230070D7828E475AB
:1006A900F001120623EF02051102111E7403D2078D
:1006B9008003E4C207F53F8B288A29892AE4F5409B
:1006C900F542F543E54060077F2012069480F575F1
:1006D90041FFC201C200C202C203C205C206C2086A
:1006E900120662FF700D3007057F001206A5AF43A1
:1006F900AE4222B4255FC2D5C204120662FF24D0DD
:10070900B40A00501A75F00A784030D50508B6FFCA
:100719000106C6A426F620D5047002D20380D92486
:10072900CFB41A00EF5004C2E5D204020992D201F3
:1007390080C6D20080C0D20280BCD2D580BAD20590
:1007490080B47F201206942002077401B54000404E
:10075900F1120659FF1206940206CDD208D206807C
:1007690095120659FB120659FA120659F94A4B70A5
:100779000679897A0A7BFF20022EE540602A7E00ED
:100789008E827583001204E460060EEE654170F0F6
:10079900C2D5EBC0E0EAC0E0E9C0E0EE1209F2D050
:1007A900E0F9D0E0FAD0E0FB1204CBFF60AAEBC07D
:1007B900E0EAC0E0E9C0E0120694D0E02401F9D0F3
:1007C900E03400FAD0E0FBE5410460DCD541D98092
:1007D90087D20280A21209D560F7E541700104129F
:1007E9000231A941600DE541600914F541120A7C05
:1007F900EF60F3EA30E702F404C3995077EAF4258D
:10080900410430E701E404F541800D1209D560C1C6
:10081900EA05412541120231EA783EF630E701E462
:10082900254104D54104200501141209F2E4C0E070
:10083900120A7C783EE6601320E70714F612067C5C
:10084900802204F6D0E014C0E07F0012067CE54166
:1008590060071206731541800B300503120673D029
:10086900E00206CDD0E00480C51209D560A0E541BB
:1008790004120231783EEAF6E541200502600104DE
:0508890024041209F235
:10088E0074FF04C0E0120A7C12067CE541200502CA
:10089E006003120673D0E0B541E87F4512068678F4
:1008AE003EE67F2B30E7047F2DF404C0E012069461
:1008BE00D0E075F00A84C0F012067DD0E012067DFD
:1008CE000206CD791080027908C206C2088008D2CD
:1008DE00D5790A8004790AC2D5E541047002F54142
:1008EE00E4FAFDFEFF120659FC7B082001131206E6
:1008FE0059FD7B1030000A120659FE120659FF7B75
:10090E0020EC3382D592D55013C3E43000069FFFFE
:10091E00E49EFEE42001039DFDE49CFCE4CBF8C2C2
:10092E0001EC700CCFCECDCCE824F8F870F3801724
:10093E00C3EF33FFEE33FEED33FDEC33FCEB33FB55
:10094E00994002FB0FD8E9EB300105F8D0E0C4481E
:10095E00B201C0E00AEC4D4E4F78207B0070C2EA27
:10096E00B5410040BCC0E01209F4D0F0D0E0200147
:10097E0004C4C0E0C4B201C0F012067DD0F0D5F0C0
:10098E00EB0206CD120633076A5308D158073B4CCB
:10099E0007374208D54F08DD4408DD4907504308A4
:1009AE00E35508144608724507DE470AA950073F6B
:1009BE002D07432E07662B0747230764200A922A2A
:1009CE0006FF480000075EE541B4FF0375410612BD
:1009DE000659FC120659FD120659FE120659FF78E9
:1009EE0037020260790AA2D5200314300509B91026
:1009FE00020404B9080104A2D52006025001042005
:100A0E0002689202B540005034C0E07F20300319D6
:100A1E007F30A20272067205500F120A4BC202C23A
:100A2E0006C205C2087F30800F300503E9C0E01210
:100A3E000694300503D0E0F9D0E0B540CC30051770
:100A4E007F30B9100C1206947F583004077F7880DF
:100A5E0003B908031206943002057F2D0206947F17
:100A6E00202008F87F2B2006F322920280CF7F00F1
:100A7E00B4070050052437F8E6FF22286E756C6C1B
:100A8E002900D2011206593001F8C201784030D542
:100A9E000108F60206FF2D50434958120659240349
:100AAE00B405004001E4900AA493120685743A122C
:0A0ABE000685D2037540040208D13A
:1001E700E9D2E7C933E833F892D5EDD2E7CD33EC5E
:0701F70033FC5002B2D522D7
:1001FE00EC30E7100FBF000C0EBE00080DBD000462
:10020E000BEB6014A2D5EB13FCED92E7FD2274FF0D
:10021E00FCFDFEFF22E480F8A2D574FF13FC7D8066
:03022E00E480EF7A
:10023100F920E72824F950037907E4F42402FB1894
:10024100DBFDE624FB5014E9600DE4F618E604F644
:0F025100B40A08E4F6D9F57401F60A22C2D522E0
:10026000ED33EC3392D5FA602AB4FF33EDC2E77B6D
:10027000FF60067A027985E4227A02798E20D5041D
:100280007A027989224E614E002B494E46002D4953
:100290004E4600E47A08F608DAFC7B00740722E890
:1002A000C0E0ECC0E0EDC0E0EEC0E0EFC0E0EA7519
:1002B000F010A4CAABF075F04DA42BFBE435F0FCB4
:1002C000EA2410FAEB34C5FBEC34D9FCEDC2E7FFAD
:1002D00075F056A4F42411C5F0F434C58FF0A42AA7
:1002E000E5F03BE43CF620E71412048BD0E0FFD0AD
:1002F000E0FED0E0FDD0E0FC12010C8014F404120A
:10030000048BD0E0FFD0E0FED0E0FDD0E0FC120096
:1003100003D0E0F8E6FAEDD2E7CD33EC332482FBEC
:10032000E4C3CF33CFCE33CECD33CD33DBF37B0736
:1003300075F00A846004F6081B0AE5F0F6088FF0F1
:10034000740AA4FFACF08EF0740AA42CFEACF0503A
:10035000010C8DF0740AA42CFDE435F0F608DBDE08
:03036000740722FD
:1003630002021CE86480F8E933E83360110460F0AA
:10037300ED33EC337009E8FCE9FDEAFEEBFF220400
:1003830060DED3EB9FEA9EE99DE8C2E78CF0C2F7FB
:1003930095F0400CE8CCF8E9CDF9EACEFAEBCFFBC7
:1003A3001201E785D0F05804700320D5B3E8047038
:1003B300075002B2D502022692D5EC0460F7E4CCD2
:1003C300C0E0C398F8603B94186008400DD0E0FB90
:1003D3000201FEE4FBFAC9FC8028E830E406E4C924
:1003E300FBE4CAFCE830E305E4C9CACBFCE85407E4
:1003F3006010F8C3E913F9EA13FAEB13FBEC13FCEF
:10040300D8F130F52FC3E49CFCEF9BFFEE9AFEED91
:1004130099FDD0E0FBEF4E4D4C701222DB0302023C
:1004230023EC2CFCEF33FFEE33FEED33FDED30E731
:10043300EB0201FEEF2BFFEE3AFEED39FDD0E0FBC0
:1004430050130BBB0003020226ED13FDEE13FEEF68
:0804530013FFEC13FC0201FE93
:10045B003F8000004120000042C80000447A0000A9
:10046B00461C400047C35000497424004B1896802B
:10047B004CBEBC205A0E1BCA6753C21C749DC5AE22
:10048B00FB60065407601C23231204B9EB5438603D
:10049B00091204A51204B4120003ECF8EDF9EEFAFC
:1004AB00EFCB22EB1204B480F1543803241C9004DC
:1004BB005BFE93FC0EEE93FD0EEE930ECE93FF229E
:1004CB00BB010689828A83E0225002E722BBFE022F
:0904DB00E32289828A83E4932262
:1004E400BB010CE58229F582E5833AF583E02250CD
:1004F40006E92582F8E622BBFE06E92582F8E22217
:0D050400E58229F582E5833AF583E4932230
:10051100BB010689828A83F0225002F722BBFE01C9
:02052100F322C3
:1005230075F008758200EF2FFFEE33FECD33CDCC8F
:1005330033CCC58233C5829BED9AEC99E582984012
:100543000CF582EE9BFEED9AFDEC99FC0FD5F0D6EF
:10055300E4CEFBE4CDFAE4CCF9A88222B800C1B919
:100563000059BA002DEC8BF084CFCECDFCE5F0CB57
:10057300F97818EF2FFFEE33FEED33FDEC33FCEB90
:1005830033FB10D703994004EB99FB0FD8E5E4F94B
:10059300FA227818EF2FFFEE33FEED33FDEC33FC38
:1005A300C933C910D7059BE99A4007EC9BFCE99A2C
:1005B300F90FD8E0E4C9FAE4CCFB2275F010EF2F71
:1005C300FFEE33FEED33FDCC33CCC833C810D70771
:1005D3009BEC9AE899400AED9BFDEC9AFCE899F8AC
:0E05E3000FD5F0DAE4CDFBE4CCFAE4C8F9223F
:0E05F100C3E49FFFE49EFEE49DFDE49CFC221B
:1005FF00EB9FF5F0EA9E42F0E99D42F0E89C45F052
:01060F0022C8
:10061000E8600FECC313FCED13FDEE13FEEF13FFC8
:03062000D8F122EC
:10062300FAE6FB0808E6F925F0F618E6CA3AF622D8
:10063300D083D082F8E4937012740193700DA3A356
:1006430093F8740193F5828883E47374029368606A
:06065300EFA3A3A380DF6A
:10111E00EFB40A07740D121129740A309811A899A8
:10112E00B8130CC2983098FDA899C298B811F63031
:07113E0099FDC299F5992209
:00000001FF
