:10051D00E4FEEEC39408748094805016EFC4131358
:10052D0013540124FF9285C290D290EF25E0FF0E67
:06053D0080E0C280D280C4
:010543002295
:10047A008B0A8A0B890CEDFFC39401748094804027
:10048A002CD3EF9408748094805022120003FFED5D
:10049A0014FEF87401088002C333D8FC4F12001C02
:0E04AA00AB0AAA0BA90C120003FF12051D22BB
:10043B008B0A8A0B890CEDFFC39401748094804066
:10044B002DD3EF9408748094805023120003FFED9A
:10045B0014FEF87401088002C333D8FCF45F120059
:0F046B001CAB0AAA0BA90C120003FF12051D22DD
:10012000E4F508F50953B1FE43B20153B1DF43B220
:100130002053B3FE43B401750901D3E50994087453
:10014000809480501A7B007A007908AD0912047AF5
:100150007FF47E017D007C001203A5050980DB7F12
:10016000F47E017D007C001203A5750901D3E50929
:10017000940874809480501A7B007A007908AD0945
:1001800012043B7FF47E017D007C001203A505096B
:0F01900080DB7FF47E017D007C001203A5809848
:10035A008F118E108D0F8C0E538EF7438901D28C1C
:10036A00E4FFFEFDFCAB11AA10A90FA80EC31200F0
:10037A00FC6025758A7E758CFF308DFDC28DE51176
:10038A0024FFF511E51034FFF510E50F34FFF50FE2
:0B039A00E50E34FFF50E80C8C28C2277
:1003A5008F0D8E0C8D0B8C0A538EF7438901D28CE1
:1003B500E4FFFEFDFCAB0DAA0CA90BA80AC31200B5
:1003C500FC6025758ACA758CFA308DFDC28DE50DE8
:1003D50024FFF50DE50C34FFF50CE50B34FFF50BAB
:0B03E500E50A34FFF50A80C8C28C2234
:1003F0008F158E148D138C12538EEF438910D28E6D
:10040000E4FFFEFDFCAB15AA14A913A812C3120049
:10041000FC6025758BEA758DCB308FFDC28FE5159D
:1004200024FFF515E51434FFF514E51334FFF51337
:0B043000E51234FFF51280C8C28E22D6
:10030C008F198E188D178C1653C9BF53C9DF43C96B
:10031C0010D2CAE4FFFEFDFCAB19AA18A917A81647
:10032C00C31200FC602575CC3075CDF830CFFDC202
:10033C00CFE51924FFF519E51834FFF518E5173446
:0E034C00FFF517E51634FFF51680C8C2CA2269
:10026C008F1D8E1C8D1B8C1A75C40743C408E4FFAC
:10027C00FEFDFCAB1DAA1CA91BA81AC31200FC6036
:10028C002B75C52C75C6CFE5C45410641070F8538B
:10029C00C4EFE51D24FFF51DE51C34FFF51CE51B23
:1002AC0034FFF51BE51A34FFF51A80C253C4F7224C
:1002BC008F248E238D228C2175C40743C408E4FF40
:1002CC00FEFDFCAB24AA23A922A821C31200FC60CA
:1002DC002B75C5D875C6FFE5C45410641070F8535F
:1002EC00C4EFE52424FFF524E52334FFF523E522B0
:1002FC0034FFF522E52134FFF52180C253C4F722E7
:1004B80053B1BF53B2BF53B17F53B27F7598504306
:1004C8008920438780438E1053C4DFAB07AA06A94F
:1004D80005A8047F407E427D0F7C0012006AEF046D
:0904E800F404F58DD28ED29922A4
:10019F008F288E278D268C2553B1BF53B2BF53B1F5
:1001AF007F53B27F75985043878053C4F843C42060
:1001BF00AB28AA27A926A8257F407E427D0F7C0069
:1001CF0012006AC374FF9FFF74FF9EFEE49DFDE45F
:1001DF009CFC780812010D8FC6AB28AA27A926A868
:1001EF00257F407E427D0F7C0012006AC374FF9F03
:0901FF00FF8FC543C408D2992208
:070544003098FDAF99C29849
:01054B00228D
:08054C00C2998F993099FD223C
:100208008F2C8E2B8D2A8C2953B1FB53B2FB53B301
:10021800BF53B4BF75F85075C40853C4DFAB2CAADC
:100228002BA92AA8297F407E427D0F7C0012006AF4
:10023800C374FF9FFF74FF9EFEE49DFDE49CFC7861
:100248000812010D8FC6AB2CAA2BA92AA8297F401A
:100258007E427D0F7C0012006AC374FF9FFF8FC52A
:0402680043C4082261
:0705540030F8FDAF9AC2F878
:01055B00227D
:08055C00C2F98F9A30F9FD226B
:030000000204F106
:1004F10075C7AA75C75575FD5A75C7AA75C75575CC
:10050100FDA5787FE4F6D8FD9000007FFF7E03E42F
:0C051100F0A3DFFCDEFA75812C02012053
:10000300BB010689828A83E0225002E722BBFE02FB
:09001300E32289828A83E493222E
:10001C00BB010689828A83F0225002F722BBFE01C3
:02002C00F322BD
:10002E0075F008758200EF2FFFEE33FECD33CDCC89
:10003E0033CCC58233C5829BED9AEC99E58298400C
:10004E000CF582EE9BFEED9AFDEC99FC0FD5F0D6E9
:10005E00E4CEFBE4CDFAE4CCF9A88222B800C1B913
:10006E000059BA002DEC8BF084CFCECDFCE5F0CB51
:10007E00F97818EF2FFFEE33FEED33FDEC33FCEB8A
:10008E0033FB10D703994004EB99FB0FD8E5E4F945
:10009E00FA227818EF2FFFEE33FEED33FDEC33FC32
:1000AE00C933C910D7059BE99A4007EC9BFCE99A26
:1000BE00F90FD8E0E4C9FAE4CCFB2275F010EF2F6B
:1000CE00FFEE33FEED33FDCC33CCC833C810D7076B
:1000DE009BEC9AE899400AED9BFDEC9AFCE899F8A6
:0E00EE000FD5F0DAE4CDFBE4CCFAE4C8F92239
:1000FC00EB9FF5F0EA9E42F0E99D42F0E89C45F05A
:01010C0022D0
:10010D00E8600FECC313FCED13FDEE13FEEF13FFD0
:03011D00D8F122F4
:00000001FF
