:100E5F00436865636B204572726F720A005772693F
:100E6F0074652064617461204572726F720A00525A
:100E7F006561642064617461204572726F720A004B
:100E8F00436F6465207465737420504153530A0097
:100E9F004461746120726561643A20256420256481
:020EAF000A0037
:10052900E4F522F523F524F52553B3FB43B404C2BE
:1005390092FF7EC27D01FC120D92D2991211687F41
:10054900A0120BB64025D2927FF47E017D007C007B
:10055900120FEAC2927FF47E017D007C00120FEA3D
:100569007BFF7A0E795F12006580DB7F017E007D5B
:10057900007C00120FEA7D227C067F0212082140CE
:1005890025D2927FF47E017D007C00120FEAC2928F
:100599007FF47E017D007C00120FEA7BFF7A0E79E1
:1005A9006C12006580DB7F017E007D007C00120FEC
:1005B900EA7DE77C077F041208214025D2927FF467
:1005C9007E017D007C00120FEAC2927FF47E017DDC
:1005D900007C00120FEA7BFF7A0E796C12006580AD
:1005E900DB7F017E007D007C00120FEA7B007A0030
:1005F90079227F02120AB440167FE87E037D007CCF
:1006090000120FEA7BFF7A0E797E12006580EA7B81
:10061900007A0079237F03120AB440167FE87E032B
:100629007D007C00120FEA7BFF7A0E797E1200654D
:1006390080EA7B007A0079287F041206B740167F8A
:10064900E87E037D007C00120FEA7BFF7A0E797E3B
:1006590012006580EAAF22EF3395E0EFFEAD23ED9E
:100669003395E04EF526EDF5277FF47E017D007C7C
:1006790000120FEA7BFF7A0E798F120065D2927F02
:10068900F47E017D007C00120FEAC2927FF47E01A4
:100699007D007C00120FEA7BFF7A0E799F85263058
:0E06A90085273185283285293312006580CFE0
:10114D0052656164312077726974652061646472DF
:0B115D00657373204572726F720A0008
:1011680075BE2753B3F753B4F753B3EF53B4EFD265
:0611780093D294D2C622BE
:020CAA008F2D8C
:100CAC00AFBDEF64F86002C322C2C4D2C5C2C39008
:100CBC000003E4F0A304F0E4A3F020C321900003AC
:100CCC00E07002A3E0700790000504F08010900023
:100CDC0004E004F070E4900003E004F080DC900089
:100CEC0005E06003020D89AFBDEF64086003020DDF
:100CFC0089C2C5C2C475BCA0C2C3900003E4F0A3F2
:100D0C0004F0E4A3F020C321900003E07002A3E000
:100D1C00700790000504F08010900004E004F0705F
:100D2C00E4900003E004F080DC900005E0600280B9
:100D3C004CAFBDEF641860028043852DBCC2C390DC
:100D4C000003E4F0A304F0E4A3F020C3219000031B
:100D5C00E07002A3E0700790000504F08010900092
:100D6C0004E004F070E4900003E004F080DC9000F8
:100D7C0005E060028007AFBDEF64286005121080AB
:050D8C00C322121080DB
:010D9100223F
:040983008F418D42D1
:10098700AFBDEF64F86002C322C2C4D2C5C2C39030
:100997000009E4F0A304F0E4A3F020C321900009C8
:1009A700E07002A3E0700790000B04F08010900045
:1009B7000AE004F070E4900009E004F080DC9000A5
:1009C7000BE06003020AABAFBDEF64086003020AE5
:1009D700ABC2C5C2C475BCA0C2C3900009E4F0A3F2
:1009E70004F0E4A3F020C321900009E07002A3E023
:1009F700700790000B04F0801090000AE004F0707C
:100A0700E4900009E004F080DC90000BE060030252
:100A17000AABAFBDEF64186003020AAB8541BCC2E5
:100A2700C3900009E4F0A304F0E4A3F020C32190ED
:100A37000009E07002A3E0700790000B04F080103B
:100A470090000AE004F070E4900009E004F080DC14
:100A570090000BE06002804CAFBDEF64286002801D
:100A6700438542BCC2C3900009E4F0A304F0E4A3A9
:100A7700F020C321900009E07002A3E07007900006
:100A87000B04F0801090000AE004F070E490000975
:100A9700E004F080DC90000BE060028007AFBDEF60
:0C0AA70064286005121080C32212108029
:010AB3002220
:060821008F2A8C2B8D2CA8
:10082700AFBDEF64F86002C322C2C4D2C5C2C39091
:100837000002E4F0A304F0E4900001F020C321904B
:100847000002E07002A3E0700790000104F080103E
:10085700900003E004F070E4900002E004F080DC14
:10086700900001E06003020972AFBDEF6408600306
:10087700020972C2C5C2C475BCA0C2C3900002E41B
:10088700F0A304F0E4900001F020C321900002E0FF
:100897007002A3E0700790000104F080109000033D
:1008A700E004F070E4900002E004F080DC900001C6
:1008B700E06003020972AFBDEF64186003020972BA
:1008C700852ABCC2C3900002E4F0A304F0E49000C0
:1008D70001F020C321900002E07002A3E0700790AE
:1008E700000104F08010900003E004F070E4900031
:1008F70002E004F080DC900001E06002806DAFBD93
:10090700EF642860028064E4900000F0900000E04B
:10091700FF7E00C3940274809480505CEF7006E5FC
:100927002BF5BC8004E52CF5BCC2C3900002E4F0B3
:10093700A304F0E4900001F020C321900002E070CE
:1009470002A3E0700790000104F08010900003E01C
:1009570004F070E4900002E004F080DC900001E015
:1009670060028007AFBDEF64286005121080C322C4
:0B097700900000E004F080941210805B
:010982002252
:060AB4008B2A8A2B892C1D
:100ABA00120CAA400122AFBDEF64F86002C322C241
:100ACA00C4D2C5C2C3900001E4F0A304F0E49000CC
:100ADA0000F020C321900001E07002A3E0700790AB
:100AEA00000004F08010900002E004F070E490002E
:100AFA0001E004F080DC900000E06003020BA2AF8A
:100B0A00BDEF64086003020BA2C2C5C2C475BCA1D2
:100B1A00C2C3900001E4F0A304F0E4900000F020C6
:100B2A00C321900001E07002A3E070079000000466
:100B3A00F08010900002E004F070E4900001E004FC
:100B4A00F080DC900000E06002804DAFBDEF6440B1
:100B5A0060028044C2C2C2C3900001E4F0A304F060
:100B6A00E4900000F020C321900001E07002A3E0AD
:100B7A00700790000004F08010900002E004F0700A
:100B8A00E4900001E004F080DC900000E060028064
:100B9A0007AFBDEF64586005121080C322AB2AAAC2
:0B0BAA002BA92CE5BC12035F12108089
:010BB500221D
:0606B7008B2A8A2B892C1E
:1006BD00120CAA400B7BFF7A11794D120065C322F3
:1006CD00AFBDEF64F86002C322C2C4D2C5C2C390ED
:1006DD000001E4F0A304F0E4900000F020C32190A9
:1006ED000001E07002A3E0700790000004F080109C
:1006FD00900002E004F070E4900001E004F080DC72
:10070D00900000E06003020805AFBDEF64086003D0
:10071D00020805C2C5C2C475BCA1C2C3900001E4E4
:10072D00F0A304F0E4900000F020C321900001E05C
:10073D007002A3E0700790000004F080109000029A
:10074D00E004F070E4900001E004F080DC90000023
:10075D00E06003020805AFBDEF64406003020805C9
:10076D00D2C2C2C3900001E4F0A304F0E4900000F3
:10077D00F020C321900001E07002A3E0700790000B
:10078D000004F08010900002E004F070E49000018D
:10079D00E004F080DC900000E06002805BAFBDEF14
:1007AD00645060028052AFBCAB2AAA2BA92CE48FF7
:1007BD00F012039CC2C2C2C3900001E4F0A304F086
:1007CD00E4900000F020C321900001E07002A3E04E
:1007DD00700790000004F08010900002E004F070AB
:1007ED00E4900001E004F080DC900000E060028005
:1007FD0007AFBDEF64586005121080C322AB2AAA63
:10080D002BA92C120371FFADBCEDCF8FF012039C01
:03081D0012108036
:0108200022B5
:020BB6008F2A84
:100BB800AFBDEF64F86002C322C2C4D2C5C2C390FD
:100BC8000000E4F0A304F0E4A3F020C321900000A7
:100BD800E07002A3E0700790000204F0801090001B
:100BE80001E004F070E4900000E004F080DC900084
:100BF80002E06003020C97AFBDEF64086003020CCB
:100C080097C2C5C2C4E52A4401F5BCC2C39000001E
:100C1800E4F0A304F0E4A3F020C321900000E07006
:100C280002A3E0700790000204F08010900001E039
:100C380004F070E4900000E004F080DC900002E032
:100C48006002804BAFBDEF644060028042C2C2C206
:100C5800C3900000E4F0A304F0E4A3F020C32190C3
:100C68000000E07002A3E0700790000204F080101A
:100C7800900001E004F070E4900000E004F080DCF3
:100C8800900002E060028007AFBDEF645860051273
:100C98001080C322AFBC900000E4F0A3EFF0121064
:010CA80080CB
:010CA9002228
:10108000C2C5D2C4C2C3900006E4F0A304F0E4A336
:10109000F0AFBDEF64F86021900006E07002A3E0BD
:1010A000700790000804F08010900007E004F070D2
:1010B000E0900006E004F080D8900008E024FFB340
:0110C000220D
:1010C10053B1BF53B2BF53B17F53B27F75985043F1
:1010D1008920438780438E1053C4DFAB07AA06A93A
:1010E10005A8047F407E427D0F7C001203F7EF04C8
:0910F100F404F58DD28ED299228F
:100D92008F2D8E2C8D2B8C2A53B1BF53B2BF53B1E2
:100DA2007F53B27F75985043878053C4F843C42061
:100DB200AB2DAA2CA92BA82A7F407E427D0F7C0056
:100DC2001203F7C374FF9FFF74FF9EFEE49DFDE4D0
:100DD2009CFC780812049A8FC6AB2DAA2CA92BA8CA
:100DE2002A7F407E427D0F7C001203F7C374FF9F6F
:090DF200FF8FC543C408D2992209
:07117E003098FDAF99C29803
:011185002247
:08118600C2998F993099FD22F6
:100DFB008F0B8E0A8D098C0853B1FB53B2FB53B387
:100E0B00BF53B4BF75F85075C40853C4DFAB0BAAFE
:100E1B000AA909A8087F407E427D0F7C001203F7C8
:100E2B00C374FF9FFF74FF9EFEE49DFDE49CFC7862
:100E3B000812049A8FC6AB0BAA0AA909A8087F400F
:100E4B007E427D0F7C001203F7C374FF9FFF8FC59B
:040E5B0043C4082262
:07118E0030F8FDAF9AC2F832
:011195002237
:08119600C2F98F9A30F9FD2225
:100F9F008F0F8E0E8D0D8C0C538EF7438901D28CD3
:100FAF00E4FFFEFDFCAB0FAA0EA90DA80CC31204A3
:100FBF00896025758A7E758CFF308DFDC28DE50F9A
:100FCF0024FFF50FE50E34FFF50EE50D34FFF50D9B
:0B0FDF00E50C34FFF50C80C8C28C222A
:100FEA008F2D8E2C8D2B8C2A538EF7438901D28C10
:100FFA00E4FFFEFDFCAB2DAA2CA92BA82AC31204E0
:10100A00896025758ACA758CFA308DFDC28DE52DE9
:10101A0024FFF52DE52C34FFF52CE52B34FFF52BB9
:0B102A00E52A34FFF52A80C8C28C22A2
:101035008F138E128D118C10538EEF438910D28E23
:10104500E4FFFEFDFCAB13AA12A911A810C31204FC
:10105500896025758BEA758DCB308FFDC28FE513C1
:1010650024FFF513E51234FFF512E51134FFF511F0
:0B107500E51034FFF51080C8C28E2289
:100F51008F178E168D158C1453C9BF53C9DF43C922
:100F610010D2CAE4FFFEFDFCAB17AA16A915A814FE
:100F7100C3120489602575CC3075CDF830CFFDC220
:100F8100CFE51724FFF517E51634FFF516E51534FF
:0E0F9100FFF515E51434FFF51480C8C2CA221E
:100EB1008F1B8E1A8D198C1875C40743C408E4FF63
:100EC100FEFDFCAB1BAA1AA919A818C3120489605C
:100ED1002B75C52C75C6CFE5C45410641070F8533A
:100EE100C4EFE51B24FFF51BE51A34FFF51AE519DC
:100EF10034FFF519E51834FFF51880C253C4F72201
:100F01008F1F8E1E8D1D8C1C75C40743C408E4FF02
:100F1100FEFDFCAB1FAA1EA91DA81CC312048960FB
:100F21002B75C5D875C6FFE5C45410641070F8530D
:100F3100C4EFE51F24FFF51FE51E34FFF51EE51D77
:100F410034FFF51DE51C34FFF51C80C253C4F722A4
:030000000210FAF1
:1010FA0075C7AA75C75575FD5A75C7AA75C75575B7
:10110A00FDA5787FE4F6D8FD9000007FFF7E03E41A
:0C111A00F0A3DFFCDEFA7581420205291B
:10035F00BB010689828A83F0225002F722BBFE017D
:02036F00F32277
:10037100BB010A89828A83E0F5F0A3E02250068757
:10038100F009E71922BBFE07E3F5F009E319228919
:0B039100828A83E493F5F0740193224C
:10039C00BB010A89828A83F0E5F0A3F0225006F7AC
:0F03AC0009A7F01922BBFE06F3E5F009F31922A9
:1003BB0075F008758200EF2FFFEE33FECD33CDCCF9
:1003CB0033CCC58233C5829BED9AEC99E58298407C
:1003DB000CF582EE9BFEED9AFDEC99FC0FD5F0D659
:1003EB00E4CEFBE4CDFAE4CCF9A88222B800C1B983
:1003FB000059BA002DEC8BF084CFCECDFCE5F0CBC1
:10040B00F97818EF2FFFEE33FEED33FDEC33FCEBF9
:10041B0033FB10D703994004EB99FB0FD8E5E4F9B4
:10042B00FA227818EF2FFFEE33FEED33FDEC33FCA1
:10043B00C933C910D7059BE99A4007EC9BFCE99A95
:10044B00F90FD8E0E4C9FAE4CCFB2275F010EF2FDA
:10045B00FFEE33FEED33FDCC33CCC833C810D707DA
:10046B009BEC9AE899400AED9BFDEC9AFCE899F815
:0E047B000FD5F0DAE4CDFBE4CCFAE4C8F922A8
:10048900EB9FF5F0EA9E42F0E99D42F0E89C45F0C9
:010499002240
:10049A00E8600FECC313FCED13FDEE13FEEF13FF40
:0304AA00D8F12264
:10000300E53C2430F8E6053C22782D3007027830B1
:10001300E475F0011204F30204AD2000EB7F2ED24D
:10002300008018EF540F2490D43440D4FF30040BD5
:10003300EF24BFB41A0050032461FFE53D600215AD
:100043003D0540E5407002053F30070D782DE4750E
:10005300F0011204F3EF02035F0211267403D207C7
:100063008003E4C207F53C8B2D8A2E892FE4F53DEE
:10007300F53FF540E53D60077F2012003E80F575B2
:100083003EFFC201C200C202C203C205C206C208C9
:1000930012000CFF700D3007057F0012004FAF40B8
:1000A300AE3F22B4255FC2D5C20412000CFF24D098
:1000B300B40A00501A75F00A783D30D50508B6FF2A
:1000C3000106C6A426F620D5047002D20380D924E3
:1000D300CFB41A00EF5004C2E5D20402024FD2019A
:1000E30080C6D20080C0D20280BCD2D580BAD205ED
:1000F30080B47F2012003E2002077401B53D00400A
:10010300F1120003FF12003E020077D208D20680EC
:1001130095120003FB120003FA120003F94A4B7015
:100123000679207A037BFF20022EE53D602A7E00BC
:100133008E827583001204C660060EEE653E70F073
:10014300C2D5EBC0E0EAC0E0E9C0E0EE120296D00F
:10015300E0F9D0E0FAD0E0FB1204ADFF60AAEBC0F7
:10016300E0EAC0E0E9C0E012003ED0E02401F9D0AB
:10017300E03400FAD0E0FBE53E0460DCD53ED980F4
:10018300877BFF7A027992D202809C791080027970
:1001930008C206C2088008D2D5790A8004790AC247
:1001A300D5E53E047002F53EE4FAFDFEFF120003BE
:1001B300FC7B08200113120003FD7B1030000A12A0
:1001C3000003FE120003FF7B20EC3382D592D5504F
:1001D30013C3E43000069FFFE49EFEE42001039D69
:1001E300FDE49CFCE4CBF8C201EC700CCFCECDCC8B
:1001F300E824F8F870F38017C3EF33FFEE33FEED16
:1002030033FDEC33FCEB33FB994002FB0FD8E9EBF6
:10021300300105F8D0E0C448B201C0E00AEC4D4E0D
:100223004F78207B0070C2EAB53E0040BCC0E012AC
:100233000298D0F0D0E0200104C4C0E0C4B201C0F1
:10024300F0120027D0F0D5F0EB020077120503017E
:100253001453018E5800E54C00E14201924F019A7C
:0F02630044019A4900FA4301A0550184460184E1
:100272004501844703405000E92D00ED2E01102B6B
:1002820000F123010E2003292A00A94800000108D9
:100292003F3F3F00790AA2D5200314300509B91067
:1002A200020404B9080104A2D52006025001042068
:1002B20002689202B53D005034C0E07F203003193D
:1002C2007F30A20272067205500F1202EFC202C202
:1002D20006C205C2087F30800F300503E9C0E01274
:1002E200003E300503D0E0F9D0E0B53DCC30051733
:1002F2007F30B9100C12003E7F583004077F78809F
:1003020003B9080312003E3002057F2D02003E7F32
:10031200202008F87F2B2006F322920280CF286E3D
:10032200756C6C2900D2011200033001F8C2017809
:100332003D30D50108F60200A92D5043495812005C
:10034200032403B405004001E490033B9312002F01
:0D035200743A12002FD203753D0402018E93
:1004AD00BB010689828A83E0225002E722BBFE024D
:0904BD00E32289828A83E4932280
:1004C600BB010CE58229F582E5833AF583E02250EB
:1004D60006E92582F8E622BBFE06E92582F8E22235
:0D04E600E58229F582E5833AF583E493224F
:1004F300FAE6FB0808E6F925F0F618E6CA3AF6220A
:10050300D083D082F8E4937012740193700DA3A387
:1005130093F8740193F5828883E47374029368609B
:06052300EFA3A3A380DF9B
:10112600EFB40A07740D121131740A309811A89998
:10113600B8130CC2983098FDA899C298B811F63029
:0711460099FDC299F5992201
:00000001FF
