:100DA300436865636B204572726F720A00577269FC
:100DB30074652064617461204572726F7220310A18
:100DC3000057726974652064617461204572726FA3
:100DD3007220320A005265616420646174612045A7
:100DE30072726F7220330A00526561642064617409
:100DF30061204572726F7220340A0052656164206B
:100E030064617461204572726F7220350A00436F0A
:100E13006465207465737420504153530A00446120
:100E2300746120726561643A202564202564203052
:0D0E330078253278203078253278200A00AA
:10052900E4F522F523F524F52553B3FB43B404C2BE
:1005390092FF7EC27D01FC120E40D2991211A97F51
:10054900A0120BC74025D2927FF47E017D007C006A
:10055900121046C2927FF47E017D007C0012104683
:100569007BFF7A0D79A312006580DB7F027E007D17
:10057900007C001210467DD27C047F021206D24014
:1005890025D2927FF47E017D007C00121046C29232
:100599007FF47E017D007C001210467BFF7A0D7985
:1005A900B012006580DB7F027E007D007C001210A6
:1005B900467D2E7C167F041206D24025D2927FF406
:1005C9007E017D007C00121046C2927FF47E017D7F
:1005D900007C001210467BFF7A0D79C412006580F9
:1005E900DB7F027E007D007C001210467B007A00D2
:1005F90079227F06120AC540167FE87E037D007CBA
:10060900001210467BFF7A0D79D812006580EA7BCB
:10061900007A0079237F07120AC540167FE87E0316
:100629007D007C001210467BFF7A0D79EB12006584
:1006390080EA7B007A0079287F0412083440167F0B
:10064900E87E037D007C001210467BFF7A0D79FE5F
:1006590012006580EA7B007A0079267F0612083449
:1006690040167FE87E037D007C001210467BFF7AEE
:100679000D79FE12006580EA7FF47E017D007C0021
:100689001210467BFF7A0E7911120065D2927FF41F
:100699007E017D007C00121046C2927FF47E017DAE
:1006A900007C001210467BFF7A0E792185262D8564
:1006B900272E85282F8529307531008522327533FB
:0906C9000085233412006580C392
:1011A90075BE2753B3F753B4F753B3EF53B4EFD224
:0611B90093D294D2C6227D
:020CBB008F2D7B
:100CBD00AFBDEF64F86002C322C2C4D2C5C2C390F7
:100CCD000003E4F0A304F0E4A3F020C3219000039B
:100CDD00E07002A3E0700790000504F08010900012
:100CED0004E004F070E4900003E004F080DC900078
:100CFD0005E06003020D9AAFBDEF64086003020DBD
:100D0D009AC2C5C2C475BCA0C2C3900003E4F0A3CF
:100D1D0004F0E4A3F020C321900003E07002A3E0EF
:100D2D00700790000504F08010900004E004F0704E
:100D3D00E4900003E004F080DC900005E0600280A8
:100D4D004CAFBDEF641860028043852DBCC2C390CB
:100D5D000003E4F0A304F0E4A3F020C3219000030A
:100D6D00E07002A3E0700790000504F08010900081
:100D7D0004E004F070E4900003E004F080DC9000E7
:100D8D0005E060028007AFBDEF642860051210DC3E
:050D9D00C3221210DC6E
:010DA200222E
:040994008F3E8D3FC6
:10099800AFBDEF64F86002C322C2C4D2C5C2C3901F
:1009A8000009E4F0A304F0E4A3F020C321900009B7
:1009B800E07002A3E0700790000B04F08010900034
:1009C8000AE004F070E4900009E004F080DC900094
:1009D8000BE06003020ABCAFBDEF64086003020AC3
:1009E800BCC2C5C2C475BCA0C2C3900009E4F0A3D0
:1009F80004F0E4A3F020C321900009E07002A3E012
:100A0800700790000B04F0801090000AE004F0706A
:100A1800E4900009E004F080DC90000BE060030241
:100A28000ABCAFBDEF64186003020ABC853EBCC2B5
:100A3800C3900009E4F0A304F0E4A3F020C32190DC
:100A48000009E07002A3E0700790000B04F080102A
:100A580090000AE004F070E4900009E004F080DC03
:100A680090000BE06002804CAFBDEF64286002800C
:100A780043853FBCC2C3900009E4F0A304F0E4A39B
:100A8800F020C321900009E07002A3E070079000F5
:100A98000B04F0801090000AE004F070E490000964
:100AA800E004F080DC90000BE060028007AFBDEF4F
:0C0AB800642860051210DCC3221210DC60
:010AC400220F
:0606D2008F2A8C2B8D2CF9
:1006D800AFBDEF64F86002C322C2C4D2C5C2C390E2
:1006E8000002E4F0A304F0E4900001F020C321909C
:1006F8000002E07002A3E0700790000104F080108F
:10070800900003E004F070E4900002E004F080DC64
:10071800900001E06003020823AFBDEF64086003A6
:10072800020823C2C5C2C475BCA0C2C3900002E4BB
:10073800F0A304F0E4900001F020C321900002E04F
:100748007002A3E0700790000104F080109000038D
:10075800E004F070E4900002E004F080DC90000116
:10076800E06003020823AFBDEF64186003020823AA
:10077800852ABCC2C3900002E4F0A304F0E4900010
:1007880001F020C321900002E07002A3E0700790FE
:10079800000104F08010900003E004F070E4900081
:1007A80002E004F080DC900001E06002806DAFBDE3
:1007B800EF642860028064E4900000F0900000E09C
:1007C800FF7E00C3940274809480505CEF7006E54D
:1007D8002BF5BC8004E52CF5BCC2C3900002E4F004
:1007E800A304F0E4900001F020C321900002E0701F
:1007F80002A3E0700790000104F08010900003E06D
:1008080004F070E4900002E004F080DC900001E065
:1008180060028007AFBDEF642860051210DCC322B8
:0B082800900000E004F080941210DC4F
:0108330022A2
:060AC5008B2A8A2B892C0C
:100ACB00120CBB400122AFBDEF64F86002C322C21F
:100ADB00C4D2C5C2C3900001E4F0A304F0E49000BB
:100AEB0000F020C321900001E07002A3E07007909A
:100AFB00000004F08010900002E004F070E490001D
:100B0B0001E004F080DC900000E06003020BB3AF67
:100B1B00BDEF64086003020BB3C2C5C2C475BCA1B0
:100B2B00C2C3900001E4F0A304F0E4900000F020B5
:100B3B00C321900001E07002A3E070079000000455
:100B4B00F08010900002E004F070E4900001E004EB
:100B5B00F080DC900000E06002804DAFBDEF6440A0
:100B6B0060028044C2C2C2C3900001E4F0A304F04F
:100B7B00E4900000F020C321900001E07002A3E09C
:100B8B00700790000004F08010900002E004F070F9
:100B9B00E4900001E004F080DC900000E060028053
:100BAB0007AFBDEF645860051210DCC322AB2AAA55
:0B0BBB002BA92CE5BC12035F1210DC1C
:010BC600220C
:060834008B2A8A2B892C9F
:10083A00120CBB400122AFBDEF64F86002C322C2B2
:10084A00C4D2C5C2C3900001E4F0A304F0E490004E
:10085A0000F020C321900001E07002A3E07007902D
:10086A00000004F08010900002E004F070E49000B0
:10087A0001E004F080DC900000E06003020978AF38
:10088A00BDEF64086003020978C2C5C2C475BCA181
:10089A00C2C3900001E4F0A304F0E4900000F02049
:1008AA00C321900001E07002A3E0700790000004E9
:1008BA00F08010900002E004F070E4900001E0047F
:1008CA00F080DC900000E06003020978AFBDEF64BD
:1008DA00406003020978D2C2C2C3900001E4F0A3C7
:1008EA0004F0E4900000F020C321900001E07002BF
:1008FA00A3E0700790000004F08010900002E0046A
:10090A00F070E4900001E004F080DC900000E06008
:10091A0002805BAFBDEF645060028052AFBCAB2A6D
:10092A00AA2BA92CE48FF012039CC2C2C2C3900066
:10093A0001E4F0A304F0E4900000F020C321900049
:10094A0001E07002A3E0700790000004F0801090AC
:10095A000002E004F070E4900001E004F080DC9012
:10096A000000E060028007AFBDEF64586005121016
:10097A00DCC322AB2AAA2BA92C120371FFADBCED52
:09098A00CF8FF012039C1210DC67
:010993002241
:020BC7008F2A73
:100BC900AFBDEF64F86002C322C2C4D2C5C2C390EC
:100BD9000000E4F0A304F0E4A3F020C32190000096
:100BE900E07002A3E0700790000204F0801090000A
:100BF90001E004F070E4900000E004F080DC900073
:100C090002E06003020CA8AFBDEF64086003020CA8
:100C1900A8C2C5C2C4E52A4401F5BCC2C3900000FC
:100C2900E4F0A304F0E4A3F020C321900000E070F5
:100C390002A3E0700790000204F08010900001E028
:100C490004F070E4900000E004F080DC900002E021
:100C59006002804BAFBDEF644060028042C2C2C2F5
:100C6900C3900000E4F0A304F0E4A3F020C32190B2
:100C79000000E07002A3E0700790000204F0801009
:100C8900900001E004F070E4900000E004F080DCE2
:100C9900900002E060028007AFBDEF645860051262
:100CA90010DCC322AFBC900000E4F0A3EFF01210F7
:010CB900DC5E
:010CBA002217
:1010DC00C2C5D2C4C2C3900006E4F0A304F0E4A3DA
:1010EC00F0AFBDEF64F86021900006E07002A3E061
:1010FC00700790000804F08010900007E004F07076
:10110C00E0900006E004F080D8900008E024FFB3E3
:01111C0022B0
:10111D0053B1BF53B2BF53B17F53B27F7598504394
:10112D008920438780438E1053C4DFAB07AA06A9DD
:10113D0005A8047F407E427D0F7C001203F7EF046B
:09114D00F404F58DD28ED2992232
:100E40008F2D8E2C8D2B8C2A53B1BF53B2BF53B133
:100E50007F53B27F75985043878053C4F843C420B2
:100E6000AB2DAA2CA92BA82A7F407E427D0F7C00A7
:100E70001203F7C374FF9FFF74FF9EFEE49DFDE421
:100E80009CFC780812049A8FC6AB2DAA2CA92BA81B
:100E90002A7F407E427D0F7C001203F7C374FF9FC0
:090EA000FF8FC543C408D299225A
:0711BF003098FDAF99C298C2
:0111C6002206
:0811C700C2998F993099FD22B5
:100EA9008F0B8E0A8D098C0853B1FB53B2FB53B3D8
:100EB900BF53B4BF75F85075C40853C4DFAB0BAA50
:100EC9000AA909A8087F407E427D0F7C001203F71A
:100ED900C374FF9FFF74FF9EFEE49DFDE49CFC78B4
:100EE9000812049A8FC6AB0BAA0AA909A8087F4061
:100EF9007E427D0F7C001203F7C374FF9FFF8FC5ED
:040F090043C40822B3
:0711CF0030F8FDAF9AC2F8F1
:0111D60022F6
:0811D700C2F98F9A30F9FD22E4
:100FFB008F0F8E0E8D0D8C0C538EF7438901D28C77
:10100B00E4FFFEFDFCAB0FAA0EA90DA80CC3120446
:10101B00896025758A7E758CFF308DFDC28DE50F3D
:10102B0024FFF50FE50E34FFF50EE50D34FFF50D3E
:0B103B00E50C34FFF50C80C8C28C22CD
:101046008F2D8E2C8D2B8C2A538EF7438901D28CB3
:10105600E4FFFEFDFCAB2DAA2CA92BA82AC3120483
:10106600896025758ACA758CFA308DFDC28DE52D8D
:1010760024FFF52DE52C34FFF52CE52B34FFF52B5D
:0B108600E52A34FFF52A80C8C28C2246
:101091008F138E128D118C10538EEF438910D28EC7
:1010A100E4FFFEFDFCAB13AA12A911A810C31204A0
:1010B100896025758BEA758DCB308FFDC28FE51365
:1010C10024FFF513E51234FFF512E51134FFF51194
:0B10D100E51034FFF51080C8C28E222D
:100FAD008F178E168D158C1453C9BF53C9DF43C9C6
:100FBD0010D2CAE4FFFEFDFCAB17AA16A915A814A2
:100FCD00C3120489602575CC3075CDF830CFFDC2C4
:100FDD00CFE51724FFF517E51634FFF516E51534A3
:0E0FED00FFF515E51434FFF51480C8C2CA22C2
:100F0D008F1B8E1A8D198C1875C40743C408E4FF06
:100F1D00FEFDFCAB1BAA1AA919A818C312048960FF
:100F2D002B75C52C75C6CFE5C45410641070F853DD
:100F3D00C4EFE51B24FFF51BE51A34FFF51AE5197F
:100F4D0034FFF519E51834FFF51880C253C4F722A4
:100F5D008F1F8E1E8D1D8C1C75C40743C408E4FFA6
:100F6D00FEFDFCAB1FAA1EA91DA81CC3120489609F
:100F7D002B75C5D875C6FFE5C45410641070F853B1
:100F8D00C4EFE51F24FFF51FE51E34FFF51EE51D1B
:100F9D0034FFF51DE51C34FFF51C80C253C4F72248
:0300000002115694
:1011560075C7AA75C75575FD5A75C7AA75C755755A
:10116600FDA5787FE4F6D8FD9000007FFF7E03E4BE
:0C117600F0A3DFFCDEFA75813F020529C2
:10035F00BB010689828A83F0225002F722BBFE017D
:02036F00F32277
:10037100BB010A89828A83E0F5F0A3E02250068757
:10038100F009E71922BBFE07E3F5F009E319228919
:0B039100828A83E493F5F0740193224C
:10039C00BB010A89828A83F0E5F0A3F0225006F7AC
:0F03AC0009A7F01922BBFE06F3E5F009F31922A9
:1003BB0075F008758200EF2FFFEE33FECD33CDCCF9
:1003CB0033CCC58233C5829BED9AEC99E58298407C
:1003DB000CF582EE9BFEED9AFDEC99FC0FD5F0D659
:1003EB00E4CEFBE4CDFAE4CCF9A88222B800C1B983
:1003FB000059BA002DEC8BF084CFCECDFCE5F0CBC1
:10040B00F97818EF2FFFEE33FEED33FDEC33FCEBF9
:10041B0033FB10D703994004EB99FB0FD8E5E4F9B4
:10042B00FA227818EF2FFFEE33FEED33FDEC33FCA1
:10043B00C933C910D7059BE99A4007EC9BFCE99A95
:10044B00F90FD8E0E4C9FAE4CCFB2275F010EF2FDA
:10045B00FFEE33FEED33FDCC33CCC833C810D707DA
:10046B009BEC9AE899400AED9BFDEC9AFCE899F815
:0E047B000FD5F0DAE4CDFBE4CCFAE4C8F922A8
:10048900EB9FF5F0EA9E42F0E99D42F0E89C45F0C9
:010499002240
:10049A00E8600FECC313FCED13FDEE13FEEF13FF40
:0304AA00D8F12264
:10000300E539242DF8E6053922782A300702782DC0
:10001300E475F0011204F30204AD2000EB7F2ED24D
:10002300008018EF540F2490D43440D4FF30040BD5
:10003300EF24BFB41A0050032461FFE53A600215B0
:100043003A053DE53D7002053C30070D782AE4751D
:10005300F0011204F3EF02035F0211827403D2076B
:100063008003E4C207F5398B2A8A2B892CE4F53AFD
:10007300F53CF53DE53A60077F2012003E80F575BB
:100083003BFFC201C200C202C203C205C206C208CC
:1000930012000CFF700D3007057F0012004FAF3DBB
:1000A300AE3C22B4255FC2D5C20412000CFF24D09B
:1000B300B40A00501A75F00A783A30D50508B6FF2D
:1000C3000106C6A426F620D5047002D20380D924E3
:1000D300CFB41A00EF5004C2E5D20402024FD2019A
:1000E30080C6D20080C0D20280BCD2D580BAD205ED
:1000F30080B47F2012003E2002077401B53A00400D
:10010300F1120003FF12003E020077D208D20680EC
:1001130095120003FB120003FA120003F94A4B7015
:100123000679207A037BFF20022EE53A602A7E00BF
:100133008E827583001204C660060EEE653B70F076
:10014300C2D5EBC0E0EAC0E0E9C0E0EE120296D00F
:10015300E0F9D0E0FAD0E0FB1204ADFF60AAEBC0F7
:10016300E0EAC0E0E9C0E012003ED0E02401F9D0AB
:10017300E03400FAD0E0FBE53B0460DCD53BD980FA
:10018300877BFF7A027992D202809C791080027970
:1001930008C206C2088008D2D5790A8004790AC247
:1001A300D5E53B047002F53BE4FAFDFEFF120003C4
:1001B300FC7B08200113120003FD7B1030000A12A0
:1001C3000003FE120003FF7B20EC3382D592D5504F
:1001D30013C3E43000069FFFE49EFEE42001039D69
:1001E300FDE49CFCE4CBF8C201EC700CCFCECDCC8B
:1001F300E824F8F870F38017C3EF33FFEE33FEED16
:1002030033FDEC33FCEB33FB994002FB0FD8E9EBF6
:10021300300105F8D0E0C448B201C0E00AEC4D4E0D
:100223004F78207B0070C2EAB53B0040BCC0E012AF
:100233000298D0F0D0E0200104C4C0E0C4B201C0F1
:10024300F0120027D0F0D5F0EB020077120503017E
:100253001453018E5800E54C00E14201924F019A7C
:0F02630044019A4900FA4301A0550184460184E1
:100272004501844703405000E92D00ED2E01102B6B
:1002820000F123010E2003292A00A94800000108D9
:100292003F3F3F00790AA2D5200314300509B91067
:1002A200020404B9080104A2D52006025001042068
:1002B20002689202B53A005034C0E07F2030031940
:1002C2007F30A20272067205500F1202EFC202C202
:1002D20006C205C2087F30800F300503E9C0E01274
:1002E200003E300503D0E0F9D0E0B53ACC30051736
:1002F2007F30B9100C12003E7F583004077F78809F
:1003020003B9080312003E3002057F2D02003E7F32
:10031200202008F87F2B2006F322920280CF286E3D
:10032200756C6C2900D2011200033001F8C2017809
:100332003A30D50108F60200A92D5043495812005F
:10034200032403B405004001E490033B9312002F01
:0D035200743A12002FD203753A0402018E96
:1004AD00BB010689828A83E0225002E722BBFE024D
:0904BD00E32289828A83E4932280
:1004C600BB010CE58229F582E5833AF583E02250EB
:1004D60006E92582F8E622BBFE06E92582F8E22235
:0D04E600E58229F582E5833AF583E493224F
:1004F300FAE6FB0808E6F925F0F618E6CA3AF6220A
:10050300D083D082F8E4937012740193700DA3A387
:1005130093F8740193F5828883E47374029368609B
:06052300EFA3A3A380DF9B
:10118200EFB40A07740D12118D740A309811A899E0
:10119200B8130CC2983098FDA899C298B811F630CD
:0711A20099FDC299F59922A5
:00000001FF
