:081E0500FFFFFFFF00000000D9
:1019C7000126000127000128000129000125010245
:1019D700230000C101C100C102C109410023004425
:1019E700000C00000000C108C107C103C104C10504
:0919F700C10644000800000000D4
:0B14C9008E238F24120003AF24AE23FB
:0414D400AB07AA06B2
:1014D8007C037DE812066B900034EEF0A3EFF07CFD
:1014E800007D64AF03AE0212066B7C007D0A120613
:1014F8006BA3ECF0A3EDF07C007D64AF03AE0212A9
:10150800066B7E007F0ACFCDCFCECCCE12066BA362
:10151800EEF0A3EFF0AE02AF037C007D0A12066B7B
:10152800A3ECF0A3EDF078097C007D007BFF7A1E28
:1015380079057E007F041205CB900034A3E0FF12EA
:101548001DE28F09900036A3E0FF121DE28F0A907A
:101558000038A3E0FF121DE28F0B90003AA3E0FFD2
:10156800121DE28F0C7512007513007514097B00AB
:071578007A00792A02176DC9
:091DFC003098037F01227F0022D0
:041E2D00AF99C2980F
:011E3100228E
:041B52008F098D0A60
:101B5600780B7C007D007BFF7A1E79097E007F046E
:101B66001205CB7F0E121DE28F0BAF09121DE28FFD
:101B76000CE4F50DAF0A121DE28F0E7512007513F7
:101B86000075140B7B007A00792A12176D7FF47E9C
:081B9600017D007C00021BE947
:10000300E526900014F0E527900016F0E52890000F
:1000130018F0E52990001AF0E523A3F0E524A3F0F6
:07002300E52590001EF0220C
:03002B00021B05B0
:101B0500C0E0C0F0C083C082C0D075D000C000C0A6
:101B150004C005C006C007C2CF900008E0FCA3E0E2
:101B2500FDA3E0FEA3E02401FFE43EFEE43DFDE469
:101B35003CFC9000081207DDD007D006D005D00484
:0D1B4500D000D0D0D082D083D0F0D0E032DC
:10002E007F807E257D007C001217E1121DCC7B00A7
:10003E007A007926E4FF1210F87B007A0079277F88
:10004E00011210F87B007A0079287F021210F87BDB
:10005E00007A0079297F031210F87B007A00792547
:10006E007F061210F87B007A0079237F04120BD0E2
:10007E00AF25121E1543C91053C99F53C8FE43C95D
:10008E008043C90875CA6075CBF0E4F5CDF5CCD2C6
:10009E00CA439B80D2AF7D027F041212EE7D027F97
:1000AE000A1212EE7D02E4FF1212EE7D027F03129F
:1000BE0012EE7D027F011212EE7D027F021212EE0F
:1000CE007B007A00792A750D0C7D0B1219737F64F3
:1000DE007E007D007C00121BE97B007A00792A7D70
:1000EE000F121DF11214D0E525900010F0A3740329
:1000FE00F0A3740CF0E4A3F0900015F0900017F04C
:10010E00900019F090001DF0120003900008E0FC22
:10011E00A3E0FDA3E0FEA3E0FF90001F1207DD9019
:10012E000008E0FCA3E0FDA3E0FEA3E0FF90000CBE
:10013E001207DD7F041216DB4044200841D208E589
:10014E0024940FE52394274006AE23AF248009E5BF
:10015E00242401FFE43523FE1214C97FC87E007DDE
:10016E00007C00121BE9AD24AC237F04120D3A5023
:10017E00167F017E007D007C00121BE980097F0442
:10018E001216DB5002C2087F0A1216DB404120070E
:10019E003ED207E52445237006AE23AF24800AE540
:1001AE002424FFFFE52334FFFE1214C97FC87E000E
:1001BE007D007C00121BE9AD24AC237F04120D3AA6
:1001CE0050167F017E007D007C00121BE980097FA6
:1001DE000A1216DB5002C207E4FF1216DB40402063
:1001EE00033DD203E52664017003FF80027F018F79
:1001FE0026120003AD267F01121B52AD26E4FF121C
:10020E000E9E500B7F017E007D007C00121BE97F4D
:10021E00C87E007D007C00121BE91214D08009E418
:10022E00FF1216DB5002C2037F031216DB40402082
:10023E00043DD204E52764017003FF80027F018F25
:10024E0027120003AD277F02121B52AD277F01122A
:10025E000E9E500B7F017E007D007C00121BE97FFD
:10026E00C87E007D007C00121BE91214D080097F2D
:10027E00031216DB5002C2047F011216DB4040202F
:10028E00053DD205E52864017003FF80027F018FD2
:10029E0028120003AD287F03121B52AD287F0212D5
:1002AE000E9E500B7F017E007D007C00121BE97FAD
:1002BE00C87E007D007C00121BE91214D080097FDD
:1002CE00011216DB5002C2057F021216DB404020DF
:1002DE00063DD206E52964017003FF80027F018F7F
:1002EE0029120003AD297F04121B527FC87E007DA8
:1002FE00007C00121BE91214D0AD297F03120E9E52
:10030E0050167F017E007D007C00121BE980097F64
:10031E00021216DB5002C20690001FE0F8A3E0F9AD
:10032E00A3E0FAA3E0FB900008E0FCA3E0FDA3E04D
:10033E00FEA3E0C39BFFEE9AFEED99FDEC98FCE464
:10034E007BD07A07F9F8D31207B95016900008E05F
:10035E00FCA3E0FDA3E0FEA3E0FF90001F1207DD6B
:0B036E00B292121DFCEF70030201416F
:10037900121E2D8F0890000CE0F8A3E0F9A3E0FA13
:10038900A3E0FB900008E0FCA3E0FDA3E0FEA3E0EE
:10039900C39BFFEE9AFEED99FDEC98FCE47B1EFAF7
:1003A900F9F8C31207B95019900008E0FCA3E0FD61
:1003B900A3E0FEA3E0FF90000C1207DDE490002308
:1003C900F0900023E02400F582E43400F583E50889
:1003D900F0900023E004F0E0C39408748094805006
:1003E90003020141E4F0900000E065256003020189
:1003F90041A3E06403700E7B017A0079107D0F122E
:1004090018AE020141900001E06406600302014157
:10041900900003E0701C900005E0F526AD267F01F1
:10042900121B52AD26E4FF120E9E40030204DC02A9
:1004390004D1900003E06401701B900005E0F527EA
:10044900AD277F02121B52AD277F01120E9E40037A
:100459000204DC8073900003E064027018900005C8
:10046900E0F528AD287F03121B52AD287F02120E3A
:100479009E50608053900003E0640370189000055B
:10048900E0F529AD297F04121B52AD297F03120E15
:100499009E50408033900003E0FD7C006404700EA0
:1004A900A3E0FEA3E0FBEEF523EBF5248025ED6444
:1004B900054C701F900005E0F525E525900010F02A
:1004C900FD7F06120E9E500B7F017E007D007C0091
:1004D900121BE91214CDAD24AC237F04120D3A404E
:0F04E900030201417F017E007D007C00121BE9B0
:0304F800020141BD
:1012EE00C20AEFFB640870030213E0EB640970039B
:1012FE000213E0C3EB94127480948040030213E057
:10130E00EDFB7A0094037480948040030213E0EFA7
:10131E00C3940A748094804003D38001C3920AEF71
:10132E0075F00A84AFF0EB4A7024300A10A8070457
:10133E00088002C333D8FCF452B352B422A8077407
:10134E0001088002C333D8FCF452B152B222EDFB35
:10135E007A0064017024300A10A80704088002C3C2
:10136E0033D8FCFEF452B38054A8077401088002EF
:10137E00C333D8FCFEF452B18055EB64024A702898
:10138E00300A12A80704088002C333D8FCFE42B309
:10139E00EEF452B422A8077401088002C333D8FCBD
:1013AE00FE42B1EEF452B222ED64037025300A1102
:1013BE00A80704088002C333D8FCFE42B3EE42B441
:1013CE0022A8077401088002C333D8FCFE42B1EE96
:0213DE0042B219
:0113E00022EA
:1016DB00EFFD7C007003A28022ED64014C7003A22D
:1016EB008122ED64024C7003A28222ED64034C70E4
:1016FB0003A28322ED64044C7003A28422ED6405E3
:10170B004C7003A28522ED64064C7003A28622ED79
:10171B0064074C7003A28722ED640A4C7003A290FD
:10172B0022ED640B4C7003A29122ED640C4C700300
:10173B00A29222ED640D4C7003A29322ED640E4C29
:10174B007003A29422ED640F4C7003A29522ED64FA
:10175B00104C7003A29622ED64114C7003A29722D9
:02176B00C32297
:10157F00EFFD7C007005A20A928022ED64014C7091
:10158F0005A20A928122ED64024C7005A20A928292
:10159F0022ED64034C7005A20A928322ED64044C81
:1015AF007005A20A928422ED64054C7005A20A927E
:1015BF008522ED64064C7005A20A928622ED64071F
:1015CF004C7005A20A928722ED640A4C7005A20A9C
:1015DF00929022ED640B4C7005A20A929122ED6459
:1015EF000C4C7005A20A929222ED640D4C7005A26C
:1015FF000A929322ED640E4C7005A20A929422ED8A
:10160F00640F4C7005A20A929522ED64104C700580
:10161F00A20A929622ED64114C7004A20A929722AC
:101DB100526561643120777269746520616464726F
:0B1DC100657373204572726F720A0098
:101DCC0075BE2753B3F753B4F753B3EF53B4EFD2F5
:061DDC0093D294D2C6224E
:0213E1008F0C6F
:1013E300AFBDEF64F86002C322C2C4D2C5C2C390CA
:1013F3000037E4F0A304F0E4A3F020C32190003706
:10140300E07002A3E0700790003904F080109000B0
:1014130038E004F070E4900037E004F080DC9000E2
:1014230039E060030214C0AFBDEF64086003021427
:10143300C0C2C5C2C475BCA0C2C3900037E4F0A348
:1014430004F0E4A3F020C321900037E07002A3E08E
:10145300700790003904F08010900038E004F070B9
:10146300E4900037E004F080DC900039E060028013
:101473004CAFBDEF641860028043850CBCC2C390BF
:101483000037E4F0A304F0E4A3F020C32190003775
:10149300E07002A3E0700790003904F08010900020
:1014A30038E004F070E4900037E004F080DC900052
:1014B30039E060028007AFBDEF64286005121CC8E5
:0514C300C322121CC849
:0114C8002201
:040E9E008F098D0A21
:100EA200AFBDEF64F86002C322C2C4D2C5C2C39010
:100EB2000034E4F0A304F0E4A3F020C32190003452
:100EC200E07002A3E0700790003604F080109000FA
:100ED20035E004F070E4900034E004F080DC90002F
:100EE20036E06003020FC6AFBDEF64086003020F75
:100EF200C6C2C5C2C475BCA0C2C3900034E4F0A38C
:100F020004F0E4A3F020C321900034E07002A3E0D7
:100F1200700790003604F08010900035E004F07005
:100F2200E4900034E004F080DC900036E0600302DC
:100F32000FC6AFBDEF64186003020FC68509BCC2BD
:100F4200C3900034E4F0A304F0E4A3F020C32190A2
:100F52000034E07002A3E0700790003604F08010C5
:100F6200900035E004F070E4900034E004F080DC9E
:100F7200900036E06002804CAFBDEF6428600280D2
:100F820043850ABCC2C3900034E4F0A304F0E4A396
:100F9200F020C321900034E07002A3E070079000BB
:100FA2003604F08010900035E004F070E4900034D4
:100FB200E004F080DC900036E060028007AFBDEF15
:0C0FC20064286005121CC8C322121CC861
:010FCE002200
:020D3A008F091F
:100D3C00900036ECF0EDA3F0AFBDEF64F86002C3A9
:100D4C0022C2C4D2C5C2C3900038E4F0A304F0E4BC
:100D5C00900035F020C321900038E07002A3E070C1
:100D6C000790003504F08010900039E004F070E436
:100D7C00900038E004F080DC900035E06003020E57
:100D8C008DAFBDEF64086003020E8DC2C5C2C47581
:100D9C00BCA0C2C3900038E4F0A304F0E49000358A
:100DAC00F020C321900038E07002A3E0700790009F
:100DBC003504F08010900039E004F070E4900038B5
:100DCC00E004F080DC900035E06003020E8DAFBDD6
:100DDC00EF64186003020E8D8509BCC2C390003805
:100DEC00E4F0A304F0E4900035F020C32190003827
:100DFC00E07002A3E0700790003504F080109000C2
:100E0C0039E004F070E4900038E004F080DC9000ED
:100E1C0035E06002806BAFBDEF642860028062E455
:100E2C00900034F0900034E0FFC3940274809480FE
:100E3C00505C74362FF582E43400F583E0F5BCC2C7
:100E4C00C3900038E4F0A304F0E4900035F020C324
:100E5C0021900038E07002A3E0700790003504F098
:100E6C008010900039E004F070E4900038E004F059
:100E7C0080DC900035E060028007AFBDEF64286035
:100E8C0005121CC8C322900034E004F08096121C9A
:010E9C00C88D
:010E9D002232
:0610F8008B098A0A890B36
:1010FE001213E1400122AFBDEF64F86002C322C2B9
:10110E00C4D2C5C2C3900035E4F0A304F0E490004D
:10111E0034F020C321900035E07002A3E0700790F8
:10112E00003404F08010900036E004F070E490007B
:10113E0035E004F080DC900034E060030211E6AF8D
:10114E00BDEF640860030211E6C2C5C2C475BCA13E
:10115E00C2C3900035E4F0A304F0E4900034F02014
:10116E00C321900035E07002A3E0700790003404B4
:10117E00F08010900036E004F070E4900035E0044A
:10118E00F080DC900034E06002804DAFBDEF644033
:10119E0060028044C2C2C2C3900035E4F0A304F0E2
:1011AE00E4900034F020C321900035E07002A3E0FB
:1011BE00700790003404F08010900036E004F07058
:1011CE00E4900035E004F080DC900034E0600280B2
:1011DE0007AFBDEF64586005121CC8C322AB09AA45
:0B11EE000AA90BE5BC120637121CC852
:0111F90022D3
:060BD0008B098A0A890B63
:100BD6001213E1400B7BFF7A1D79B11208D6C322AE
:100BE600AFBDEF64F86002C322C2C4D2C5C2C390CF
:100BF6000035E4F0A304F0E4900034F020C3219023
:100C06000035E07002A3E0700790003404F0801015
:100C1600900036E004F070E4900035E004F080DCEB
:100C2600900034E06003020D1EAFBDEF6408600360
:100C3600020D1EC2C5C2C475BCA1C2C3900035E474
:100C4600F0A304F0E4900034F020C321900035E0D6
:100C56007002A3E0700790003404F0801090003614
:100C6600E004F070E4900035E004F080DC9000349D
:100C7600E06003020D1EAFBDEF64406003020D1E6F
:100C8600D2C2C2C3900035E4F0A304F0E49000346D
:100C9600F020C321900035E07002A3E070079000B9
:100CA6003404F08010900036E004F070E4900035D3
:100CB600E004F080DC900034E06002805BAFBDEFC2
:100CC600645060028052AFBCAB09AA0AA90BE48F3C
:100CD600F01206CCC2C2C2C3900035E4F0A304F001
:100CE600E4900034F020C321900035E07002A3E0C8
:100CF600700790003404F08010900036E004F07025
:100D0600E4900035E004F080DC900034E06002807E
:100D160007AFBDEF64586005121CC8C322AB09AA11
:100D26000AA90B1206A1FFADBCEDCF8FF01206CCBF
:030D3600121CC8C4
:010D39002297
:0211FA008F4420
:1011FC00AFBDEF64F86002C322C2C4D2C5C2C390B3
:10120C000044E4F0A304F0E4A3F020C321900044D4
:10121C00E07002A3E0700790004604F0801090008C
:10122C0045E004F070E4900044E004F080DC9000B1
:10123C0046E060030212DBAFBDEF640860030212EC
:10124C00DBC2C5C2C4E5444401F5BCC2C390004432
:10125C00E4F0A304F0E4A3F020C321900044E07078
:10126C0002A3E0700790004604F08010900045E067
:10127C0004F070E4900044E004F080DC900046E060
:10128C006002804BAFBDEF644060028042C2C2C2BC
:10129C00C3900044E4F0A304F0E4A3F020C3219035
:1012AC000044E07002A3E0700790004604F0801048
:1012BC00900045E004F070E4900044E004F080DC21
:1012CC00900046E060028007AFBDEF6458600512E5
:1012DC001CC8C322AFBC900044E4F0A3EFF0121C76
:0112EC00C839
:0112ED0022DE
:101CC800C2C5D2C4C2C390003AE4F0A304F0E4A3AE
:101CD800F0AFBDEF64F8602190003AE07002A3E035
:101CE800700790003C04F0801090003BE004F07016
:101CF800E090003AE004F080D890003CE024FFB384
:011D080022B8
:0818AE008B098A0A890B8D0CDD
:1018B600E4F50DE50DC3950C5022AB09AA0AA90B58
:1018C600850D8275830012060AFF121E157F017EA2
:1018D600007D007C00121BE9050D80D7AB09AA0A22
:1018E600A90BAD0C1219118E0E8F0FEF121E157F5C
:1018F600017E007D007C00121BE9E50EFF121E151D
:0B1906007F017E007D007C00021BE9D9
:081911008B108A1189128D135D
:1019190074FFF514F515E4FDEDC395135047AB10AD
:10192900AA11A9128D8275830012060A6215E4FCB8
:10193900ECC39408748094805028E51530E015E5CF
:1019490014C313FEE51513FFEE64A0F514EF64014B
:10195900F515800BE514C313F514E51513F5150CEE
:0919690080CE0D80B3AE14AF1561
:011972002252
:041E320000000000AC
:101A00005000243F065B4F666D7D077F6F777C3902
:061A10005E797101454002
:101973008B098A0A890BED120637AB09AA0AA90B50
:10198300900001E50D1206491205F1FF7D031212C5
:10199300EEAB09AA0AA90B90000112060AFF7D0308
:1019A3001212EEAB09AA0AA90B1205F1FFC20A1221
:1019B300157FAB09AA0AA90B90000112060AFFC200
:0419C3000A02157F80
:0B1DF100ED5407440890000202064970
:06176D008B0F8A108911A8
:10177300121D9A7D40120FCF121C7F121D947DC043
:10178300120FCFE490003CF090003CE0FFC39404C0
:1017930074809480501AAB12AA13A9148F82758394
:1017A3000012060AFD120FCF90003CE004F080D82F
:1017B300121C7F121D94AB0FAA10A91190000212E4
:1017C300060A540F2480FD120FD5AB0FAA10A911DE
:0E17D30090000112060AFF1205F1FD021C90A3
:061D42008B418A42894337
:101D480078407C007D017BFF7A1E79327E007F041B
:101D58001205CB751201751300751440AB41AA42E8
:051D6800A94302176D04
:0D1D9400AB0FAA10A91190000112060AFF62
:101DA100C20A12157F7F017E007D007C00021B9E0E
:101C7F00AB0FAA10A91190000112060AFF1205F16D
:011C8F00FD57
:101C90008F158D16C20A12157F7F017E007D007C94
:101CA00000121B9ED20AAF1612157F7F017E007DA7
:101CB000007C00121B9ED20AAF1512157F7F017E99
:081CC000007D007C00021B9E68
:060FCF00AB0FAA10A911EE
:060FD5008B158A16891736
:100FDB0090003DEDF0E4A3F090003EE0C394087464
:100FEB00809480506DAB15AA16A9171205F1FFC29C
:100FFB000A12157F7F017E007D007C00121B9E90E4
:10100B00003DE0AB15AA16A91790000130E00812BD
:10101B00060AFFD20A800612060AFFC20A12157FC1
:10102B007F017E007D007C00121B9EAB15AA16A9CA
:10103B00171205F1FFD20A12157F7F017E007D008A
:10104B007C00121B9E90003DE0C313F0A3E004F064
:10105B008086AB15AA16A9171205F1FFC20A121545
:10106B007FAB15AA16A91790000112060AFFD20A28
:10107B0012157F7F017E007D007C00121B9EAB153D
:10108B00AA16A9171205F1FFD20A12157F7F017E4E
:10109B00007D007C00121B9EAB15AA16A9179000B1
:1010AB000112060AFF1216DBE43390003FF07012B8
:1010BB00AB15AA16A91790000112060AFFC20A1255
:1010CB00157F7F017E007D007C00121B9EAB15AA55
:1010DB0016A9171205F1FFC20A12157F7F017E00B8
:0C10EB007D007C00121B9E90003FE0FF87
:0110F70022D6
:0F1DE200EF540F2424F582E43400F583E0FF2250
:101B9E008F1B8E1A8D198C18538EF7438901D28C98
:101BAE00E4FFFEFDFCAB1BAA1AA919A818C3120765
:101BBE00B96025758A7E758CFF308DFDC28DE51B53
:101BCE0024FFF51BE51A34FFF51AE51934FFF51954
:0B1BDE00E51834FFF51880C8C28C2207
:101BE9008F138E128D118C10538EF7438901D28C6D
:101BF900E4FFFEFDFCAB13AA12A911A810C312073A
:101C0900B96025758ACA758CFA308DFDC28DE513C8
:101C190024FFF513E51234FFF512E51134FFF51130
:0B1C2900E51034FFF51080C8C28C22CB
:101C34008F308E2F8D2E8C2D538EEF438910D28EA4
:101C4400E4FFFEFDFCAB30AA2FA92EA82DC312077A
:101C5400B96025758BEA758DCB308FFDC28FE53069
:101C640024FFF530E52F34FFF52FE52E34FFF52E54
:0B1C7400E52D34FFF52D80C8C28E2244
:101AB7008F348E338D328C3153C9BF53C9DF43C93D
:101AC70010D2CAE4FFFEFDFCAB34AA33A932A83119
:101AD700C31207B9602575CC3075CDF830CFFDC27C
:101AE700CFE53424FFF534E53334FFF533E53234FD
:0E1AF700FFF532E53134FFF53180C8C2CA2256
:101A17008F388E378D368C3575C40743C408E4FF7D
:101A2700FEFDFCAB38AA37A936A835C31207B96043
:101A37002B75C52C75C6CFE5C45410641070F853C8
:101A4700C4EFE53824FFF538E53734FFF537E536D9
:101A570034FFF536E53534FFF53580C253C4F72238
:101A67008F3C8E3B8D3A8C3975C40743C408E4FF1D
:101A7700FEFDFCAB3CAA3BA93AA839C31207B960E3
:101A87002B75C5D875C6FFE5C45410641070F8539C
:101A9700C4EFE53C24FFF53CE53B34FFF53BE53A75
:101AA70034FFF53AE53934FFF53980C253C4F722DC
:101D090053B1BF53B2BF53B17F53B27F759850439C
:101D19008920438780438E1053C4DFAB07AA06A9E5
:101D290005A8047F407E427D0F7C00120727EF043F
:091D3900F404F58DD28ED299223A
:1017E1008F0C8E0B8D0A8C0953B1BF53B2BF53B10D
:1017F1007F53B27F75985043878053C4F843C42008
:10180100AB0CAA0BA90AA8097F407E427D0F7C0080
:10181100120727C374FF9FFF74FF9EFEE49DFDE442
:101821009CFC78081207CA8FC6AB0CAA0BA90AA8A0
:10183100097F407E427D0F7C00120727C374FF9F02
:09184100FF8FC543C408D29922AF
:071E0D003098FDAF99C29867
:011E140022AB
:081E1500C2998F993099FD225A
:10184A008F408E3F8D3E8C3D53B1FB53B2FB53B359
:10185A00BF53B4BF75F85075C40853C4DFAB40AA70
:10186A003FA93EA83D7F407E427D0F7C001207279C
:10187A00C374FF9FFF74FF9EFEE49DFDE49CFC7809
:10188A00081207CA8FC6AB40AA3FA93EA83D7F40AF
:10189A007E427D0F7C00120727C374FF9FFF8FC50E
:0418AA0043C4082209
:071E1D0030F8FDAF9AC2F896
:011E2400229B
:081E2500C2F98F9A30F9FD2289
:0300000002162FB6
:10162F0075C7AA75C75575FD5A75C7AA75C755757C
:10163F00FDA5787FE4F6D8FD9000007FFF7E03E4E0
:0C164F00F0A3DFFCDEFA75814502169660
:10165B0002002EE493A3F8E493A34003F68001F277
:10166B0008DFF48029E493A3F85407240CC8C33390
:10167B00C4540F4420C8834004F456800146F6DF5F
:10168B00E4800B01020408102040809019C7E47E0F
:10169B00019360BCA3FF543F30E509541FFEE49354
:1016AB00A360010ECF54C025E060A840B8E493A31B
:1016BB00FAE493A3F8E493A3C8C582C8CAC583CA46
:1016CB00F0A3C8C582C8CAC583CADFE9DEE780BEFE
:011A160000CF
:1004FB00E709F608DFFA8046E709F208DFFA803EE3
:10050B0088828C83E709F0A3DFFA8032E309F608CF
:10051B00DFFA8078E309F208DFFA807088828C8337
:10052B00E309F0A3DFFA806489828A83E0A3F608EB
:10053B00DFFA805889828A83E0A3F208DFFA804CC5
:10054B0080D280FA80C680D4806980F2803380109C
:10055B0080A680EA809A80A880DA80E280CA803305
:10056B0089828A83ECFAE493A3C8C582C8CCC5837D
:10057B00CCF0A3C8C582C8CCC583CCDFE9DEE7804D
:10058B000D89828A83E493A3F608DFF9ECFAA9F0CC
:10059B00EDFB2289828A83ECFAE0A3C8C582C8CC22
:1005AB00C583CCF0A3C8C582C8CCC583CCDFEADE3B
:1005BB00E880DB89828A83E493A3F208DFF980CC9D
:1005CB0088F0EF60010E4E60C388F0ED2402B40496
:1005DB000050B9F582EB2402B4040050AF2323453D
:0605EB00822390054B7312
:1005F100BB010689828A83E0225002E722BBFE0208
:09060100E32289828A83E493223A
:10060A00BB010CE58229F582E5833AF583E02250A5
:10061A0006E92582F8E622BBFE06E92582F8E222EF
:0D062A00E58229F582E5833AF583E4932209
:10063700BB010689828A83F0225002F722BBFE01A2
:02064700F3229C
:10064900F8BB010DE58229F582E5833AF583E8F0E7
:10065900225006E92582C8F622BBFE05E92582C893
:02066900F2227B
:10066B00C2D5EC30E709B2D5E4C39DFDE49CFCEEAA
:10067B0030E715B2D5E4C39FFFE49EFE1207E9C332
:10068B00E49DFDE49CFC80031207E930D507C3E42D
:06069B009FFFE49EFE2219
:1006A100BB010A89828A83E0F5F0A3E02250068724
:1006B100F009E71922BBFE07E3F5F009E3192289E6
:0B06C100828A83E493F5F07401932219
:1006CC00BB010A89828A83F0E5F0A3F0225006F779
:0F06DC0009A7F01922BBFE06F3E5F009F3192276
:1006EB0075F008758200EF2FFFEE33FECD33CDCCC6
:1006FB0033CCC58233C5829BED9AEC99E582984049
:10070B000CF582EE9BFEED9AFDEC99FC0FD5F0D625
:10071B00E4CEFBE4CDFAE4CCF9A88222B800C1B94F
:10072B000059BA002DEC8BF084CFCECDFCE5F0CB8D
:10073B00F97818EF2FFFEE33FEED33FDEC33FCEBC6
:10074B0033FB10D703994004EB99FB0FD8E5E4F981
:10075B00FA227818EF2FFFEE33FEED33FDEC33FC6E
:10076B00C933C910D7059BE99A4007EC9BFCE99A62
:10077B00F90FD8E0E4C9FAE4CCFB2275F010EF2FA7
:10078B00FFEE33FEED33FDCC33CCC833C810D707A7
:10079B009BEC9AE899400AED9BFDEC9AFCE899F8E2
:0E07AB000FD5F0DAE4CDFBE4CCFAE4C8F92275
:1007B900EB9FF5F0EA9E42F0E99D42F0E89C45F096
:0107C900220D
:1007CA00E8600FECC313FCED13FDEE13FEEF13FF0D
:0307DA00D8F12231
:0C07DD00ECF0A3EDF0A3EEF0A3EFF0228F
:10087400E51B240FF8E6051B22780C301102780FD3
:10088400E475F00112083E0205F1200AEB7F2ED236
:100894000A8018EF540F2490D43440D4FF300E0B48
:1008A400EF24BFB41A0050032461FFE51C60021555
:1008B4001C051FE51F7002051E30110D780CE47530
:1008C400F00112083EEF020637021D6D7403D211C7
:1008D4008003E4C211F51B8B0C8A0D890EE4F51C10
:1008E400F51EF51FE51C60077F201208AF80F57523
:1008F4001DFFC20BC20AC20CC20DC20FC210C2122B
:1009040012087DFF700D3011057F001208C0AF1F63
:10091400AE1E22B4255FC2D5C20E12087DFF24D0BC
:10092400B40A00501A75F00A781C30D50508B6FFD1
:100934000106C6A426F620D5047002D20D80D9245F
:10094400CFB41A00EF5004C2E5D20E020AC0D20B93
:1009540080C6D20A80C0D20C80BCD2D580BAD20F55
:1009640080B47F201208AF200C077401B51C00402E
:10097400F1120874FF1208AF0208E8D212D21080F4
:1009840095120874FB120874FA120874F94A4B7031
:100994000679917A0B7BFF200C2EE51C602A7E00E1
:1009A4008E8275830012060A60060EEE651D70F0D5
:1009B400C2D5EBC0E0EAC0E0E9C0E0EE120B07D01C
:1009C400E0F9D0E0FAD0E0FB1205F1FF60AAEBC039
:1009D400E0EAC0E0E9C0E01208AFD0E02401F9D0B9
:1009E400E03400FAD0E0FBE51D0460DCD51DD980BD
:1009F400877BFF7A0B7903D20C809C791080027973
:100A040008C210C2128008D2D5790A8004790AC2B9
:100A1400D5E51D047002F51DE4FAFDFEFF1208740D
:100A2400FC7B08200B13120874FD7B10300A0A1299
:100A34000874FE120874FF7B20EC3382D592D550E3
:100A440013C3E4300A069FFFE49EFEE4200B039DDB
:100A5400FDE49CFCE4CBF8C20BEC700CCFCECDCC07
:100A6400E824F8F870F38017C3EF33FFEE33FEED9C
:100A740033FDEC33FCEB33FB994002FB0FD8E9EB7D
:100A8400300B05F8D0E0C448B20BC0E00AEC4D4E80
:100A94004F78207B0070C2EAB51D0040BCC0E01254
:100AA4000B09D0F0D0E0200B04C4C0E0C4B20BC0EA
:100AB400F0120898D0F0D5F0EB0208E812084E09BD
:100AC400855309FF5809564C0952420A034F0A0B31
:0F0AD400440A0B49096B430A115509F54609F508
:100AE3004509F5470BB150095A2D095E2E09812B93
:100AF300096223097F200B9A2A091A480000097901
:100B03003F3F3F00790AA2D5200D14300F09B910D9
:100B1300020404B9080104A2D520100250010420E4
:100B23000C68920CB51C005034C0E07F20300D19C6
:100B33007F30A20C7210720F500F120B60C20CC2E6
:100B430010C20FC2127F30800F300F03E9C0E012D2
:100B530008AF300F03D0E0F9D0E0B51CCC300F174D
:100B63007F30B9100C1208AF7F58300E077F7880A2
:100B730003B908031208AF300C057F2D0208AF7FBD
:100B8300202012F87F2B2010F322920C80CF286EA6
:100B9300756C6C2900D20B120874300BF8C20B78F9
:100BA3001C30D50108F602091A2D50434958120882
:100BB300742403B405004001E4900BAC931208A025
:0D0BC300743A1208A0D20D751C040209FF3F
:1007E900BC000BBE0029EF8DF084FFADF022E4CCF4
:1007F900F875F008EF2FFFEE33FEEC33FCEE9DECBD
:10080900984005FCEE9DFE0FD5F0E9E4CEFD22ED02
:10081900F8F5F0EE8420D21CFEADF075F008EF2F4C
:10082900FFED33FD4007985006D5F0F222C398FD3D
:050839000FD5F0EA22DA
:10083E00FAE6FB0808E6F925F0F618E6CA3AF622BB
:10084E00D083D082F8E4937012740193700DA3A339
:10085E0093F8740193F5828883E47374029368604D
:06086E00EFA3A3A380DF4D
:101D6D00EFB40A07740D121D78740A309811A899F2
:101D7D00B8130CC2983098FDA899C298B811F630D6
:071D8D0099FDC299F59922AE
:00000001FF
