:081AF700FFFFFFFF00000000EB
:1016530001250001260001270001280001240102C1
:101663002204BFC101C100C102C1094100230044DA
:10167300000C00000000C108C107C103C104C1057B
:09168300C106440008000000004B
:04120C00AF23AE223C
:04121000AB07AA0678
:101214007C037DE8120665900034EEF0A3EFF07CC9
:10122400007D64AF03AE021206657C007D0A1206DF
:1012340065A3ECF0A3EDF07C007D64AF03AE021275
:1012440006657E007F0ACFCDCFCECCCE120665A335
:10125400EEF0A3EFF0AE02AF037C007D0A12066548
:10126400A3ECF0A3EDF078097C007D007BFF7A1AF3
:1012740079F77E007F041205C5900034A3E0FF12C5
:101284001ADF8F09900036A3E0FF121ADF8F0A904D
:101294000038A3E0FF121ADF8F0B90003AA3E0FF9F
:1012A400121ADF8F0C7512007513007514097B0078
:0712B4007A0079290213F909
:091AEE003098037F01227F0022E1
:041B1F00AF99C29820
:011B2300229F
:0417DE008F098D0AD8
:1017E200780B7C007D007BFF7A1A79FB7E007F04F8
:1017F2001205C57F0E121ADF8F0BAF09121ADF8F87
:101802000CE4F50DAF0A121ADF8F0E751200751374
:101812000075140B7B007A0079291213F97FF47E8C
:08182200017D007C000218C1E9
:0A19A0008E228F237B017A0079105C
:1019AA00E524120631E525900004120643E5269047
:1019BA000006120643E527900008120643E5289020
:1019CA00000A120643E52290000B120643E5239013
:0D19DA00000C120643E52490000E020643A7
:03002B0002179128
:10179100C0E0C0F0C083C082C0D075D000C000C01E
:1017A10004C005C006C007C2CF900008E0FCA3E05A
:1017B100FDA3E0FEA3E02401FFE43EFEE43DFDE4E1
:1017C1003CFC9000081207D7D007D006D005D00402
:0D17D100D000D0D0D082D083D0F0D0E03254
:10002E007F807E257D007C0012146D121AC97B0024
:10003E007A007925E4FF120E7E7B007A0079267F06
:10004E0001120E7E7B007A0079277F02120E7E7BD4
:10005E00007A0079287F03120E7E7B007A007924C5
:10006E007F06120E7E7B007A0079227F0412099A97
:10007E00AF24121B0743C91053C99F53C8FE43C96F
:10008E008043C90875CA6075CBF0E4F5CDF5CCD2C6
:10009E00CA439B80D2AF7D027F04120C2B7D027F60
:1000AE000A120C2B7D02E4FF120C2B7D027F031231
:1000BE000C2B7D027F01120C2B7D027F02120C2B6A
:1000CE007B007A007929750D0C7D0B1215FF7F646C
:1000DE007E007D007C001218C17B007A0079297D9C
:1000EE000F12002012120C9000117403F0A3740C66
:1000FE00F0E4A3F0900015F0900017F0900019F0C6
:10010E0090001DF01219A4900008E0FCA3E0FDA3DE
:10011E00E0FEA3E0FF90001F1207D7900008E0FC5E
:10012E00A3E0FDA3E0FEA3E0FF90000C1207D77F33
:10013E00041213674047200844D208E523940FE5C4
:10014E002294274006AE22AF238009E5232401FF27
:10015E00E43522FE1219A012120C7FC87E007D001B
:10016E007C001218C1AD23AC227F04120838501641
:10017E007F017E007D007C001218C180097F041271
:10018E0013675002C2087F0A1213674044200741CA
:10019E00D207E52345227006AE22AF23800AE5235F
:1001AE0024FFFFE52234FFFE1219A012120C7FC8A5
:1001BE007E007D007C001218C1AD23AC227F04129C
:1001CE00083850167F017E007D007C001218C18019
:1001DE00097F0A1213675002C207E4FF1213674029
:1001EE004020033DD203E52564017003FF80027FAA
:1001FE00018F251219A4AD257F011217DEAD25E45E
:10020E00FF120AFA500B7F017E007D007C0012184F
:10021E00C17FC87E007D007C001218C112120C80B6
:10022E0009E4FF1213675002C2037F0312136740E3
:10023E004020043DD204E52664017003FF80027F56
:10024E00018F261219A4AD267F021217DEAD267F6E
:10025E0001120AFA500B7F017E007D007C001218FD
:10026E00C17FC87E007D007C001218C112120C8066
:10027E00097F031213675002C2047F0112136740F5
:10028E004020053DD205E52764017003FF80027F03
:10029E00018F271219A4AD277F031217DEAD277F1A
:1002AE0002120AFA500B7F017E007D007C001218AC
:1002BE00C17FC87E007D007C001218C112120C8016
:1002CE00097F011213675002C2057F0212136740A5
:1002DE004020063DD206E52864017003FF80027FB0
:1002EE00018F281219A4AD287F041217DE7FC87E55
:1002FE00007D007C001218C112120CAD287F031273
:10030E000AFA50167F017E007D007C001218C18013
:10031E00097F021213675002C20690001FE0F8A375
:10032E00E0F9A3E0FAA3E0FB900008E0FCA3E0FDF7
:10033E00A3E0FEA3E0C39BFFEE9AFEED99FDEC98C1
:10034E00FCE47BD07A07F9F8D31207B3501690006D
:10035E0008E0FCA3E0FDA3E0FEA3E0FF90001F1267
:0D036E0007D7B292121AEEEF700302013DA4
:10037B00121B1F8F0890000CE0F8A3E0F9A3E0FA22
:10038B00A3E0FB900008E0FCA3E0FDA3E0FEA3E0EC
:10039B00C39BFFEE9AFEED99FDEC98FCE47B1EFAF5
:1003AB00F9F8C31207B35019900008E0FCA3E0FD65
:1003BB00A3E0FEA3E0FF90000C1207D7E49000230C
:1003CB00F0900023E02400F582E43400F583E50887
:1003DB00F0900023E004F0E0C39408748094805004
:1003EB000302013DE4F0900000E06524600302018C
:1003FB003DA3E06403700B1219A47D0F12153A0292
:10040B00013D900001E06406600302013D90000392
:10041B00E0701C900005E0F525AD257F011217DE7D
:10042B00AD25E4FF120AFA40030204D30204C8907C
:10043B000003E064017018900005E0F526AD267FFF
:10044B00021217DEAD267F01120AFA507B806E90E6
:10045B000003E064027018900005E0F527AD277FDC
:10046B00031217DEAD277F02120AFA505B804E9003
:10047B000003E064037018900005E0F528AD287FB9
:10048B00041217DEAD287F03120AFA503B802E9020
:10049B000003E0FD7C006404700EA3E0FEA3E0FB10
:1004AB00EEF522EBF5238020ED64054C701A9000DD
:1004BB0005E0F524AD247F06120AFA500B7F017E6E
:1004CB00007D007C001218C11219A412120CAD236E
:1004DB00AC227F04120838400302013D7F017E00ED
:0704EB007D007C001218C126
:0304F20002013DC7
:101AC90075BE2753B3F753B4F753B3EF53B4EFD2FB
:061AD90093D294D2C62254
:021074008F0CDF
:10107600AFBDEF64F86002C322C2C4D2C5C2C3903A
:101086000037E4F0A304F0E4A3F020C32190003776
:10109600E07002A3E0700790003904F08010900021
:1010A60038E004F070E4900037E004F080DC900053
:1010B60039E06003021153AFBDEF6408600302110B
:1010C60053C2C5C2C475BCA0C2C3900037E4F0A326
:1010D60004F0E4A3F020C321900037E07002A3E0FF
:1010E600700790003904F08010900038E004F0702A
:1010F600E4900037E004F080DC900039E060028084
:101106004CAFBDEF641860028043850CBCC2C3902F
:101116000037E4F0A304F0E4A3F020C321900037E5
:10112600E07002A3E0700790003904F08010900090
:1011360038E004F070E4900037E004F080DC9000C2
:1011460039E060028007AFBDEF642860051219E739
:05115600C3221219E79D
:01115B002271
:040AFA008F098D0AC9
:100AFE00AFBDEF64F86002C322C2C4D2C5C2C390B8
:100B0E000034E4F0A304F0E4A3F020C321900034F9
:100B1E00E07002A3E0700790003604F080109000A1
:100B2E0035E004F070E4900034E004F080DC9000D6
:100B3E0036E06003020C22AFBDEF64086003020CC6
:100B4E0022C2C5C2C475BCA0C2C3900034E4F0A3D7
:100B5E0004F0E4A3F020C321900034E07002A3E07F
:100B6E00700790003604F08010900035E004F070AD
:100B7E00E4900034E004F080DC900036E060030284
:100B8E000C22AFBDEF64186003020C228509BCC2B3
:100B9E00C3900034E4F0A304F0E4A3F020C321904A
:100BAE000034E07002A3E0700790003604F080106D
:100BBE00900035E004F070E4900034E004F080DC46
:100BCE00900036E06002804CAFBDEF64286002807A
:100BDE0043850ABCC2C3900034E4F0A304F0E4A33E
:100BEE00F020C321900034E07002A3E07007900063
:100BFE003604F08010900035E004F070E49000347C
:100C0E00E004F080DC900036E060028007AFBDEFBC
:0C0C1E00642860051219E7C3221219E7D0
:010C2A0022A7
:060838008F098C0A8D0BF4
:10083E00AFBDEF64F86002C322C2C4D2C5C2C3907A
:10084E000036E4F0A304F0E4900035F020C32190CC
:10085E000036E07002A3E0700790003504F08010BF
:10086E00900037E004F070E4900036E004F080DC95
:10087E00900035E06003020989AFBDEF64086003A4
:10088E00020989C2C5C2C475BCA0C2C3900036E4B9
:10089E00F0A304F0E4900035F020C321900036E080
:1008AE007002A3E0700790003504F08010900037BE
:1008BE00E004F070E4900036E004F080DC90003547
:1008CE00E06003020989AFBDEF6418600302098975
:1008DE008509BCC2C3900036E4F0A304F0E4900096
:1008EE0035F020C321900036E07002A3E07007902F
:1008FE00003504F08010900037E004F070E49000B2
:10090E0036E004F080DC900035E06002806DAFBD13
:10091E00EF642860028064E4900034F0900034E0CC
:10092E00FF7E00C3940274809480505CEF7006E5E5
:10093E000AF5BC8004E50BF5BCC2C3900036E4F0AA
:10094E00A304F0E4900035F020C321900036E0704F
:10095E0002A3E0700790003504F08010900037E09D
:10096E0004F070E4900036E004F080DC900035E096
:10097E0060028007AFBDEF642860051219E7C3223D
:0B098E00900034E004F080941219E7A0
:01099900223B
:060E7E008B098A0A890BB2
:100E8400121074400122AFBDEF64F86002C322C2A5
:100E9400C4D2C5C2C3900035E4F0A304F0E49000CA
:100EA40034F020C321900035E07002A3E070079075
:100EB400003404F08010900036E004F070E49000F8
:100EC40035E004F080DC900034E06003020F6CAF86
:100ED400BDEF64086003020F6CC2C5C2C475BCA137
:100EE400C2C3900035E4F0A304F0E4900034F02091
:100EF400C321900035E07002A3E070079000340431
:100F0400F08010900036E004F070E4900035E004C6
:100F1400F080DC900034E06002804DAFBDEF6440AF
:100F240060028044C2C2C2C3900035E4F0A304F05E
:100F3400E4900034F020C321900035E07002A3E077
:100F4400700790003404F08010900036E004F070D4
:100F5400E4900035E004F080DC900034E06002802E
:100F640007AFBDEF645860051219E7C322AB09AAA5
:0B0F74000AA90BE5BC1206311219E7B8
:010F7F00224F
:06099A008B098A0A890B9B
:1009A000121074400122AFBDEF64F86002C322C28E
:1009B000C4D2C5C2C3900035E4F0A304F0E49000B3
:1009C00034F020C321900035E07002A3E07007905E
:1009D000003404F08010900036E004F070E49000E1
:1009E00035E004F080DC900034E06003020ADEAF02
:1009F000BDEF64086003020ADEC2C5C2C475BCA1B3
:100A0000C2C3900035E4F0A304F0E4900034F02079
:100A1000C321900035E07002A3E070079000340419
:100A2000F08010900036E004F070E4900035E004AF
:100A3000F080DC900034E06003020ADEAFBDEF64BA
:100A4000406003020ADED2C2C2C3900035E4F0A3C4
:100A500004F0E4900034F020C321900035E07002EF
:100A6000A3E0700790003404F08010900036E0049A
:100A7000F070E4900035E004F080DC900034E06039
:100A800002805BAFBDEF645060028052AFBCAB0927
:100A9000AA0AA90BE48FF01206C6C2C2C2C3900014
:100AA00035E4F0A304F0E4900034F020C32190007A
:100AB00035E07002A3E0700790003404F0801090DD
:100AC0000036E004F070E4900035E004F080DC9043
:100AD0000034E060028007AFBDEF64586005121972
:100AE000E7C322AB09AA0AA90B12069BFFADBCED16
:090AF000CF8FF01206C61219E7BF
:010AF90022DA
:020F80008F3FA1
:100F8200AFBDEF64F86002C322C2C4D2C5C2C3902F
:100F92000044E4F0A304F0E4A3F020C32190004451
:100FA200E07002A3E0700790004604F08010900009
:100FB20045E004F070E4900044E004F080DC90002E
:100FC20046E06003021061AFBDEF640860030210E7
:100FD20061C2C5C2C4E53F4401F5BCC2C39000442E
:100FE200E4F0A304F0E4A3F020C321900044E070F5
:100FF20002A3E0700790004604F08010900045E0E4
:1010020004F070E4900044E004F080DC900046E0DC
:101012006002804BAFBDEF644060028042C2C2C238
:10102200C3900044E4F0A304F0E4A3F020C32190B1
:101032000044E07002A3E0700790004604F08010C4
:10104200900045E004F070E4900044E004F080DC9D
:10105200900046E060028007AFBDEF645860051261
:1010620019E7C322AFBC900044E4F0A3EFF01219D9
:01107200E796
:01107300225A
:1019E700C2C5D2C4C2C390003AE4F0A304F0E4A392
:1019F700F0AFBDEF64F8602190003AE07002A3E019
:101A0700700790003C04F0801090003BE004F070F9
:101A1700E090003AE004F080D890003CE024FFB367
:011A2700229C
:08153A008B098A0A890B8D0C54
:10154200E4F50DE50DC3950C5022AB09AA0AA90BCF
:10155200850D82758300120604FF121B077F017E30
:10156200007D007C001218C1050D80D7AB09AA0AC4
:10157200A90BAD0C12159D8E0E8F0FEF121B077F5C
:10158200017E007D007C001218C1E50EFF121B07D0
:0B1592007F017E007D007C000218C17C
:08159D008B108A1189128D13D5
:1015A50074FFF514F515E4FDEDC395135047AB1025
:1015B500AA11A9128D827583001206046215E4FC36
:1015C500ECC39408748094805028E51530E015E547
:1015D50014C313FEE51513FFEE64A0F514EF6401C3
:1015E500F515800BE514C313F514E51513F5150C66
:0915F50080CE0D80B3AE14AF15D9
:0115FE0022CA
:041B240000000000BD
:10168C005000243F065B4F666D7D077F6F777C397A
:06169C005E79710140407F
:1015FF008B098A0A890BED120631AB09AA0AA90BCE
:10160F00900001E50D1206431205EBFF7D03120C4E
:10161F002BAB09AA0AA90B900001120604FF7D0348
:10162F00120C2BAB09AA0AA90B1205EBFFC20B1266
:10163F00115CAB09AA0AA90B900001120604FFC2A4
:04164F000B02115C1D
:0B002000ED5407440890000202064364
:0613F9008B0F8A10891120
:1013FF001200097D40120D551219571200037DC0BE
:10140F00120D55E490003CF090003CE0FFC39404B3
:10141F0074809480501AAB12AA13A9148F8275830B
:10142F0000120604FD120D5590003CE004F080D828
:10143F00121957120003AB0FAA10A9119000021234
:10144F000604540F2480FD120D5BAB0FAA10A911D7
:0E145F00900001120604FF1205EBFD02196851
:061A9E008B3C8A3D893EED
:101AA40078407C007D017BFF7A1B79247E007F04D3
:101AB4001205C5751201751300751440AB3CAA3D9F
:051AC400A93E0213F928
:0D000300AB0FAA10A911900001120604FF16
:10001000C20B12115C7F017E007D007C000218760D
:10195700AB0FAA10A911900001120604FF1205EBA4
:01196700FD82
:101968008F158D16C20B12115C7F017E007D007CE5
:1019780000121876D20BAF1612115C7F017E007D23
:10198800007C00121876D20BAF1512115C7F017E15
:08199800007D007C00021876BE
:060D5500AB0FAA10A9116A
:060D5B008B158A168917B2
:100D610090003DEDF0E4A3F090003EE0C3940874E0
:100D7100809480506DAB15AA16A9171205EBFFC21E
:100D81000B12115C7F017E007D007C0012187690B1
:100D9100003DE0AB15AA16A91790000130E008123A
:100DA1000604FFD20B8006120604FFC20B12115C6F
:100DB1007F017E007D007C00121876AB15AA16A972
:100DC100171205EBFFD20B12115C7F017E007D0033
:100DD1007C0012187690003DE0C313F0A3E004F00C
:100DE1008086AB15AA16A9171205EBFFC20B1211CB
:100DF1005CAB15AA16A917900001120604FFD20BCD
:100E010012115C7F017E007D007C00121876AB150B
:100E1100AA16A9171205EBFFD20B12115C7F017EF6
:100E2100007D007C00121876AB15AA16A917900058
:100E310001120604FF121367E43390003FF07012B1
:100E4100AB15AA16A917900001120604FFC20B12D6
:100E5100115C7F017E007D007C00121876AB15AA23
:100E610016A9171205EBFFC20B12115C7F017E0060
:0C0E71007D007C0012187690003FE0FF2E
:010E7D002252
:0F1ADF00EF540F2424F582E43400F583E0FF2256
:100C2B00C20BEFFB64087003020D54EB64097003F5
:100C3B00020D54EDFBD39403748094804003020D9A
:100C4B0054EF641E702FEB700553ACFE8016EDFB5A
:100C5B007A006401700553ACFE8017EB64024A7096
:100C6B000843AC0153ADFE800CEB64034A700643A2
:100C7B00AC0143AD01EFFBC394127480948040032D
:100C8B00020D54C3EB940A748094804003D380010B
:100C9B00C3920BEF75F00A84AFF0EDFB7A00702472
:100CAB00300B10A80704088002C333D8FCF452B3EE
:100CBB0052B422A8077401088002C333D8FCF45243
:100CCB00B152B222EB64014A7024300B10A8070416
:100CDB00088002C333D8FCFEF452B38057A80774C4
:100CEB0001088002C333D8FCFEF452B18058EDFBEF
:100CFB007A0064027028300B12A80704088002C324
:100D0B0033D8FCFE42B3EEF452B422A807740108A8
:100D1B008002C333D8FCFE42B1EEF452B222EB6434
:100D2B00034A7025300B11A80704088002C333D87F
:100D3B00FCFE42B3EE42B422A8077401088002C342
:090D4B0033D8FCFE42B1EE42B2C5
:010D5400227C
:10136700EFFD7C007003A28022ED64014C7003A2A4
:101377008122ED64024C7003A28222ED64034C705B
:1013870003A28322ED64044C7003A28422ED64055A
:101397004C7003A28522ED64064C7003A28622EDF1
:1013A70064074C7003A28722ED640A4C7003A29075
:1013B70022ED640B4C7003A29122ED640C4C700378
:1013C700A29222ED640D4C7003A29322ED640E4CA1
:1013D7007003A29422ED640F4C7003A29522ED6472
:1013E700104C7003A29622ED64114C7003A2972251
:0213F700C3220F
:10115C00EFFD7C007005A20B928022ED64014C70B7
:10116C0005A20B928122ED64024C7005A20B9282B7
:10117C0022ED64034C7005A20B928322ED64044CA7
:10118C007005A20B928422ED64054C7005A20B92A3
:10119C008522ED64064C7005A20B928622ED640745
:1011AC004C7005A20B928722ED640A4C7005A20BC1
:1011BC00929022ED640B4C7005A20B929122ED647F
:1011CC000C4C7005A20B929222ED640D4C7005A292
:1011DC000B929322ED640E4C7005A20B929422EDAF
:1011EC00640F4C7005A20B929522ED64104C7005A7
:1011FC00A20B929622ED64114C7004A20B929722D2
:101A2800E4FDFC43E10153E1CF53E8F0EF540742F2
:101A3800E8E4F5F6A80704088002C333D8FC42F6A8
:101A4800C2EFD2EE30EFFDAFC3EF75F010A4FFADDB
:0C1A5800C2E5F0FCEF4D53E1FEAE04FFD0
:011A6400225F
:10182A00EF64117003FF803DEF641E70047F018036
:10183A0034EF640770047F02802BEF640670047F24
:10184A00038022EF640570047F048019EF6404703A
:10185A00047F058010EF640370047F068007EF643D
:0C186A000B70057F07021A28E4FEFF2225
:101876008F1B8E1A8D198C18538EF7438901D28CC3
:10188600E4FFFEFDFCAB1BAA1AA919A818C3120790
:10189600B36025758A7E758CFF308DFDC28DE51B84
:1018A60024FFF51BE51A34FFF51AE51934FFF5197F
:0B18B600E51834FFF51880C8C28C2232
:1018C1008F138E128D118C10538EF7438901D28C98
:1018D100E4FFFEFDFCAB13AA12A911A810C3120765
:1018E100B36025758ACA758CFA308DFDC28DE513FA
:1018F10024FFF513E51234FFF512E51134FFF5115C
:0B190100E51034FFF51080C8C28C22F6
:10190C008F1F8E1E8D1D8C1C538EEF438910D28E13
:10191C00E4FFFEFDFCAB1FAA1EA91DA81CC31207E9
:10192C00B36025758BEA758DCB308FFDC28FE51FAB
:10193C0024FFF51FE51E34FFF51EE51D34FFF51DD4
:0B194C00E51C34FFF51C80C8C28E2291
:101743008F2F8E2E8D2D8C2C53C9BF53C9DF43C9C8
:1017530010D2CAE4FFFEFDFCAB2FAA2EA92DA82CA4
:10176300C31207B3602575CC3075CDF830CFFDC2F9
:10177300CFE52F24FFF52FE52E34FFF52EE52D348D
:0E178300FFF52DE52C34FFF52C80C8C2CA22DC
:1016A3008F338E328D318C3075C40743C408E4FF09
:1016B300FEFDFCAB33AA32A931A830C31207B360D5
:1016C3002B75C52C75C6CFE5C45410641070F85340
:1016D300C4EFE53324FFF533E53234FFF532E5316A
:1016E30034FFF531E53034FFF53080C253C4F722BF
:1016F3008F378E368D358C3475C40743C408E4FFA9
:10170300FEFDFCAB37AA36A935A834C31207B36074
:101713002B75C5D875C6FFE5C45410641070F85313
:10172300C4EFE53724FFF537E53634FFF536E53505
:1017330034FFF535E53434FFF53480C253C4F72262
:101A650053B1BF53B2BF53B17F53B27F7598504343
:101A75008920438780438E1053C4DFAB07AA06A98C
:101A850005A8047F407E427D0F7C00120721EF04EC
:091A9500F404F58DD28ED29922E1
:10146D008F0C8E0B8D0A8C0953B1BF53B2BF53B184
:10147D007F53B27F75985043878053C4F843C4207F
:10148D00AB0CAA0BA90AA8097F407E427D0F7C00F8
:10149D00120721C374FF9FFF74FF9EFEE49DFDE4C0
:1014AD009CFC78081207C48FC6AB0CAA0BA90AA81E
:1014BD00097F407E427D0F7C00120721C374FF9F80
:0914CD00FF8FC543C408D2992227
:071AFF003098FDAF99C29879
:011B060022BC
:081B0700C2998F993099FD226B
:1014D6008F3B8E3A8D398C3853B1FB53B2FB53B3E5
:1014E600BF53B4BF75F85075C40853C4DFAB3BAAED
:1014F6003AA939A8387F407E427D0F7C0012072129
:10150600C374FF9FFF74FF9EFEE49DFDE49CFC7880
:10151600081207C48FC6AB3BAA3AA939A8387F4040
:101526007E427D0F7C00120721C374FF9FFF8FC58B
:0415360043C4082280
:071B0F0030F8FDAF9AC2F8A7
:011B160022AC
:081B1700C2F98F9A30F9FD229A
:030000000212BB2E
:1012BB0075C7AA75C75575FD5A75C7AA75C75575F4
:1012CB00FDA5787FE4F6D8FD9000007FFF7E03E458
:0C12DB00F0A3DFFCDEFA75814002132254
:1012E70002002EE493A3F8E493A34003F68001F2EF
:1012F70008DFF48029E493A3F85407240CC8C33308
:10130700C4540F4420C8834004F456800146F6DFD6
:10131700E4800B0102040810204080901653E47EFD
:10132700019360BCA3FF543F30E509541FFEE493CB
:10133700A360010ECF54C025E060A840B8E493A392
:10134700FAE493A3F8E493A3C8C582C8CAC583CABD
:10135700F0A3C8C582C8CAC583CADFE9DEE780BE75
:0116A2000047
:1004F500E709F608DFFA8046E709F208DFFA803EE9
:1005050088828C83E709F0A3DFFA8032E309F608D5
:10051500DFFA8078E309F208DFFA807088828C833D
:10052500E309F0A3DFFA806489828A83E0A3F608F1
:10053500DFFA805889828A83E0A3F208DFFA804CCB
:1005450080D280FA80C680D4806980F280338010A2
:1005550080A680EA809A80A880DA80E280CA80330B
:1005650089828A83ECFAE493A3C8C582C8CCC58383
:10057500CCF0A3C8C582C8CCC583CCDFE9DEE78053
:100585000D89828A83E493A3F608DFF9ECFAA9F0D2
:10059500EDFB2289828A83ECFAE0A3C8C582C8CC28
:1005A500C583CCF0A3C8C582C8CCC583CCDFEADE41
:1005B500E880DB89828A83E493A3F208DFF980CCA3
:1005C50088F0EF60010E4E60C388F0ED2402B4049C
:1005D5000050B9F582EB2402B4040050AF23234543
:0605E5008223900545731E
:1005EB00BB010689828A83E0225002E722BBFE020E
:0905FB00E32289828A83E4932241
:10060400BB010CE58229F582E5833AF583E02250AB
:1006140006E92582F8E622BBFE06E92582F8E222F5
:0D062400E58229F582E5833AF583E493220F
:10063100BB010689828A83F0225002F722BBFE01A8
:02064100F322A2
:10064300F8BB010DE58229F582E5833AF583E8F0ED
:10065300225006E92582C8F622BBFE05E92582C899
:02066300F22281
:10066500C2D5EC30E709B2D5E4C39DFDE49CFCEEB0
:1006750030E715B2D5E4C39FFFE49EFE1207E3C33E
:10068500E49DFDE49CFC80031207E330D507C3E439
:060695009FFFE49EFE221F
:10069B00BB010A89828A83E0F5F0A3E0225006872A
:1006AB00F009E71922BBFE07E3F5F009E3192289EC
:0B06BB00828A83E493F5F0740193221F
:1006C600BB010A89828A83F0E5F0A3F0225006F77F
:0F06D60009A7F01922BBFE06F3E5F009F319227C
:1006E50075F008758200EF2FFFEE33FECD33CDCCCC
:1006F50033CCC58233C5829BED9AEC99E58298404F
:100705000CF582EE9BFEED9AFDEC99FC0FD5F0D62B
:10071500E4CEFBE4CDFAE4CCF9A88222B800C1B955
:100725000059BA002DEC8BF084CFCECDFCE5F0CB93
:10073500F97818EF2FFFEE33FEED33FDEC33FCEBCC
:1007450033FB10D703994004EB99FB0FD8E5E4F987
:10075500FA227818EF2FFFEE33FEED33FDEC33FC74
:10076500C933C910D7059BE99A4007EC9BFCE99A68
:10077500F90FD8E0E4C9FAE4CCFB2275F010EF2FAD
:10078500FFEE33FEED33FDCC33CCC833C810D707AD
:100795009BEC9AE899400AED9BFDEC9AFCE899F8E8
:0E07A5000FD5F0DAE4CDFBE4CCFAE4C8F9227B
:1007B300EB9FF5F0EA9E42F0E99D42F0E89C45F09C
:0107C3002213
:1007C400E8600FECC313FCED13FDEE13FEEF13FF13
:0307D400D8F12237
:0C07D700ECF0A3EDF0A3EEF0A3EFF02295
:1007E300BC000BBE0029EF8DF084FFADF022E4CCFA
:1007F300F875F008EF2FFFEE33FEEC33FCEE9DECC3
:10080300984005FCEE9DFE0FD5F0E9E4CEFD22ED08
:10081300F8F5F0EE8420D21CFEADF075F008EF2F52
:10082300FFED33FD4007985006D5F0F222C398FD43
:050833000FD5F0EA22E0
:00000001FF
