:040C6400FFFFFFFF90
:100BE3000124000125000126000127000123010241
:030BF300210401D9
:04066800AB07AA062C
:10066C007C037DE8120173900010EEF0A3EFF07C98
:10067C00007D64AF03AE021201737C007D0A12018F
:10068C0073A3ECF0A3EDF07C007D64AF03AE02121B
:10069C0001737E007F0ACFCDCFCECCCE120173A3D7
:1006AC00EEF0A3EFF0AE02AF037C007D0A120173F3
:1006BC00A3ECF0A3EDF078087C007D007BFF7A0CB6
:1006CC0079647E007F041200D3900010A3E0FF1227
:1006DC000C2A8F08900012A3E0FF120C2A8F0990AD
:1006EC000014A3E0FF120C2A8F0A900016A3E0FF5F
:1006FC00120C2A8F0B750F007510007511087B00FA
:07070C007A0079280207A51D
:100B8B007B007A007928750C0C7D0B1208E67F64CC
:100B9B007E007D007C00120A737B007A0079287D31
:0D0BAB000F120C39AF22AE2112066880FE39
:10041900C201EFFB6408700302050BEB640970036A
:1004290002050BC3EB941274809480400302050B00
:10043900EDFB7A00940374809480400302050BEF6E
:10044900C3940A748094804003D38001C39201EF5E
:1004590075F00A84AFF0EB4A7024300110A8070444
:10046900088002C333D8FCF452B352B422A80774EB
:1004790001088002C333D8FCF452B152B222EDFB19
:100489007A0064017024300110A80704088002C3AF
:1004990033D8FCFEF452B38054A8077401088002D3
:1004A900C333D8FCFEF452B18055EB64024A70287C
:1004B900300112A80704088002C333D8FCFE42B3F6
:1004C900EEF452B422A8077401088002C333D8FCA1
:1004D900FE42B1EEF452B222ED64037025300111EF
:1004E900A80704088002C333D8FCFE42B3EE42B425
:1004F90022A8077401088002C333D8FCFE42B1EE7A
:0205090042B2FC
:01050B0022CD
:10071300EFFD7C007003A28022ED64014C7003A204
:100723008122ED64024C7003A28222ED64034C70BB
:1007330003A28322ED64044C7003A28422ED6405BA
:100743004C7003A28522ED64064C7003A28622ED51
:1007530064074C7003A28722ED640A4C7003A290D5
:1007630022ED640B4C7003A29122ED640C4C7003D8
:10077300A29222ED640D4C7003A29322ED640E4C01
:100783007003A29422ED640F4C7003A29522ED64D2
:10079300104C7003A29622ED64114C7003A29722B1
:0207A300C3226F
:10050C00EFFD7C007005A201928022ED64014C701D
:10051C0005A201928122ED64024C7005A201928227
:10052C0022ED64034C7005A201928322ED64044C0D
:10053C007005A201928422ED64054C7005A2019213
:10054C008522ED64064C7005A201928622ED6407AB
:10055C004C7005A201928722ED640A4C7005A20131
:10056C00929022ED640B4C7005A201929122ED64E5
:10057C000C4C7005A201929222ED640D4C7005A2F8
:10058C0001929322ED640E4C7005A201929422ED1F
:10059C00640F4C7005A201929522ED64104C70050D
:1005AC00A201929622ED64114C7004A20192972242
:040C68000000000088
:100BF6005000003F065B4F666D7D077F6F777C393F
:060C06005E7971013F4020
:1008E6008B088A09890AED12013FAB08AA09A90AF1
:1008F600900001E50C1201511200F9FF7D0312046C
:1009060019AB08AA09A90A900001120112FF7D037A
:10091600120419AB08AA09A90A1200F9FFC20112AA
:10092600050CAB08AA09A90A900001120112FFC220
:040936000102050CA9
:0B0C3900ED5407440890000202015136
:0607A5008B0C8A0D890E89
:1007AB00120C137D401202F0120B09120C0D7DC0BE
:1007BB001202F0E4900018F0900018E0FFC39404CC
:1007CB0074809480501AAB0FAA10A9118F82758375
:1007DB0000120112FD1202F0900018E004F080D814
:1007EB00120B09120C0DAB0CAA0DA90E90000212E4
:1007FB000112540F2480FD1202F6AB0CAA0DA90EA8
:0E080B00900001120112FF1200F9FD020B1AFB
:060BB8008B1D8A1E891F3F
:100BBE00781C7C007D017BFF7A0C79687E007F04B7
:100BCE001200D3750F0175100075111CAB1DAA1EF6
:050BDE00A91F0207A59C
:0D0C0D00AB0CAA0DA90E900001120112FF00
:100C1A00C20112050C7F017E007D007C00020A28B9
:100B0900AB0CAA0DA90E900001120112FF1200F9F7
:010B1900FDDE
:100B1A008F128D13C20112050C7F017E007D007CAD
:100B2A0000120A28D201AF1312050C7F017E007D44
:100B3A00007C00120A28D201AF1212050C7F017E36
:080B4A00007D007C00020A2876
:0602F000AB0CAA0DA90EE3
:0602F6008B128A1389142B
:1002FC00900019EDF0E4A3F090001AE0C394087498
:10030C00809480506DAB12AA13A9141200F9FFC28D
:10031C000112050C7F017E007D007C00120A2890E2
:10032C000019E0AB12AA13A91490000130E00812D6
:10033C000112FFD2018006120112FFC20112050C3C
:10034C007F017E007D007C00120A28AB12AA13A943
:10035C00141200F9FFD20112050C7F017E007D0002
:10036C007C00120A28900019E0C313F0A3E004F0FB
:10037C008086AB12AA13A9141200F9FFC201120550
:10038C000CAB12AA13A914900001120112FFD20196
:10039C0012050C7F017E007D007C00120A28AB1236
:1003AC00AA13A9141200F9FFD20112050C7F017EC9
:1003BC00007D007C00120A28AB12AA13A91490002D
:1003CC0001120112FF120713E43390001BF070129C
:1003DC00AB12AA13A914900001120112FFC2011250
:1003EC00050C7F017E007D007C00120A28AB12AA4E
:1003FC0013A9141200F9FFC20112050C7F017E0033
:0C040C007D007C00120A2890001BE0FF1D
:0104180022C1
:0F0C2A00EF540F2400F582E43400F583E0FF223D
:100A28008F188E178D168C15538EF7438901D28C2B
:100A3800E4FFFEFDFCAB18AA17A916A815C31202FD
:100A4800776025758A7E758CFF308DFDC28DE5181F
:100A580024FFF518E51734FFF517E51634FFF516EA
:0B0A6800E51534FFF51580C8C28C2294
:100A73008F0B8E0A8D098C08538EF7438901D28C14
:100A8300E4FFFEFDFCAB0BAA0AA909A808C31202E6
:100A9300776025758ACA758CFA308DFDC28DE50B9A
:100AA30024FFF50BE50A34FFF50AE50934FFF509E0
:0B0AB300E50834FFF50880C8C28C2263
:100ABE008F1C8E1B8D1A8C19538EEF438910D28E7C
:100ACE00E4FFFEFDFCAB1CAA1BA91AA819C3120257
:100ADE00776025758BEA758DCB308FFDC28FE51C47
:100AEE0024FFF51CE51B34FFF51BE51A34FFF51A40
:0B0AFE00E51934FFF51980C8C28E22F4
:1009DA008F2E8E2D8D2C8C2B53C9BF53C9DF43C943
:1009EA0010D2CAE4FFFEFDFCAB2EAA2DA92CA82B1F
:1009FA00C3120277602575CC3075CDF830CFFDC2B1
:100A0A00CFE52E24FFF52EE52D34FFF52DE52C3408
:0E0A1A00FFF52CE52B34FFF52B80C8C2CA2255
:10093A008F328E318D308C2F75C40743C408E4FF83
:10094A00FEFDFCAB32AA31A930A82FC31202776090
:10095A002B75C52C75C6CFE5C45410641070F853B6
:10096A00C4EFE53224FFF532E53134FFF531E530E5
:10097A0034FFF530E52F34FFF52F80C253C4F72238
:10098A008F368E358D348C3375C40743C408E4FF23
:10099A00FEFDFCAB36AA35A934A833C31202776030
:1009AA002B75C5D875C6FFE5C45410641070F8538A
:1009BA00C4EFE53624FFF536E53534FFF535E53481
:1009CA0034FFF534E53334FFF53380C253C4F722DC
:100B520053B1BF53B2BF53B17F53B27F7598504365
:100B62008920438780438E1053C4DFAB07AA06A9AE
:100B720005A8047F407E427D0F7C001201E5EF0450
:090B8200F404F58DD28ED2992203
:100819008F3A8E398D388C3753B1BF53B2BF53B12C
:100829007F53B27F75985043878053C4F843C420DF
:10083900AB3AAA39A938A8377F407E427D0F7C00A0
:100849001201E5C374FF9FFF74FF9EFEE49DFDE462
:100859009CFC78081202888FC6AB3AAA39A938A835
:10086900377F407E427D0F7C001201E5C374FF9FF4
:09087900FF8FC543C408D2992287
:070C44003098FDAF99C29842
:010C4B002286
:080C4C00C2998F993099FD2235
:100882008F3E8E3D8D3C8C3B53B1FB53B2FB53B339
:10089200BF53B4BF75F85075C40853C4DFAB3EAA4A
:1008A2003DA93CA83B7F407E427D0F7C001201E5C2
:1008B200C374FF9FFF74FF9EFEE49DFDE49CFC78E1
:1008C200081202888FC6AB3EAA3DA93CA83B7F40D6
:1008D2007E427D0F7C001201E5C374FF9FFF8FC52E
:0408E20043C40822E1
:070C540030F8FDAF9AC2F871
:010C5B002276
:080C5C00C2F98F9A30F9FD2264
:030000000205BC3A
:1005BC0075C7AA75C75575FD5A75C7AA75C7557500
:1005CC00FDA5787FE4F6D8FD9000007FFF7E03E464
:0C05DC00F0A3DFFCDEFA75813F0206236D
:1005E800020B8BE493A3F8E493A34003F68001F293
:1005F80008DFF48029E493A3F85407240CC8C33314
:10060800C4540F4420C8834004F456800146F6DFE2
:10061800E4800B0102040810204080900BE3E47E84
:10062800019360BCA3FF543F30E509541FFEE493D7
:10063800A360010ECF54C025E060A840B8E493A39E
:10064800FAE493A3F8E493A3C8C582C8CAC583CAC9
:10065800F0A3C8C582C8CAC583CADFE9DEE780BE81
:010C0C0000E7
:10000300E709F608DFFA8046E709F208DFFA803EDF
:1000130088828C83E709F0A3DFFA8032E309F608CC
:10002300DFFA8078E309F208DFFA807088828C8334
:10003300E309F0A3DFFA806489828A83E0A3F608E8
:10004300DFFA805889828A83E0A3F208DFFA804CC2
:1000530080D280FA80C680D4806980F28033801099
:1000630080A680EA809A80A880DA80E280CA803302
:1000730089828A83ECFAE493A3C8C582C8CCC5837A
:10008300CCF0A3C8C582C8CCC583CCDFE9DEE7804A
:100093000D89828A83E493A3F608DFF9ECFAA9F0C9
:1000A300EDFB2289828A83ECFAE0A3C8C582C8CC1F
:1000B300C583CCF0A3C8C582C8CCC583CCDFEADE38
:1000C300E880DB89828A83E493A3F208DFF980CC9A
:1000D30088F0EF60010E4E60C388F0ED2402B40493
:1000E3000050B9F582EB2402B4040050AF2323453A
:0600F3008223900053730C
:1000F900BB010689828A83E0225002E722BBFE0205
:09010900E32289828A83E4932237
:10011200BB010CE58229F582E5833AF583E02250A2
:1001220006E92582F8E622BBFE06E92582F8E222EC
:0D013200E58229F582E5833AF583E4932206
:10013F00BB010689828A83F0225002F722BBFE019F
:02014F00F32299
:10015100F8BB010DE58229F582E5833AF583E8F0E4
:10016100225006E92582C8F622BBFE05E92582C890
:02017100F22278
:10017300C2D5EC30E709B2D5E4C39DFDE49CFCEEA7
:1001830030E715B2D5E4C39FFFE49EFE12029BC382
:10019300E49DFDE49CFC800312029B30D507C3E47D
:0601A3009FFFE49EFE2216
:1001A90075F008758200EF2FFFEE33FECD33CDCC0D
:1001B90033CCC58233C5829BED9AEC99E582984090
:1001C9000CF582EE9BFEED9AFDEC99FC0FD5F0D66D
:1001D900E4CEFBE4CDFAE4CCF9A88222B800C1B997
:1001E9000059BA002DEC8BF084CFCECDFCE5F0CBD5
:1001F900F97818EF2FFFEE33FEED33FDEC33FCEB0E
:1002090033FB10D703994004EB99FB0FD8E5E4F9C8
:10021900FA227818EF2FFFEE33FEED33FDEC33FCB5
:10022900C933C910D7059BE99A4007EC9BFCE99AA9
:10023900F90FD8E0E4C9FAE4CCFB2275F010EF2FEE
:10024900FFEE33FEED33FDCC33CCC833C810D707EE
:100259009BEC9AE899400AED9BFDEC9AFCE899F829
:0E0269000FD5F0DAE4CDFBE4CCFAE4C8F922BC
:10027700EB9FF5F0EA9E42F0E99D42F0E89C45F0DD
:010287002254
:10028800E8600FECC313FCED13FDEE13FEEF13FF54
:03029800D8F12278
:10029B00BC000BBE0029EF8DF084FFADF022E4CC47
:1002AB00F875F008EF2FFFEE33FEEC33FCEE9DEC10
:1002BB00984005FCEE9DFE0FD5F0E9E4CEFD22ED56
:1002CB00F8F5F0EE8420D21CFEADF075F008EF2FA0
:1002DB00FFED33FD4007985006D5F0F222C398FD91
:0502EB000FD5F0EA222E
:00000001FF
