:040D4600FFFFFFFFAD
:100CC500012400012500012600012700012301025E
:030CD500210000FB
:04069F00AB07AA06F5
:1006A3007C037DE8120173900010EEF0A3EFF07C61
:1006B300007D64AF03AE021201737C007D0A120158
:1006C30073A3ECF0A3EDF07C007D64AF03AE0212E4
:1006D30001737E007F0ACFCDCFCECCCE120173A3A0
:1006E300EEF0A3EFF0AE02AF037C007D0A120173BC
:1006F300A3ECF0A3EDF078087C007D007BFF7A0D7E
:1007030079467E007F041200D3900010A3E0FF120D
:100713000D0C8F08900012A3E0FF120D0C8F0990AF
:100723000014A3E0FF120D0C8F0A900016A3E0FF44
:10073300120D0C8F0B750F007510007511087B00DF
:070743007A0079280207DCAF
:100A11007B007A007928750C0C7D0B12091D7F640F
:100A21007E007D007C00120B457B007A0079287DD9
:100A31000F120D1B0522E522AE217002052114FFC4
:100A410012069F7FF47E017D007C00120B45E5229A
:0F0A5100B40FE1E521B427DCE4F521F52280D5CF
:040D4A0000000000A5
:100CD8005000003F065B4F666D7D077F6F777C395C
:060CE8005E7971013F403E
:10091D008B088A09890AED12013FAB08AA09A90AB9
:10092D00900001E50C1201511200F9FF7D03120236
:10093D00F0AB08AA09A90A900001120112FF7D036C
:10094D001202F0AB08AA09A90A1200F9FFC201129E
:10095D000543AB08AA09A90A900001120112FFC2B2
:04096D00010205433B
:0B0D1B00ED5407440890000202015153
:0607DC008B0C8A0D890E52
:1007E200120CF57D4012041A120BDB120CEF7DC0C5
:1007F20012041AE4900018F0900018E0FFC3940469
:1008020074809480501AAB0FAA10A9118F8275833D
:1008120000120112FD12041A900018E004F080D8B0
:10082200120BDB120CEFAB0CAA0DA90E90000212F8
:100832000112540F2480FD120420AB0CAA0DA90E44
:0E084200900001120112FF1200F9FD020BECF2
:060C9A008B1D8A1E891F5C
:100CA000781C7C007D017BFF7A0D794A7E007F04F1
:100CB0001200D3750F0175100075111CAB1DAA1E13
:050CC000A91F0207DC82
:0D0CEF00AB0CAA0DA90E900001120112FF1E
:100CFC00C2011205437F017E007D007C00020AFACE
:100BDB00AB0CAA0DA90E900001120112FF1200F925
:010BEB00FD0C
:100BEC008F128D13C2011205437F017E007D007CA4
:100BFC0000120AFAD201AF131205437F017E007D69
:100C0C00007C00120AFAD201AF121205437F017E5A
:080C1C00007D007C00020AFAD1
:06041A00AB0CAA0DA90EB7
:060420008B128A138914FF
:10042600900019EDF0E4A3F090001AE0C39408746C
:10043600809480506DAB12AA13A9141200F9FFC262
:10044600011205437F017E007D007C00120AFA90AE
:100456000019E0AB12AA13A91490000130E00812AB
:100466000112FFD2018006120112FFC201120543DA
:100476007F017E007D007C00120AFAAB12AA13A946
:10048600141200F9FFD2011205437F017E007D00A0
:100496007C00120AFA900019E0C313F0A3E004F0FE
:1004A6008086AB12AA13A9141200F9FFC201120525
:1004B60043AB12AA13A914900001120112FFD20134
:1004C6001205437F017E007D007C00120AFAAB1202
:1004D600AA13A9141200F9FFD2011205437F017E67
:1004E600007D007C00120AFAAB12AA13A914900030
:1004F60001120112FF12074AE43390001BF070123A
:10050600AB12AA13A914900001120112FFC2011224
:1005160005437F017E007D007C00120AFAAB12AA19
:1005260013A9141200F9FFC2011205437F017E00D0
:0C0536007D007C00120AFA90001BE0FF20
:010542002296
:0F0D0C00EF540F2400F582E43400F583E0FF225A
:1002F000C201EFFB64087003020419EB6409700388
:10030000020419EDFBD3940374809480400302042B
:1003100019EF641E702FEB700553ACFE8016EDFBD9
:100320007A006401700553ACFE8017EB64024A70DA
:100330000843AC0153ADFE800CEB64034A700643E6
:10034000AC0143AD01EFFBC3941274809480400371
:10035000020419C3EB940A748094804003D3800193
:10036000C39201EF75F00A84AFF0EDFB7A007024C0
:10037000300110A80704088002C333D8FCF452B33C
:1003800052B422A8077401088002C333D8FCF45287
:10039000B152B222EB64014A7024300110A8070464
:1003A000088002C333D8FCFEF452B38057A8077408
:1003B00001088002C333D8FCFEF452B18058EDFB33
:1003C0007A0064027028300112A80704088002C372
:1003D00033D8FCFE42B3EEF452B422A807740108ED
:1003E0008002C333D8FCFE42B1EEF452B222EB6479
:1003F000034A7025300111A80704088002C333D8CE
:10040000FCFE42B3EE42B422A8077401088002C386
:0904100033D8FCFE42B1EE42B209
:0104190022C0
:10074A00EFFD7C007003A28022ED64014C7003A2CD
:10075A008122ED64024C7003A28222ED64034C7084
:10076A0003A28322ED64044C7003A28422ED640583
:10077A004C7003A28522ED64064C7003A28622ED1A
:10078A0064074C7003A28722ED640A4C7003A2909E
:10079A0022ED640B4C7003A29122ED640C4C7003A1
:1007AA00A29222ED640D4C7003A29322ED640E4CCA
:1007BA007003A29422ED640F4C7003A29522ED649B
:1007CA00104C7003A29622ED64114C7003A297227A
:0207DA00C32238
:10054300EFFD7C007005A201928022ED64014C70E6
:1005530005A201928122ED64024C7005A2019282F0
:1005630022ED64034C7005A201928322ED64044CD6
:100573007005A201928422ED64054C7005A20192DC
:100583008522ED64064C7005A201928622ED640774
:100593004C7005A201928722ED640A4C7005A201FA
:1005A300929022ED640B4C7005A201929122ED64AE
:1005B3000C4C7005A201929222ED640D4C7005A2C1
:1005C30001929322ED640E4C7005A201929422EDE8
:1005D300640F4C7005A201929522ED64104C7005D6
:1005E300A201929622ED64114C7004A2019297220B
:100C2400E4FDFC43E10153E1CF53E8F0EF54074204
:100C3400E8E4F5F6A80704088002C333D8FC42F6BA
:100C4400C2EFD2EE30EFFDAFC3EF75F010A4FFADED
:0C0C5400C2E5F0FCEF4D53E1FEAE04FFE2
:010C60002271
:100AAE00EF64117003FF803DEF641E70047F0180C0
:100ABE0034EF640770047F02802BEF640670047FAE
:100ACE00038022EF640570047F048019EF640470C4
:100ADE00047F058010EF640370047F068007EF64C7
:0C0AEE000B70057F07020C24E4FEFF22C1
:100AFA008F188E178D168C15538EF7438901D28C59
:100B0A00E4FFFEFDFCAB18AA17A916A815C312022A
:100B1A00776025758A7E758CFF308DFDC28DE5184C
:100B2A0024FFF518E51734FFF517E51634FFF51617
:0B0B3A00E51534FFF51580C8C28C22C1
:100B45008F0B8E0A8D098C08538EF7438901D28C41
:100B5500E4FFFEFDFCAB0BAA0AA909A808C3120213
:100B6500776025758ACA758CFA308DFDC28DE50BC7
:100B750024FFF50BE50A34FFF50AE50934FFF5090D
:0B0B8500E50834FFF50880C8C28C2290
:100B90008F1C8E1B8D1A8C19538EEF438910D28EA9
:100BA000E4FFFEFDFCAB1CAA1BA91AA819C3120284
:100BB000776025758BEA758DCB308FFDC28FE51C74
:100BC00024FFF51CE51B34FFF51BE51A34FFF51A6D
:0B0BD000E51934FFF51980C8C28E2221
:100A60008F2E8E2D8D2C8C2B53C9BF53C9DF43C9BC
:100A700010D2CAE4FFFEFDFCAB2EAA2DA92CA82B98
:100A8000C3120277602575CC3075CDF830CFFDC22A
:100A9000CFE52E24FFF52EE52D34FFF52DE52C3482
:0E0AA000FFF52CE52B34FFF52B80C8C2CA22CF
:100971008F328E318D308C2F75C40743C408E4FF4C
:10098100FEFDFCAB32AA31A930A82FC31202776059
:100991002B75C52C75C6CFE5C45410641070F8537F
:1009A100C4EFE53224FFF532E53134FFF531E530AE
:1009B10034FFF530E52F34FFF52F80C253C4F72201
:1009C1008F368E358D348C3375C40743C408E4FFEC
:1009D100FEFDFCAB36AA35A934A833C312027760F9
:1009E1002B75C5D875C6FFE5C45410641070F85353
:1009F100C4EFE53624FFF536E53534FFF535E5344A
:100A010034FFF534E53334FFF53380C253C4F722A4
:100C610053B1BF53B2BF53B17F53B27F7598504355
:100C71008920438780438E1053C4DFAB07AA06A99E
:100C810005A8047F407E427D0F7C001201E5EF0440
:090C9100F404F58DD28ED29922F3
:100850008F3A8E398D388C3753B1BF53B2BF53B1F5
:100860007F53B27F75985043878053C4F843C420A8
:10087000AB3AAA39A938A8377F407E427D0F7C0069
:100880001201E5C374FF9FFF74FF9EFEE49DFDE42B
:100890009CFC78081202888FC6AB3AAA39A938A8FE
:1008A000377F407E427D0F7C001201E5C374FF9FBD
:0908B000FF8FC543C408D2992250
:070D26003098FDAF99C2985F
:010D2D0022A3
:080D2E00C2998F993099FD2252
:1008B9008F3E8E3D8D3C8C3B53B1FB53B2FB53B302
:1008C900BF53B4BF75F85075C40853C4DFAB3EAA13
:1008D9003DA93CA83B7F407E427D0F7C001201E58B
:1008E900C374FF9FFF74FF9EFEE49DFDE49CFC78AA
:1008F900081202888FC6AB3EAA3DA93CA83B7F409F
:100909007E427D0F7C001201E5C374FF9FFF8FC5F6
:0409190043C40822A9
:070D360030F8FDAF9AC2F88E
:010D3D002293
:080D3E00C2F98F9A30F9FD2281
:030000000205F303
:1005F30075C7AA75C75575FD5A75C7AA75C75575C9
:10060300FDA5787FE4F6D8FD9000007FFF7E03E42C
:0C061300F0A3DFFCDEFA75813F02065AFE
:10061F00020A11E493A3F8E493A34003F68001F2D6
:10062F0008DFF48029E493A3F85407240CC8C333DC
:10063F00C4540F4420C8834004F456800146F6DFAB
:10064F00E4800B0102040810204080900CC5E47E6A
:10065F00019360BCA3FF543F30E509541FFEE493A0
:10066F00A360010ECF54C025E060A840B8E493A367
:10067F00FAE493A3F8E493A3C8C582C8CAC583CA92
:10068F00F0A3C8C582C8CAC583CADFE9DEE780BE4A
:010CEE000005
:10000300E709F608DFFA8046E709F208DFFA803EDF
:1000130088828C83E709F0A3DFFA8032E309F608CC
:10002300DFFA8078E309F208DFFA807088828C8334
:10003300E309F0A3DFFA806489828A83E0A3F608E8
:10004300DFFA805889828A83E0A3F208DFFA804CC2
:1000530080D280FA80C680D4806980F28033801099
:1000630080A680EA809A80A880DA80E280CA803302
:1000730089828A83ECFAE493A3C8C582C8CCC5837A
:10008300CCF0A3C8C582C8CCC583CCDFE9DEE7804A
:100093000D89828A83E493A3F608DFF9ECFAA9F0C9
:1000A300EDFB2289828A83ECFAE0A3C8C582C8CC1F
:1000B300C583CCF0A3C8C582C8CCC583CCDFEADE38
:1000C300E880DB89828A83E493A3F208DFF980CC9A
:1000D30088F0EF60010E4E60C388F0ED2402B40493
:1000E3000050B9F582EB2402B4040050AF2323453A
:0600F3008223900053730C
:1000F900BB010689828A83E0225002E722BBFE0205
:09010900E32289828A83E4932237
:10011200BB010CE58229F582E5833AF583E02250A2
:1001220006E92582F8E622BBFE06E92582F8E222EC
:0D013200E58229F582E5833AF583E4932206
:10013F00BB010689828A83F0225002F722BBFE019F
:02014F00F32299
:10015100F8BB010DE58229F582E5833AF583E8F0E4
:10016100225006E92582C8F622BBFE05E92582C890
:02017100F22278
:10017300C2D5EC30E709B2D5E4C39DFDE49CFCEEA7
:1001830030E715B2D5E4C39FFFE49EFE12029BC382
:10019300E49DFDE49CFC800312029B30D507C3E47D
:0601A3009FFFE49EFE2216
:1001A90075F008758200EF2FFFEE33FECD33CDCC0D
:1001B90033CCC58233C5829BED9AEC99E582984090
:1001C9000CF582EE9BFEED9AFDEC99FC0FD5F0D66D
:1001D900E4CEFBE4CDFAE4CCF9A88222B800C1B997
:1001E9000059BA002DEC8BF084CFCECDFCE5F0CBD5
:1001F900F97818EF2FFFEE33FEED33FDEC33FCEB0E
:1002090033FB10D703994004EB99FB0FD8E5E4F9C8
:10021900FA227818EF2FFFEE33FEED33FDEC33FCB5
:10022900C933C910D7059BE99A4007EC9BFCE99AA9
:10023900F90FD8E0E4C9FAE4CCFB2275F010EF2FEE
:10024900FFEE33FEED33FDCC33CCC833C810D707EE
:100259009BEC9AE899400AED9BFDEC9AFCE899F829
:0E0269000FD5F0DAE4CDFBE4CCFAE4C8F922BC
:10027700EB9FF5F0EA9E42F0E99D42F0E89C45F0DD
:010287002254
:10028800E8600FECC313FCED13FDEE13FEEF13FF54
:03029800D8F12278
:10029B00BC000BBE0029EF8DF084FFADF022E4CC47
:1002AB00F875F008EF2FFFEE33FEEC33FCEE9DEC10
:1002BB00984005FCEE9DFE0FD5F0E9E4CEFD22ED56
:1002CB00F8F5F0EE8420D21CFEADF075F008EF2FA0
:1002DB00FFED33FD4007985006D5F0F222C398FD91
:0502EB000FD5F0EA222E
:00000001FF
