:1005B000011A00011B00011C00011D0001190102AC
:0305C00008000030
:0905C4003098037F01227F002220
:0405ED00AF99C29868
:0105F10022E7
:10052F007F807E257D007C001201CE85190A750B18
:10053F0003750C0CE4F50DF50FF511F513F517E533
:10054F001AF50EE51BF510E51CF512E51DF514E582
:10055F0008F515E509F516E519F5187B007A007908
:08056F000A7D0F12029B80FEC1
:08029B008B218A2289238D24A6
:1002A300E4F525E525C395245022AB21AA22A923F1
:1002B300852582758300120003FF1205D57F017E19
:1002C300007D007C00120499052580D7AB21AA226A
:1002D300A923AD241202FE8E268F27EF1205D57FA8
:1002E300017E007D007C00120499E526FF1205D5EE
:0B02F3007F017E007D007C000204996A
:0802FE008B288A29892A8D2B27
:1003060074FFF52CF52DE4FDEDC3952B5047AB2876
:10031600AA29A92A8D82758300120003622DE4FCA6
:10032600ECC39408748094805028E52D30E015E5E0
:100336002CC313FEE52D13FFEE64A0F52CEF64012C
:10034600F52D800BE52CC313F52CE52D13F52D0C9F
:0903560080CE0D80B3AE2CAF2D5A
:01035F00227B
:10044E008F318E308D2F8C2E538EF7438901D28CA7
:10045E00E4FFFEFDFCAB31AA30A92FA82EC312007B
:10046E00FE6025758A7E758CFF308DFDC28DE5315F
:10047E0024FFF531E53034FFF530E52F34FFF52F4D
:0B048E00E52E34FFF52E80C8C28C2242
:100499008F2B8E2A8D298C28538EF7438901D28C74
:1004A900E4FFFEFDFCAB2BAA2AA929A828C3120048
:1004B900FE6025758ACA758CFA308DFDC28DE52BD3
:1004C90024FFF52BE52A34FFF52AE52934FFF52920
:0B04D900E52834FFF52880C8C28C2203
:1004E4008F358E348D338C32538EEF438910D28EF8
:1004F400E4FFFEFDFCAB35AA34A933A832C31200D5
:10050400FE6025758BEA758DCB308FFDC28FE53586
:1005140024FFF535E53434FFF534E53334FFF533A2
:0B052400E53234FFF53280C8C28E22A1
:100400008F398E388D378C3653C9BF53C9DF43C9F6
:1004100010D2CAE4FFFEFDFCAB39AA38A937A836D2
:10042000C31200FE602575CC3075CDF830CFFDC20B
:10043000CFE53924FFF539E53834FFF538E53734B1
:0E044000FFF537E53634FFF53680C8C2CA2214
:100360008F3D8E3C8D3B8C3A75C40743C408E4FF37
:10037000FEFDFCAB3DAA3CA93BA83AC31200FE60BF
:100380002B75C52C75C6CFE5C45410641070F85396
:10039000C4EFE53D24FFF53DE53C34FFF53CE53B8E
:1003A00034FFF53BE53A34FFF53A80C253C4F722F7
:1003B0008F418E408D3F8C3E75C40743C408E4FFD7
:1003C000FEFDFCAB41AA40A93FA83EC31200FE605F
:1003D0002B75C5D875C6FFE5C45410641070F8536A
:1003E000C4EFE54124FFF541E54034FFF540E53F2A
:1003F00034FFF53FE53E34FFF53E80C253C4F7229B
:1005770053B1BF53B2BF53B17F53B27F7598504346
:100587008920438780438E1053C4DFAB07AA06A98F
:1005970005A8047F407E427D0F7C0012006CEF04AB
:0905A700F404F58DD28ED29922E4
:1001CE008F248E238D228C2153B1BF53B2BF53B1D6
:1001DE007F53B27F75985043878053C4F843C42031
:1001EE00AB24AA23A922A8217F407E427D0F7C004A
:1001FE0012006CC374FF9FFF74FF9EFEE49DFDE42E
:10020E009CFC780812010F8FC6AB24AA23A922A842
:10021E00217F407E427D0F7C0012006CC374FF9FD5
:09022E00FF8FC543C408D29922D8
:0705CD003098FDAF99C298C0
:0105D4002204
:0805D500C2998F993099FD22B3
:100237008F458E448D438C4253B1FB53B2FB53B36E
:10024700BF53B4BF75F85075C40853C4DFAB45AA94
:1002570044A943A8427F407E427D0F7C0012006C78
:10026700C374FF9FFF74FF9EFEE49DFDE49CFC7832
:100277000812010F8FC6AB45AA44A943A8427F4085
:100287007E427D0F7C0012006CC374FF9FFF8FC5F9
:0402970043C4082232
:0705DD0030F8FDAF9AC2F8EF
:0105E40022F4
:0805E500C2F98F9A30F9FD22E2
:03000000020122D8
:1001220075C7AA75C75575FD5A75C7AA75C755759E
:10013200FDA5787FE4F6D8FD9000007FFF7E03E402
:0C014200F0A3DFFCDEFA758145020189A4
:10014E0002052FE493A3F8E493A34003F68001F293
:10015E0008DFF48029E493A3F85407240CC8C333B2
:10016E00C4540F4420C8834004F456800146F6DF81
:10017E00E4800B01020408102040809005B0E47E5C
:10018E00019360BCA3FF543F30E509541FFEE49376
:10019E00A360010ECF54C025E060A840B8E493A33D
:1001AE00FAE493A3F8E493A3C8C582C8CAC583CA68
:1001BE00F0A3C8C582C8CAC583CADFE9DEE780BE20
:0105C3000037
:10000300BB010CE58229F582E5833AF583E02250B2
:1000130006E92582F8E622BBFE06E92582F8E222FC
:0D002300E58229F582E5833AF583E4932216
:1000300075F008758200EF2FFFEE33FECD33CDCC87
:1000400033CCC58233C5829BED9AEC99E58298400A
:100050000CF582EE9BFEED9AFDEC99FC0FD5F0D6E7
:10006000E4CEFBE4CDFAE4CCF9A88222B800C1B911
:100070000059BA002DEC8BF084CFCECDFCE5F0CB4F
:10008000F97818EF2FFFEE33FEED33FDEC33FCEB88
:1000900033FB10D703994004EB99FB0FD8E5E4F943
:1000A000FA227818EF2FFFEE33FEED33FDEC33FC30
:1000B000C933C910D7059BE99A4007EC9BFCE99A24
:1000C000F90FD8E0E4C9FAE4CCFB2275F010EF2F69
:1000D000FFEE33FEED33FDCC33CCC833C810D70769
:1000E0009BEC9AE899400AED9BFDEC9AFCE899F8A4
:0E00F0000FD5F0DAE4CDFBE4CCFAE4C8F92237
:1000FE00EB9FF5F0EA9E42F0E99D42F0E89C45F058
:01010E0022CE
:10010F00E8600FECC313FCED13FDEE13FEEF13FFCE
:03011F00D8F122F2
:00000001FF
